S01D0000737479726D6F64756C5F68616C765F6475706C65782E7372656319
S113000045C000004DC000004BC0000049C00000C6
S113001047C0000045C0000043C0000041C00000CC
S11300203FC000003DC000003BC0000039C00000DC
S113003037C0000035C0000033C0000031C00000EC
S11300402FC000002DC000002BC0000029C00000FC
S113005027C0000025C0000023C0000021C000000C
S11300601FC000001DC000001BC0000019C000001C
S113007017C0000015C0000013C0000011C000002C
S11300800FC000000DC000000BC0000011241FBEF3
S1130090CFEFD0E4DEBFCDBF0E94BC090C94D30ADD
S11300A0AFCF92B1282F207F9F70922B92B91398D3
S11300B0129A35E03A95F1F700001298EFE1F3E077
S11300C03197F1F700C0000022B1F0E18F9FC00129
S11300D01124922F9F70892B82B9129A35E03A9598
S11300E0F1F7000012988FE39FE10197F1F700C048
S11300F0000008958FEF81B92FEF89EF90E0215030
S113010080409040E1F700C0000083E3CADF82E34F
S1130110C8DF88E2C6DF8CE0C4DF86E0C2DF81E0AE
S1130120C0DF8FE39FE10197F1F700C0000080E892
S1130130B8CF089581E0B5DF8FE39FE10197F1F730
S113014000C0000080E8ADCF08951092C500109261
S1130150C40086E08093C20080E18093C1000895CA
S1130160E0ECF0E0908195FFFDCF8093C600089508
S1130170DF92EF92FF920F931F93CF93DF93C82FD9
S1130180E62ED42E022F132F88E08093C100E0ECDA
S1130190F0E0808180838FEFE3DF8FEFE1DF8C2F4E
S11301A0DFDF82E08D0DDCDF8E2DDADFE394E39474
S11301B0ED0CEC0EDD2061F0C02FD12FF12C8E015F
S11301C08991CEDFF8018081E80EF394FD10F7CF1A
S11301D0F8948E2D8095C4DFE0ECF0E0808186FFFA
S11301E0FDCF80E18093C1007894DF91CF911F917E
S11301F00F91FF90EF90DF900895CF93DF9300D09D
S1130200CDB7DEB790E199836A839E012F5F3F4F9C
S113021042E063E0ADDF0F900F90DF91CF9108953E
S1130220CF93DF9300D01F92CDB7DEB790E29983CE
S11302306A837B839E012F5F3F4F43E063E098DF37
S11302400F900F900F90DF91CF910895CF93DF938C
S113025000D01F92CDB7DEB792E299836A837B8385
S11302609E012F5F3F4F43E063E082DF0F900F90CA
S11302700F90DF91CF9108951F93CF93DF9300D018
S11302801F92CDB7DEB7182FCB01BA0121E73DE3AA
S11302904AE550E40E94480A0E94F3098EE18983EA
S11302A06A837B839E012F5F3F4F43E064E0812F8D
S11302B05FDF0F900F900F90DF91CF911F91089502
S11302C0CF93DF931F92CDB7DEB719829E012F5FC4
S11302D03F4F40E065E08EEF4BDF0F90DF91CF9111
S11302E0089540E050E066E173E480E0C5DF40E05B
S11302F050E066E173E483E0BFDF40E050E066E194
S113030073E486E0B9DF40E050E066E173E489E03D
S1130310B3DF40E050E066E173E48CE0ADDF40E041
S113032050E066E173E48FE0A7DF40E050E064EB67
S113033072E481E0A1DF40E050E064EB72E484E029
S11303409BDF40E050E068EC72E487E095DF40E03A
S113035050E062E573E48AE08FDF40E050E062E55C
S113036073E48DE089DF40E050E062E573E480E10E
S113037083DF40E050E066E673E482E07DDF40E046
S113038050E066E673E485E077DF40E050E066E63F
S113039073E488E071DF40E050E06CE872E48BE0E5
S11303A06BDF40E050E06CE872E48EE065DF40E033
S11303B050E06CE872E481E15FDF82CF089540E0B1
S11303C050E069E173E486E057DF40E050E068EB19
S11303D072E487E051DF40E050E063E673E488E0D4
S11303E04BDF40E050E063E173E489E045DF40E047
S11303F050E060E773E48AE03FDF40E050E068E704
S113040072E48BE039DF40E050E066E173E483E0BE
S113041033DF40E050E060E872E484E02DDF40E048
S113042050E06DE673E485E027DF40E050E066E1EC
S113043073E48CE021DF40E050E060E573E48DE09C
S11304401BDF40E050E062E972E48EE015DF40E03B
S113045050E063E173E480E00FDF40E050E068EBDC
S113046072E481E009DF40E050E063E673E482E097
S113047003DF40E050E069E173E48FE0FDDE40E03B
S113048050E060E773E480E1F7DE40E050E068E7C5
S113049072E481E1F1DE2FEF82E597E021508040A4
S11304A09040E1F700C000000BCF089540E050E019
S11304B063E173E486E0E0DE40E050E06EEA72E47B
S11304C087E0DADE40E050E06DE673E488E0D4DEF5
S11304D040E050E06FE073E489E0CEDE40E050E0BD
S11304E06BE673E48AE0C8DE40E050E064E972E45D
S11304F08BE0C2DE40E050E06EE173E483E0BCDEFA
S113050040E050E06CE872E484E0B6DE40E050E0A5
S11305106CE673E485E0B0DE40E050E06EE173E445
S11305208CE0AADE40E050E06FE473E48DE0A4DEEA
S113053040E050E064E972E48EE09EDE40E050E08A
S11305406FE073E480E098DE40E050E062EC72E437
S113055081E092DE40E050E069E573E482E08CDE05
S113056040E050E063E173E48FE086DE40E050E079
S113057060E773E480E180DE40E050E060E772E42D
S113058081E17ADE2FEF82E597E0215080409040B0
S1130590E1F700C0000094CE089540E050E063E12C
S11305A073E486E069DE40E050E06EEA72E487E0DE
S11305B063DE40E050E06DE673E488E05DDE40E039
S11305C050E06FE073E489E057DE40E050E06BE414
S11305D073E48AE051DE40E050E066EA72E48BE0C6
S11305E04BDE40E050E06EE173E483E045DE40E042
S11305F050E06AEB72E484E03FDE40E050E062E603
S113060073E485E039DE40E050E06EE173E48CE0B1
S113061033DE40E050E06FE473E48DE02DDE40E033
S113062050E064E972E48EE027DE40E050E06FE0E1
S113063073E480E021DE40E050E062EC72E481E0AB
S11306401BDE40E050E069E573E482E015DE40E043
S113065050E063E173E48FE00FDE40E050E065E5D5
S113066073E480E109DE40E050E06CE772E481E18C
S113067003DE2FEF82E597E0215080409040E1F7C0
S113068000C000001DCE089540E050E063E173E433
S113069086E0F2DD40E050E060E772E487E0ECDD04
S11306A040E050E060E773E488E0E6DD40E050E0DD
S11306B06FE073E489E0E0DD40E050E06BE473E474
S11306C08AE0DADD40E050E066EA72E48BE0D4DDF3
S11306D040E050E06EE173E483E0CEDD40E050E0C2
S11306E06AEB72E484E0C8DD40E050E062E673E463
S11306F085E0C2DD40E050E06EE173E48CE0BCDDF7
S113070040E050E06AE673E48DE0B6DD40E050E09E
S113071060E872E48EE0B0DD40E050E06FE073E446
S113072080E0AADD40E050E060E772E481E0A4DD0F
S113073040E050E062E673E482E09EDD40E050E099
S113074063E173E48FE098DD40E050E065E573E435
S113075080E192DD40E050E06CE772E481E18CDD01
S11307602FEF82E597E0215080409040E1F700C0F0
S11307700000A6CD089540E050E069E173E486E00E
S11307807BDD40E050E060E772E487E075DD40E047
S113079050E06EE673E488E06FDD40E050E063E132
S11307A073E489E069DD40E050E060E573E48AE0E9
S11307B063DD40E050E062E972E48BE05DDD40E03F
S11307C050E066E173E483E057DD40E050E068EB1D
S11307D072E484E051DD40E050E063E673E485E0D8
S11307E04BDD40E050E066E173E48CE045DD40E041
S11307F050E06BE673E48DE03FDD40E050E06CE7F1
S113080072E48EE039DD40E050E063E173E480E0BF
S113081033DD40E050E060E772E481E02DDD40E04C
S113082050E06EE673E482E027DD40E050E069E1E9
S113083073E48FE021DD40E050E060E573E480E1A3
S11308401BDD40E050E062E972E481E115DD2FEF49
S113085082E597E0215080409040E1F700C000001D
S11308602FCD089540E050E06DE173E486E004DDAF
S113087040E050E060E772E487E0FEDC40E050E0F6
S113088062E673E488E0F8DC40E050E069E173E498
S113089089E0F2DC40E050E065E573E48AE0ECDCFA
S11308A040E050E06CE772E48BE0E6DC40E050E0CE
S11308B06EE073E483E0E0DC40E050E06AEB72E475
S11308C084E0DADC40E050E062E673E485E0D4DC06
S11308D040E050E06EE073E48CE0CEDC40E050E0B9
S11308E06BE673E48DE0C8DC40E050E060E872E45D
S11308F08EE0C2DC40E050E069E173E480E0BCDCFF
S113090040E050E060E772E481E0B6DC40E050E0B3
S113091060E773E482E0B0DC40E050E06DE173E452
S11309208FE0AADC40E050E06BE473E480E1A4DCF7
S113093040E050E066EA72E481E19EDC2FEF82E55C
S113094097E0215080409040E1F700C00000B8CC0F
S1130950089540E050E06DE173E486E08DDC40E012
S113096050E062EC72E487E087DC40E050E069E547
S113097073E488E081DC40E050E069E173E489E0FD
S11309807BDC40E050E065E573E48AE075DC40E040
S113099050E06CE772E48BE06FDC40E050E06EE026
S11309A073E483E069DC40E050E06AEB72E484E0E5
S11309B063DC40E050E062E673E485E05DDC40E047
S11309C050E06EE073E48CE057DC40E050E06FE40C
S11309D073E48DE051DC40E050E064E972E48EE0C1
S11309E04BDC40E050E069E173E480E045DC40E04A
S11309F050E06EEA72E481E03FDC40E050E06DE6F6
S1130A0073E482E039DC40E050E06DE173E48FE0B0
S1130A1033DC40E050E06BE473E480E12DDC40E043
S1130A2050E066EA72E481E127DC2FEF82E597E08B
S1130A30215080409040E1F700C0000041CC08956F
S1130A4040E050E06DE173E486E016DC40E050E005
S1130A5062EC72E487E010DC40E050E069E573E4A6
S1130A6088E00ADC40E050E069E173E489E004DCFA
S1130A7040E050E060E773E48AE0FEDB40E050E0F1
S1130A8060E772E48BE0F8DB40E050E06EE073E492
S1130A9083E0F2DB40E050E062E872E484E0ECDB07
S1130AA040E050E06CE673E485E0E6DB40E050E0D3
S1130AB06EE073E48CE0E0DB40E050E06FE473E46C
S1130AC08DE0DADB40E050E064E972E48EE0D4DBF0
S1130AD040E050E069E173E480E0CEDB40E050E0C8
S1130AE06EEA72E481E0C8DB40E050E06DE673E456
S1130AF082E0C2DB40E050E06DE173E48FE0BCDBF8
S1130B0040E050E060E773E480E1B6DB40E050E0B1
S1130B1064E972E481E1B0DB2FEF82E597E02150D4
S1130B2080409040E1F700C00000CACB089588DF00
S1130B3046DCBCDC32DDA8DD1EDE94DE0ACF08957F
S1130B4008DF90DE18DEA0DD28DDB0DC38DC78CFED
S1130B50089540E050E066E173E486E08DDB40E018
S1130B6050E064EB72E487E087DB40E050E06CE542
S1130B7073E488E081DB40E050E065E273E489E0FF
S1130B807BDB40E050E06DE573E48AE075DB40E038
S1130B9050E064EA72E48BE06FDB40E050E064E232
S1130BA073E483E069DB40E050E062E972E484E0EE
S1130BB063DB40E050E063E673E485E05DDB40E046
S1130BC050E066E173E48CE057DB40E050E062E51E
S1130BD073E48DE051DB40E050E060EA72E48EE0C3
S1130BE04BDB40E050E066E173E480E045DB40E04D
S1130BF050E064EB72E481E03FDB40E050E06CE500
S1130C0073E482E039DB40E050E065E273E48FE0B6
S1130C1033DB40E050E06DE573E480E12DDB40E040
S1130C2050E064EA72E481E127DB2FEF82E597E08C
S1130C30215080409040E1F700C0000041CB08956E
S1130C4040E050E066E173E486E016DB40E050E00B
S1130C5064EB72E487E010DB40E050E06CE573E4A1
S1130C6088E00ADB40E050E062E373E489E004DBFF
S1130C7040E050E063E573E48AE0FEDA40E050E0EF
S1130C806EEB72E48BE0F8DA40E050E060E373E48A
S1130C9083E0F2DA40E050E066E972E484E0ECDA02
S1130CA040E050E060E673E485E0E6DA40E050E0DE
S1130CB066E173E48CE0E0DA40E050E062E573E47E
S1130CC08DE0DADA40E050E060EA72E48EE0D4DAF3
S1130CD040E050E066E173E480E0CEDA40E050E0CA
S1130CE064EB72E481E0C8DA40E050E06CE573E460
S1130CF082E0C2DA40E050E062E373E48FE0BCDA01
S1130D0040E050E063E573E480E1B6DA40E050E0AF
S1130D106EEB72E481E1B0DA2FEF82E597E02150C7
S1130D2080409040E1F700C00000CACA089540E046
S1130D3050E066E173E486E09FDA40E050E064EB63
S1130D4072E487E099DA40E050E06CE573E488E00F
S1130D5093DA40E050E062E373E489E08DDA40E046
S1130D6050E067E473E48AE087DA40E050E06CEC3A
S1130D7072E48BE081DA40E050E060E373E483E006
S1130D807BDA40E050E062EB72E484E075DA40E044
S1130D9050E069E573E485E06FDA40E050E066E135
S1130DA073E48CE069DA40E050E062E573E48DE0DE
S1130DB063DA40E050E060EA72E48EE05DDA40E03D
S1130DC050E066E173E480E057DA40E050E064EB21
S1130DD072E481E051DA40E050E06CE573E482E0D3
S1130DE04BDA40E050E062E373E48FE045DA40E040
S1130DF050E067E473E480E13FDA40E050E06CECFB
S1130E0072E481E139DA2FEF82E597E021508040E6
S1130E109040E1F700C0000053CA089540E050E05C
S1130E2066E173E486E028DA40E050E06CE872E4BE
S1130E3087E022DA40E050E06CE573E488E01CDAF5
S1130E4040E050E062E373E489E016DA40E050E009
S1130E5067E473E48AE010DA40E050E06CEC72E49A
S1130E608BE00ADA40E050E060E373E483E004DA04
S1130E7040E050E062EB72E484E0FED940E050E0F0
S1130E8069E573E485E0F8D940E050E066E173E495
S1130E908CE0F2D940E050E066E673E48DE0ECD9F2
S1130EA040E050E060EA72E48EE0E6D940E050E0D1
S1130EB066E173E480E0E0D940E050E06CE872E47D
S1130EC081E0DAD940E050E06CE573E482E0D4D903
S1130ED040E050E062E373E48FE0CED940E050E0BC
S1130EE067E473E480E1C8D940E050E06CEC72E45C
S1130EF081E1C2D92FEF82E597E0215080409040F4
S1130F00E1F700C00000DCC9089540E050E066E16C
S1130F1073E486E0B1D940E050E06CE872E487E025
S1130F20ABD940E050E06CE573E488E0A5D940E03B
S1130F3050E065E273E489E09FD940E050E062E567
S1130F4073E48AE099D940E050E06AEA72E48BE005
S1130F5093D940E050E061E273E483E08DD940E04E
S1130F6050E06CEA72E484E087D940E050E06EE53A
S1130F7073E485E081D940E050E066E173E48CE0FD
S1130F807BD940E050E066E673E48DE075D940E03B
S1130F9050E060EA72E48EE06FD940E050E066E130
S1130FA073E480E069D940E050E06CE872E481E0E9
S1130FB063D940E050E06CE573E482E05DD940E041
S1130FC050E065E273E48FE057D940E050E062E519
S1130FD073E480E151D940E050E06AEA72E481E1CF
S1130FE04BD92FEF82E597E0215080409040E1F704
S1130FF000C0000065C9089540E050E066E173E474
S113100086E03AD940E050E06CE872E487E034D9F5
S113101040E050E06CE573E488E02ED940E050E015
S113102066E173E489E028D940E050E063E573E4C5
S11310308AE022D940E050E064EA72E48BE01CD9F3
S113104040E050E066E173E483E016D940E050E00C
S113105062EB72E484E010D940E050E06AE573E4A6
S113106085E00AD940E050E066E173E48CE004D9FD
S113107040E050E066E673E48DE0FED840E050E0E6
S113108060EA72E48EE0F8D840E050E066E173E490
S113109080E0F2D840E050E06CE872E481E0ECD803
S11310A040E050E06CE573E482E0E6D840E050E0D4
S11310B066E173E48FE0E0D840E050E063E573E478
S11310C080E1DAD840E050E064EA72E481E1D4D807
S11310D02FEF82E597E0215080409040E1F700C077
S11310E00000EEC8089540E050E066E173E486E055
S11310F0C3D840E050E064EB72E487E0BDD840E040
S113110050E06CE573E488E0B7D840E050E066E175
S113111073E489E0B1D840E050E063E573E48AE029
S1131120ABD840E050E064EA72E48BE0A5D840E03C
S113113050E066E173E483E09FD840E050E062EB66
S113114072E484E099D840E050E06AE573E485E015
S113115093D840E050E066E173E48CE08DD840E041
S113116050E062E573E48DE087D840E050E060EA47
S113117072E48EE081D840E050E066E173E480E000
S11311807BD840E050E064EB72E481E075D840E045
S113119050E06CE573E482E06FD840E050E066E133
S11311A073E48FE069D840E050E063E573E480E1E4
S11311B063D840E050E064EA72E481E15DD82FEF47
S11311C082E597E0215080409040E1F700C00000A4
S11311D077C8089540E050E066E173E486E04CD8B7
S11311E040E050E064EB72E487E046D840E050E031
S11311F06CE573E488E040D840E050E066E173E4D5
S113120089E03AD840E050E062E673E48AE034D8FA
S113121040E050E066E972E48BE02ED840E050E014
S113122066E173E483E028D840E050E064E972E4C6
S113123084E022D840E050E061E673E485E01CD805
S113124040E050E066E173E48CE016D840E050E002
S113125062E573E48DE010D840E050E060EA72E4A7
S11312608EE00AD840E050E066E173E480E004D800
S113127040E050E064EB72E481E00E943C0140E015
S113128050E06CE573E482E00E943C0140E050E0F1
S113129066E173E48FE00E943C0140E050E062E6C6
S11312A073E480E10E943C0140E050E066E972E4AE
S11312B081E10E943C012FEF82E597E021508040BC
S11312C09040E1F700C000000C94600108950BDF2A
S11312D093DE1BDEA3DD2BDDB3DC3BDC7BCF08958B
S11312E002DF78DF36DCACDC22DD98DD0EDE84CE76
S11312F008951DDC1CDC1BDC1ADCE9CF089517DC27
S113130016DC15DC14DCECCF089561E08EEF0E944E
S1131310FD006FEF73E08EEF0E94260166E970E036
S11313208EEF0C94100108950097B9F0299A2FEFCD
S113133033EC49E0215030404040E1F700C0000068
S113134015B82FEF33EC49E0215030404040E1F72D
S113135000C000000197009749F7089584B18360A5
S113136084B983E090E0E0DF0E94A5000E947A0047
S11313700E949A00CACF0895F1DF2FEF87EA91E621
S1131380215080409040E1F700C000000E947101AC
S11313902FEF87EA91E6215080409040E1F700C0AA
S11313A00000C0E0D0E000E010E002C0C0DB219605
S11313B0C530D105DCF3C4DBC3DBC2DBC1DBC0DB7E
S11313C086DF85DF84DF83DF82DF8ADF89DF88DFF2
S11313D087DF86DF8EDF8DDF8CDF91DF90DF8FDFAD
S11313E0C02FD12FE5CF33D088F09F5790F0B92F7D
S11313F09927B751A0F0D1F0660F771F881F991F66
S11314001AF0BA95C9F712C0B13081F03AD0B1E000
S1131410089537C0672F782F8827B85F39F0B93F10
S1131420CCF3869577956795B395D9F73EF4909567
S11314308095709561957F4F8F4F9F4F089557FD0D
S11314409058440F551F59F05F3F71F04795880F2E
S113145097FB991F61F09F3F79F0879508951216C5
S113146013061406551FF2CF4695F1DF08C0161671
S113147017061806991FF1CF869571056105089422
S11314800895E894BB2766277727CB0197F9089539
S11314900BD078C069D028F06ED018F0952309F0ED
S11314A05AC05FC01124EECFCADFA0F3959FD1F3D9
S11314B0950F50E0551F629FF001729FBB27F00DFE
S11314C0B11D639FAA27F00DB11DAA1F649F662753
S11314D0B00DA11D661F829F2227B00DA11D621FA2
S11314E0739FB00DA11D621F839FA00D611D221F5C
S11314F0749F3327A00D611D231F849F600D211D40
S1131500822F762F6A2F11249F5750408AF0E1F0E2
S113151088234AF0EE0FFF1FBB1F661F771F881F2B
S113152091505040A9F79E3F510570F014C0AACFC6
S11315305F3FECF3983EDCF3869577956795B79516
S1131540F795E7959F5FC1F7FE2B880F911D969540
S1131550879597F9089597F99F6780E870E060E0B0
S113156008959FEF80EC089500240A941616170638
S113157018060906089500240A9412161306140680
S113158005060895092E0394000C11F4882352F0E3
S1131590BB0F40F4BF2B11F460FF04C06F5F7F4F9B
S10D15A08F4F9F4F0895F894FFCF7A
S9030000FC
