S00C00006D61696E2E7372656373
S11300004CC0000068C0000066C0000064C000006E
S113001062C0000060C000005EC000005CC0000060
S11300205AC0000058C0000056C0000054C0000070
S113003052C0000050C000004EC000004CC0000080
S11300404AC0000048C0000046C000000C940017DD
S113005042C0000040C000003EC000003CC00000A0
S11300603AC0000038C0000036C0000034C00000B0
S113007032C0000030C000002EC000002CC00000C0
S11300802AC0000028C0000026C00000C616CE16F4
S1130090D616DD16E416EB16F21611241FBECFEFAA
S11300A0D0E4DEBFCDBF11E0A0E0B1E0E6EFF0E3C5
S11300B000E00BBF02C007900D92A030B107D9F742
S11300C021E0A0E0B1E001C01D92A230B207E1F747
S11300D022D00C94791894CF0097B9F0289A2FEF76
S11300E039E648E1215030404040E1F700C00000CB
S11300F015B82FEF39E648E1215030404040E1F790
S113010000C000000197009749F70895E8D0F4D0A3
S1130110FED0D9C00895FADF2FEF87EA91E6215087
S113012080409040E1F700C0000004D12FEF83E24B
S113013094EF215080409040E1F700C0000081E03E
S113014090E0CADF80E00E94FD16FCCFDF92EF92C0
S1130150FF920F931F93CF93DF93C82FE62ED42ED5
S1130160022F132FD0D0E0ECF0E0808180838FEF5A
S1130170D9D08FEFD7D08C2FD5D082E08D0DD2D0AF
S11301808E2DD0D0E394E394ED0CEC0EDD2061F0E1
S1130190C02FD12FF12C8E018991C4D0F801808118
S11301A0E80EF394FD10F7CFF8948E2D8095BAD015
S11301B0E0ECF0E0808186FFFDCFA1D07894DF9160
S11301C0CF911F910F91FF90EF90DF900895CF93FF
S11301D0DF9300D0CDB7DEB790E199836A839E01A7
S11301E02F5F3F4F42E063E0B1DF0F900F90DF914C
S11301F0CF910895CF93DF9300D01F92CDB7DEB790
S113020090E299836A837B839E012F5F3F4F43E093
S113021063E09CDF0F900F900F90DF91CF910895D2
S1130220CF93DF9300D01F92CDB7DEB792E29983CC
S11302306A837B839E012F5F3F4F43E063E086DF49
S11302400F900F900F90DF91CF9108951F93CF934C
S1130250DF9300D01F92CDB7DEB7182FCB01BA01C0
S1130260103131F420E030E044EB52E40E942E17C8
S113027021E73DE34AE550E40E9410180E949317D9
S11302808EE189836A837B839E012F5F3F4F43E026
S113029064E0812F5BDF0F900F900F90DF91CF917F
S11302A01F910895CF93DF931F92CDB7DEB71982C4
S11302B09E012F5F3F4F40E065E08EEF47DF0F90D8
S11302C0DF91CF91089561E08EEF81DF6FEF73E0EE
S11302D08EEFA6DF66E970E08EEF8CCF08958CB5C3
S11302E080688CBD8CB580648CBD08958EBD0DB4C2
S11302F007FEFDCF8EB5089587E484B9089580E1A3
S11303008093C100089588E08093C10008951092FD
S1130310C5001092C40086E08093C20080E18093FF
S1130320C1000895E0ECF0E0908195FFFDCF80934B
S1130330C600089540E050E066E173E480E086DFA3
S113034040E050E066E173E483E080DF40E050E0A9
S113035066E173E486E07ADF40E050E066E173E44E
S113036089E074DF40E050E066E173E48CE06EDF26
S113037040E050E066E173E48FE068DF40E050E085
S113038064EB72E481E062DF40E050E064EB72E42D
S113039084E05CDF40E050E064EB72E487E056DF29
S11303A040E050E062E573E48AE050DF40E050E072
S11303B062E573E48DE04ADF40E050E062E573E417
S11303C080E144DF40E050E066E673E482E03EDF33
S11303D040E050E066E673E485E038DF40E050E05A
S11303E066E673E488E032DF40E050E06CE872E4F3
S11303F08BE02CDF40E050E06CE872E48EE026DF16
S113040040E050E06CE872E481E120DF4BCF0895D6
S113041040E050E069E173E486E018DF40E050E03A
S113042068EB72E487E012DF40E050E063E673E4D7
S113043088E00CDF40E050E063E173E489E006DF2C
S113044040E050E060E773E48AE000DF40E050E021
S113045068E772E48BE0FADE40E050E066E173E4C2
S113046083E0F4DE40E050E060E872E484E0EEDE35
S113047040E050E06DE673E485E0E8DE40E050E003
S113048066E173E48CE0E2DE40E050E060E573E4B2
S11304908DE0DCDE40E050E062E972E48EE0D6DE1E
S11304A040E050E063E173E480E0D0DE40E050E0FF
S11304B068EB72E481E0CADE40E050E063E673E496
S11304C082E0C4DE40E050E069E173E48FE0BEDE28
S11304D040E050E060E773E480E1B8DE40E050E0E3
S11304E068E772E481E1B2DE2FEF81EE94E02150FF
S11304F080409040E1F700C00000D4CE089540E071
S113050050E063E173E486E0A1DE40E050E06EEA8F
S113051072E487E09BDE40E050E06DE673E488E03F
S113052095DE40E050E06FE073E489E08FDE40E068
S113053050E06BE673E48AE089DE40E050E064E971
S113054072E48BE083DE40E050E06EE173E483E02C
S11305507DDE40E050E06CE872E484E077DE40E069
S113056050E06CE673E485E071DE40E050E06EE15B
S113057073E48CE06BDE40E050E06FE473E48DE004
S113058065DE40E050E064E972E48EE05FDE40E066
S113059050E06FE073E480E059DE40E050E062EC4C
S11305A072E481E053DE40E050E069E573E482E008
S11305B04DDE40E050E063E173E48FE047DE40E06D
S11305C050E060E773E480E141DE40E050E060E742
S11305D072E481E13BDE2FEF81EE94E02150804014
S11305E09040E1F700C000005DCE089540E050E087
S11305F063E173E486E02ADE40E050E06EEA72E4F0
S113060087E024DE40E050E06DE673E488E01EDE1F
S113061040E050E06FE073E489E018DE40E050E031
S11306206BE473E48AE012DE40E050E066EA72E4D0
S11306308BE00CDE40E050E06EE173E483E006DE24
S113064040E050E06AEB72E484E000DE40E050E019
S113065062E673E485E0FADD40E050E06EE173E4C5
S11306608CE0F4DD40E050E06FE473E48DE0EEDD17
S113067040E050E064E972E48EE0E8DD40E050E000
S11306806FE073E480E0E2DD40E050E062EC72E4AD
S113069081E0DCDD40E050E069E573E482E0D6DD32
S11306A040E050E063E173E48FE0D0DD40E050E0EF
S11306B065E573E480E1CADD40E050E06CE772E494
S11306C081E1C4DD2FEF81EE94E021508040904021
S11306D0E1F700C00000E6CD089540E050E063E19A
S11306E073E486E0B3DD40E050E060E772E487E065
S11306F0ADDD40E050E060E773E488E0A7DD40E072
S113070050E06FE073E489E0A1DD40E050E06BE489
S113071073E48AE09BDD40E050E066EA72E48BE03B
S113072095DD40E050E06EE173E483E08FDD40E06E
S113073050E06AEB72E484E089DD40E050E062E678
S113074073E485E083DD40E050E06EE173E48CE027
S11307507DDD40E050E06AE673E48DE077DD40E063
S113076050E060E872E48EE071DD40E050E06FE05C
S113077073E480E06BDD40E050E060E772E481E028
S113078065DD40E050E062E673E482E05FDD40E076
S113079050E063E173E48FE059DD40E050E065E54B
S11307A073E480E153DD40E050E06CE772E481E102
S11307B04DDD2FEF81EE94E0215080409040E1F731
S11307C000C000006FCD089540E050E069E173E49B
S11307D086E03CDD40E050E060E772E487E036DD2F
S11307E040E050E06EE673E488E030DD40E050E045
S11307F063E173E489E02ADD40E050E060E573E4FE
S11308008AE024DD40E050E062E972E48BE01EDD22
S113081040E050E066E173E483E018DD40E050E03E
S113082068EB72E484E012DD40E050E063E673E4D8
S113083085E00CDD40E050E066E173E48CE006DD29
S113084040E050E06BE673E48DE000DD40E050E012
S11308506CE772E48EE0FADC40E050E063E173E4BC
S113086080E0F4DC40E050E060E772E481E0EEDC3C
S113087040E050E06EE673E482E0E8DC40E050E003
S113088069E173E48FE0E2DC40E050E060E573E4AA
S113089080E1DCDC40E050E062E972E481E1D6DC36
S11308A02FEF81EE94E0215080409040E1F700C0AA
S11308B00000F8CC089540E050E06DE173E486E078
S11308C0C5DC40E050E060E772E487E0BFDC40E074
S11308D050E062E673E488E0B9DC40E050E069E1AE
S11308E073E489E0B3DC40E050E065E573E48AE05A
S11308F0ADDC40E050E06CE772E48BE0A7DC40E064
S113090050E06EE073E483E0A1DC40E050E06AEB89
S113091072E484E09BDC40E050E062E673E485E04E
S113092095DC40E050E06EE073E48CE08FDC40E066
S113093050E06BE673E48DE089DC40E050E060E871
S113094072E48EE083DC40E050E069E173E480E02F
S11309507DDC40E050E060E772E481E077DC40E079
S113096050E060E773E482E071DC40E050E06DE168
S113097073E48FE06BDC40E050E06BE473E480E10F
S113098065DC40E050E066EA72E481E15FDC2FEF71
S113099081EE94E0215080409040E1F700C00000D7
S11309A081CC089540E050E06DE173E486E04EDCD4
S11309B040E050E062EC72E487E048DC40E050E064
S11309C069E573E488E042DC40E050E069E173E407
S11309D089E03CDC40E050E065E573E48AE036DC25
S11309E040E050E06CE772E48BE030DC40E050E043
S11309F06EE073E483E02ADC40E050E06AEB72E4EA
S1130A0084E024DC40E050E062E673E485E01EDC30
S1130A1040E050E06EE073E48CE018DC40E050E02D
S1130A206FE473E48DE012DC40E050E064E972E4CA
S1130A308EE00CDC40E050E069E173E480E006DC29
S1130A4040E050E06EEA72E481E000DC40E050E017
S1130A506DE673E482E0FADB40E050E06DE173E4BC
S1130A608FE0F4DB40E050E06BE473E480E1EEDB24
S1130A7040E050E066EA72E481E1E8DB2FEF81EECA
S1130A8094E0215080409040E1F700C000000ACC7F
S1130A90089540E050E06DE173E486E0D7DB40E088
S1130AA050E062EC72E487E0D1DB40E050E069E5BD
S1130AB073E488E0CBDB40E050E069E173E489E073
S1130AC0C5DB40E050E060E773E48AE0BFDB40E070
S1130AD050E060E772E48BE0B9DB40E050E06EE0A8
S1130AE073E483E0B3DB40E050E062E872E484E066
S1130AF0ADDB40E050E06CE673E485E0A7DB40E06A
S1130B0050E06EE073E48CE0A1DB40E050E06FE481
S1130B1073E48DE09BDB40E050E064E972E48EE036
S1130B2095DB40E050E069E173E480E08FDB40E076
S1130B3050E06EEA72E481E089DB40E050E06DE66B
S1130B4073E482E083DB40E050E06DE173E48FE026
S1130B507DDB40E050E060E773E480E177DB40E078
S1130B6050E064E972E481E171DB2FEF81EE94E0FF
S1130B70215080409040E1F700C0000093CB0895DD
S1130B8040E050E066E173E486E060DB40E050E082
S1130B906CEB72E487E05ADB40E050E06FE573E40D
S1130BA088E054DB40E050E063E173E489E04EDB2D
S1130BB040E050E060E773E48AE048DB40E050E066
S1130BC068E772E48BE042DB40E050E066E173E406
S1130BD083E03CDB40E050E060E872E484E036DB34
S1130BE040E050E06DE673E485E030DB40E050E047
S1130BF066E173E48CE02ADB40E050E060E573E4F6
S1130C008DE024DB40E050E062E972E48EE01EDB1C
S1130C1040E050E063E173E480E018DB40E050E042
S1130C2068EB72E481E012DB40E050E063E673E4D9
S1130C3082E00CDB40E050E069E173E48FE006DB26
S1130C4040E050E060E773E480E100DB40E050E026
S1130C5068E772E481E1FADA2FEF81EE94E0215043
S1130C6080409040E1F700C000001CCB089540E0B4
S1130C7050E063E173E486E0E9DA40E050E06EEAD4
S1130C8072E487E0E3DA40E050E06DE673E488E084
S1130C90DDDA40E050E06FE073E489E0D7DA40E069
S1130CA050E06BE673E48AE0D1DA40E050E064E9B6
S1130CB072E48BE0CBDA40E050E06EE173E483E071
S1130CC0C5DA40E050E06CE872E484E0BFDA40E06A
S1130CD050E06CE673E485E0B9DA40E050E06EE1A0
S1130CE073E48CE0B3DA40E050E06FE473E48DE049
S1130CF0ADDA40E050E064E972E48EE0A7DA40E067
S1130D0050E06FE073E480E0A1DA40E050E062EC90
S1130D1072E481E09BDA40E050E069E573E482E04C
S1130D2095DA40E050E063E173E48FE08FDA40E06D
S1130D3050E060E773E480E189DA40E050E060E786
S1130D4072E481E183DA2FEF81EE94E02150804058
S1130D509040E1F700C00000A5CA089540E050E0CB
S1130D6063E173E486E072DA40E050E06EEA72E434
S1130D7087E06CDA40E050E06DE673E488E066DA20
S1130D8040E050E06FE073E489E060DA40E050E076
S1130D906BE473E48AE05ADA40E050E066EA72E415
S1130DA08BE054DA40E050E06EE173E483E04EDA25
S1130DB040E050E06AEB72E484E048DA40E050E05E
S1130DC062E673E485E042DA40E050E06EE173E409
S1130DD08CE03CDA40E050E06FE473E48DE036DA16
S1130DE040E050E064E972E48EE030DA40E050E044
S1130DF06FE073E480E02ADA40E050E062EC72E4F1
S1130E0081E024DA40E050E069E573E482E01EDA30
S1130E1040E050E063E173E48FE018DA40E050E032
S1130E2065E573E480E112DA40E050E06CE772E4D7
S1130E3081E10CDA2FEF81EE94E021508040904064
S1130E40E1F700C000002ECA089540E050E063E1DD
S1130E5073E486E0FBD940E050E060E772E487E0A9
S1130E60F5D940E050E060E773E488E0EFD940E072
S1130E7050E06FE073E489E0E9D940E050E06BE4CE
S1130E8073E48AE0E3D940E050E066EA72E48BE080
S1130E90DDD940E050E06EE173E483E0D7D940E06F
S1130EA050E06AEB72E484E0D1D940E050E062E6BD
S1130EB073E485E0CBD940E050E06EE173E48CE06C
S1130EC0C5D940E050E06AE673E48DE0BFD940E064
S1130ED050E060E872E48EE0B9D940E050E06FE0A1
S1130EE073E480E0B3D940E050E060E772E481E06D
S1130EF0ADD940E050E062E673E482E0A7D940E077
S1130F0050E063E173E48FE0A1D940E050E065E58F
S1130F1073E480E19BD940E050E06CE772E481E146
S1130F2095D92FEF81EE94E0215080409040E1F775
S1130F3000C00000B7C9089540E050E066E173E4E2
S1130F4086E084D940E050E06AE972E487E07ED923
S1130F5040E050E069E673E488E078D940E050E08E
S1130F6063E173E489E072D940E050E060E573E442
S1130F708AE06CD940E050E062E972E48BE066D923
S1130F8040E050E066E173E483E060D940E050E083
S1130F9068EB72E484E05AD940E050E063E673E41D
S1130FA085E054D940E050E066E173E48CE04ED92A
S1130FB040E050E06BE673E48DE048D940E050E057
S1130FC06CE772E48EE042D940E050E063E173E400
S1130FD080E03CD940E050E060E772E481E036D93B
S1130FE040E050E06EE673E482E030D940E050E047
S1130FF069E173E48FE02AD940E050E060E573E4EE
S113100080E124D940E050E062E972E481E11ED934
S11310102FEF81EE94E0215080409040E1F700C032
S1131020000040C9089540E050E068E173E486E0C0
S11310300DD940E050E060EB72E487E007D940E06E
S113104050E068E573E488E001D940E050E069E1EC
S113105073E489E0FBD840E050E065E573E48AE09E
S1131060F5D840E050E06CE772E48BE0EFD840E064
S113107050E06EE073E483E0E9D840E050E06AEBCE
S113108072E484E0E3D840E050E062E673E485E093
S1131090DDD840E050E06EE073E48CE0D7D840E067
S11310A050E06BE673E48DE0D1D840E050E060E8B6
S11310B072E48EE0CBD840E050E069E173E480E074
S11310C0C5D840E050E060E772E481E0BFD840E07A
S11310D050E060E773E482E0B9D840E050E06DE1AD
S11310E073E48FE0B3D840E050E06BE473E480E154
S11310F0ADD840E050E066EA72E481E1A7D82FEF72
S113110081EE94E0215080409040E1F700C000005F
S1131110C9C8089540E050E068E173E486E096D8D9
S113112040E050E06EEC72E487E090D840E050E09C
S11311306FE473E488E08AD840E050E069E173E446
S113114089E084D840E050E065E573E48AE07ED825
S113115040E050E06CE772E48BE078D840E050E087
S11311606EE073E483E072D840E050E06AEB72E42E
S113117084E06CD840E050E062E673E485E066D831
S113118040E050E06EE073E48CE060D840E050E072
S11311906FE473E48DE05AD840E050E064E972E40F
S11311A08EE054D840E050E069E173E480E04ED82A
S11311B040E050E06EEA72E481E048D840E050E05C
S11311C06DE673E482E042D840E050E06DE173E400
S11311D08FE03CD840E050E06BE473E480E136D823
S11311E040E050E066EA72E481E130D82FEF81EE0E
S11311F094E0215080409040E1F700C0000052C8C4
S1131200089540E050E068E173E486E01FD840E0D0
S113121050E06EEC72E487E019D840E050E06FE4EF
S113122073E488E013D840E050E069E173E489E0B6
S11312300DD840E050E060E773E48AE007D840E06E
S113124050E060E772E48BE001D840E050E06EE0EB
S113125073E483E00E94260140E050E062E872E417
S113126084E00E94260140E050E06CE673E485E0EF
S11312700E94260140E050E06EE073E48CE00E949E
S1131280260140E050E06FE473E48DE00E94260103
S113129040E050E064E972E48EE00E94260140E000
S11312A050E069E173E480E00E94260140E050E0F0
S11312B06EEA72E481E00E94260140E050E06DE6AF
S11312C073E482E00E94260140E050E06DE173E4A3
S11312D08FE00E94260140E050E060E773E480E183
S11312E00E94260140E050E064E972E481E10E943A
S11312F026012FEF81EE94E0215080409040E1F7E9
S113130000C000000C94520108957BDF39DCAFDC8F
S113131025DD9BDD11DE87DEFDCE089543DBCBDAD0
S113132053DADBD963D9EBD873D8B3CB089540E053
S113133050E069E173E486E00E94260140E050E059
S113134068EB72E487E00E94260140E050E063E627
S113135073E488E00E94260140E050E066E173E413
S113136089E00E94260140E050E060E773E48AE0EF
S11313700E94260140E050E066E872E48BE00E949F
S1131380260140E050E066E173E483E00E94260118
S113139040E050E060E872E484E00E94260140E00E
S11313A050E06DE673E485E00E94260140E050E0E1
S11313B066E173E48CE00E94260140E050E060E5C1
S11313C073E48DE00E94260140E050E062E972E49B
S11313D08EE00E94260140E050E063E173E480E087
S11313E00E94260140E050E068EB72E481E00E9434
S11313F0260140E050E063E673E482E00E942601A7
S113140040E050E069E173E48FE00E94260140E08F
S113141050E060E773E480E10E94260140E050E080
S113142068E772E481E10E9426012FEF81EE94E0E7
S1131430215080409040E1F700C000000C9452011C
S1131440089540E050E063E173E486E00E942601E1
S113145040E050E06EEA72E487E00E94260140E03A
S113146050E06DE673E488E00E94260140E050E01D
S113147064E173E489E00E94260140E050E06BE6F9
S113148073E48AE00E94260140E050E062E972E4DD
S11314908BE00E94260140E050E06EE173E483E0BB
S11314A00E94260140E050E06CE872E484E00E946F
S11314B0260140E050E06CE673E485E00E942601DA
S11314C040E050E06EE173E48CE00E94260140E0CD
S11314D050E06FE473E48DE00E94260140E050E0A8
S11314E064E972E48EE00E94260140E050E06FE07F
S11314F073E480E00E94260140E050E062EC72E474
S113150081E00E94260140E050E069E573E482E056
S11315100E94260140E050E063E173E48FE00E9402
S1131520260140E050E060E773E480E10E94260178
S113153040E050E060E772E481E10E9426012FEF71
S113154081EE94E0215080409040E1F700C000001B
S11315500C945201089540E050E063E173E486E0A6
S11315600E94260140E050E06EEA72E487E00E94A7
S1131570260140E050E06DE673E488E00E94260115
S113158040E050E064E173E489E00E94260140E019
S113159050E065E473E48AE00E94260140E050E0F4
S11315A06AEB72E48BE00E94260140E050E06EE1B9
S11315B073E483E00E94260140E050E06AEB72E4A9
S11315C084E00E94260140E050E062E673E485E096
S11315D00E94260140E050E06EE173E48CE00E943A
S11315E0260140E050E06FE473E48DE00E942601A0
S11315F040E050E064E972E48EE00E94260140E09D
S113160050E06FE073E480E00E94260140E050E087
S113161062EC72E481E00E94260140E050E069E55A
S113162073E482E00E94260140E050E063E173E449
S11316308FE00E94260140E050E065E573E480E11C
S11316400E94260140E050E06CE772E481E10E94D0
S113165026012FEF81EE94E0215080409040E1F785
S113166000C000000C945201089540E050E063E192
S113167073E486E00E94260140E050E060E772E4F3
S113168087E00E94260140E050E060E773E488E0D0
S11316900E94260140E050E064E173E489E00E9486
S11316A0260140E050E065E473E48AE00E942601EC
S11316B040E050E06AEB72E48BE00E94260140E0D7
S11316C050E06EE173E483E00E94260140E050E0C4
S11316D06AEB72E484E00E94260140E050E062E696
S11316E073E485E00E94260140E050E06EE173E47B
S11316F08CE00E94260140E050E06AE673E48DE04D
S11317000E94260140E050E060E872E48EE00E940E
S1131710260140E050E06FE073E480E00E9426017F
S113172040E050E060E772E481E00E94260140E07E
S113173050E062E673E482E00E94260140E050E05B
S113174063E173E48FE00E94260140E050E065E528
S113175073E480E10E94260140E050E06CE772E40B
S113176081E10E9426012FEF81EE94E02150804018
S11317709040E1F700C000000C945201089540E04D
S113178050E069E173E486E00E94260140E050E005
S113179060E772E487E00E94260140E050E06EE6D4
S11317A073E488E00E94260140E050E066E173E4BF
S11317B089E00E94260140E050E06EE473E48AE090
S11317C00E94260140E050E06AE972E48BE00E9446
S11317D0260140E050E066E173E483E00E942601C4
S11317E040E050E068EB72E484E00E94260140E0AF
S11317F050E063E673E485E00E94260140E050E097
S113180066E173E48CE00E94260140E050E06BE660
S113181073E48DE00E94260140E050E06CE772E43E
S11318208EE00E94260140E050E063E173E480E032
S11318300E94260140E050E060E772E481E00E94EB
S1131840260140E050E06EE673E482E00E94260147
S113185040E050E069E173E48FE00E94260140E03B
S113186050E060E573E480E10E94260140E050E02E
S113187062E972E481E10E9426012FEF81EE94E097
S1131880215080409040E1F700C000000C945201C8
S1131890089540E050E06DE173E486E00E94260183
S11318A040E050E060E772E487E00E94260140E0F7
S11318B050E062E673E488E00E94260140E050E0D4
S11318C069E173E489E00E94260140E050E065E5A7
S11318D073E48AE00E94260140E050E06CE772E481
S11318E08BE00E94260140E050E06EE073E483E068
S11318F00E94260140E050E06AEB72E484E00E941A
S1131900260140E050E062E673E485E00E9426018F
S113191040E050E06EE073E48CE00E94260140E079
S113192050E06BE673E48DE00E94260140E050E055
S113193060E872E48EE00E94260140E050E069E134
S113194073E480E00E94260140E050E060E772E426
S113195081E00E94260140E050E060E773E482E009
S11319600E94260140E050E06DE173E48FE00E94A4
S1131970260140E050E06BE473E480E10E9426011C
S113198040E050E066EA72E481E10E9426012FEF14
S113199081EE94E0215080409040E1F700C00000C7
S11319A00C945201089540E050E06DE173E486E048
S11319B00E94260140E050E062EC72E487E00E945D
S11319C0260140E050E069E573E488E00E942601C6
S11319D040E050E069E173E489E00E94260140E0C0
S11319E050E065E573E48AE00E94260140E050E09F
S11319F06CE772E48BE00E94260140E050E06EE068
S1131A0073E483E00E94260140E050E06AEB72E454
S1131A1084E00E94260140E050E062E673E485E041
S1131A200E94260140E050E06EE073E48CE00E94E6
S1131A30260140E050E06FE473E48DE00E9426014B
S1131A4040E050E064E972E48EE00E94260140E048
S1131A5050E069E173E480E00E94260140E050E038
S1131A606EEA72E481E00E94260140E050E06DE6F7
S1131A7073E482E00E94260140E050E06DE173E4EB
S1131A808FE00E94260140E050E06BE473E480E1C3
S1131A900E94260140E050E066EA72E481E10E947F
S1131AA026012FEF81EE94E0215080409040E1F731
S1131AB000C000000C945201089540E050E06DE134
S1131AC073E486E00E94260140E050E062EC72E498
S1131AD087E00E94260140E050E069E573E488E075
S1131AE00E94260140E050E069E173E489E00E942D
S1131AF0260140E050E060E773E48AE00E9426019A
S1131B0040E050E060E772E48BE00E94260140E090
S1131B1050E06EE073E483E00E94260140E050E070
S1131B2062E872E484E00E94260140E050E06CE642
S1131B3073E485E00E94260140E050E06EE073E427
S1131B408CE00E94260140E050E06FE473E48DE0F5
S1131B500E94260140E050E064E972E48EE00E94B5
S1131B60260140E050E069E173E480E00E94260130
S1131B7040E050E06EEA72E481E00E94260140E019
S1131B8050E06DE673E482E00E94260140E050E0FC
S1131B906DE173E48FE00E94260140E050E060E7CD
S1131BA073E480E10E94260140E050E064E972E4BD
S1131BB081E10E9426012FEF81EE94E021508040C4
S1131BC09040E1F700C000000C945201089540E0F9
S1131BD050E066E173E486E00E94260140E050E0B4
S1131BE06CEB72E487E00E94260140E050E06FE570
S1131BF073E488E00E94260140E050E066E173E46B
S1131C0089E00E94260140E050E060E773E48AE046
S1131C100E94260140E050E066E872E48BE00E94F6
S1131C20260140E050E066E173E483E00E9426016F
S1131C3040E050E060E872E484E00E94260140E065
S1131C4050E06DE673E485E00E94260140E050E038
S1131C5066E173E48CE00E94260140E050E060E518
S1131C6073E48DE00E94260140E050E062E972E4F2
S1131C708EE00E94260140E050E063E173E480E0DE
S1131C800E94260140E050E068EB72E481E00E948B
S1131C90260140E050E063E673E482E00E942601FE
S1131CA040E050E069E173E48FE00E94260140E0E7
S1131CB050E060E773E480E10E94260140E050E0D8
S1131CC068E772E481E10E9426012FEF81EE94E03F
S1131CD0215080409040E1F700C000000C94520174
S1131CE0089540E050E063E173E486E00E94260139
S1131CF040E050E06EEA72E487E00E94260140E092
S1131D0050E06DE673E488E00E94260140E050E074
S1131D106FE073E489E00E94260140E050E06BE646
S1131D2073E48AE00E94260140E050E064E972E432
S1131D308BE00E94260140E050E06EE173E483E012
S1131D400E94260140E050E06CE872E484E00E94C6
S1131D50260140E050E06CE673E485E00E94260131
S1131D6040E050E06EE173E48CE00E94260140E024
S1131D7050E06FE473E48DE00E94260140E050E0FF
S1131D8064E972E48EE00E94260140E050E06FE0D6
S1131D9073E480E00E94260140E050E062EC72E4CB
S1131DA081E00E94260140E050E069E573E482E0AE
S1131DB00E94260140E050E063E173E48FE00E945A
S1131DC0260140E050E060E773E480E10E942601D0
S1131DD040E050E060E772E481E10E9426012FEFC9
S1131DE081EE94E0215080409040E1F700C0000073
S1131DF00C945201089540E050E063E173E486E0FE
S1131E000E94260140E050E06EEA72E487E00E94FE
S1131E10260140E050E06DE673E488E00E9426016C
S1131E2040E050E06FE073E489E00E94260140E066
S1131E3050E06BE473E48AE00E94260140E050E045
S1131E4066EA72E48BE00E94260140E050E06EE115
S1131E5073E483E00E94260140E050E06AEB72E400
S1131E6084E00E94260140E050E062E673E485E0ED
S1131E700E94260140E050E06EE173E48CE00E9491
S1131E80260140E050E06FE473E48DE00E942601F7
S1131E9040E050E064E972E48EE00E94260140E0F4
S1131EA050E06FE073E480E00E94260140E050E0DF
S1131EB062EC72E481E00E94260140E050E069E5B2
S1131EC073E482E00E94260140E050E063E173E4A1
S1131ED08FE00E94260140E050E065E573E480E174
S1131EE00E94260140E050E06CE772E481E10E9428
S1131EF026012FEF81EE94E0215080409040E1F7DD
S1131F0000C000000C945201089540E050E063E1E9
S1131F1073E486E00E94260140E050E060E772E44A
S1131F2087E00E94260140E050E060E773E488E027
S1131F300E94260140E050E06FE073E489E00E94D3
S1131F40260140E050E06BE473E48AE00E9426013D
S1131F5040E050E066EA72E48BE00E94260140E033
S1131F6050E06EE173E483E00E94260140E050E01B
S1131F706AEB72E484E00E94260140E050E062E6ED
S1131F8073E485E00E94260140E050E06EE173E4D2
S1131F908CE00E94260140E050E06AE673E48DE0A4
S1131FA00E94260140E050E060E872E48EE00E9466
S1131FB0260140E050E06FE073E480E00E942601D7
S1131FC040E050E060E772E481E00E94260140E0D6
S1131FD050E062E673E482E00E94260140E050E0B3
S1131FE063E173E48FE00E94260140E050E065E580
S1131FF073E480E10E94260140E050E06CE772E463
S113200081E10E9426012FEF81EE94E0215080406F
S11320109040E1F700C000000C945201089540E0A4
S113202050E066E173E486E00E94260140E050E05F
S113203068E872E487E00E94260140E050E069E627
S113204073E488E00E94260140E050E066E173E416
S113205089E00E94260140E050E06EE473E48AE0E7
S11320600E94260140E050E06AE972E48BE00E949D
S1132070260140E050E066E173E483E00E9426011B
S113208040E050E068EB72E484E00E94260140E006
S113209050E063E673E485E00E94260140E050E0EE
S11320A066E173E48CE00E94260140E050E06BE6B8
S11320B073E48DE00E94260140E050E06CE772E496
S11320C08EE00E94260140E050E063E173E480E08A
S11320D00E94260140E050E060E772E481E00E9443
S11320E0260140E050E06EE673E482E00E9426019F
S11320F040E050E069E173E48FE00E94260140E093
S113210050E060E573E480E10E94260140E050E085
S113211062E972E481E10E9426012FEF81EE94E0EE
S1132120215080409040E1F700C000000C9452011F
S1132130089540E050E068E173E486E00E942601DF
S113214040E050E068E872E487E00E94260140E045
S113215050E068E573E488E00E94260140E050E026
S11321606EE173E489E00E94260140E050E060E5FE
S113217073E48AE00E94260140E050E062E972E4E0
S11321808BE00E94260140E050E06EE073E483E0BF
S11321900E94260140E050E06AEB72E484E00E9471
S11321A0260140E050E062E673E485E00E942601E7
S11321B040E050E06EE073E48CE00E94260140E0D1
S11321C050E06BE673E48DE00E94260140E050E0AD
S11321D060E872E48EE00E94260140E050E069E18C
S11321E073E480E00E94260140E050E060E772E47E
S11321F081E00E94260140E050E060E773E482E061
S11322000E94260140E050E06DE173E48FE00E94FB
S1132210260140E050E06BE473E480E10E94260173
S113222040E050E066EA72E481E10E9426012FEF6B
S113223081EE94E0215080409040E1F700C000001E
S11322400C945201089540E050E068E173E486E0A4
S11322500E94260140E050E06EEC72E487E00E94A8
S1132260260140E050E06FE473E488E00E94260118
S113227040E050E06EE173E489E00E94260140E012
S113228050E060E573E48AE00E94260140E050E0FB
S113229062E972E48BE00E94260140E050E06EE0C7
S11322A073E483E00E94260140E050E06AEB72E4AC
S11322B084E00E94260140E050E062E673E485E099
S11322C00E94260140E050E06EE073E48CE00E943E
S11322D0260140E050E06FE473E48DE00E942601A3
S11322E040E050E064E972E48EE00E94260140E0A0
S11322F050E069E173E480E00E94260140E050E090
S11323006EEA72E481E00E94260140E050E06DE64E
S113231073E482E00E94260140E050E06DE173E442
S11323208FE00E94260140E050E06BE473E480E11A
S11323300E94260140E050E066EA72E481E10E94D6
S113234026012FEF81EE94E0215080409040E1F788
S113235000C000000C945201089540E050E068E190
S113236073E486E00E94260140E050E06EEC72E4E3
S113237087E00E94260140E050E06FE473E488E0C7
S11323800E94260140E050E06EE173E489E00E947F
S1132390260140E050E06BE673E48AE00E942601E7
S11323A040E050E06CE772E48BE00E94260140E0DC
S11323B050E06EE073E483E00E94260140E050E0C8
S11323C062E872E484E00E94260140E050E06CE69A
S11323D073E485E00E94260140E050E06EE073E47F
S11323E08CE00E94260140E050E06FE473E48DE04D
S11323F00E94260140E050E064E972E48EE00E940D
S1132400260140E050E069E173E480E00E94260187
S113241040E050E06EEA72E481E00E94260140E070
S113242050E06DE673E482E00E94260140E050E053
S11324306DE173E48FE00E94260140E050E060E724
S113244073E480E10E94260140E050E064E972E414
S113245081E10E9426012FEF81EE94E0215080401B
S11324609040E1F700C000000C945201089525DB70
S11324700E9497090E94210A6ED8F7D880D909DAF8
S113248092CA08956ADFA3DB2CDCB5DC3EDDC7DD30
S113249050DED9CE089540E050E066E173E486E072
S11324A00E94260140E050E064EB72E487E00E9461
S11324B0260140E050E06CE573E488E00E942601C8
S11324C040E050E065E273E489E00E94260140E0C8
S11324D050E06DE573E48AE00E94260140E050E09C
S11324E064EA72E48BE00E94260140E050E064E27A
S11324F073E483E00E94260140E050E062E972E464
S113250084E00E94260140E050E063E673E485E045
S11325100E94260140E050E066E173E48CE00E94F2
S1132520260140E050E062E573E48DE00E9426015C
S113253040E050E060EA72E48EE00E94260140E050
S113254050E066E173E480E00E94260140E050E040
S113255064EB72E481E00E94260140E050E06CE507
S113256073E482E00E94260140E050E065E273E4F7
S11325708FE00E94260140E050E06DE573E480E1C5
S11325800E94260140E050E064EA72E481E10E9486
S113259026012FEF81EE94E0215080409040E1F736
S11325A000C000000C945201089540E050E066E140
S11325B073E486E00E94260140E050E064EB72E49C
S11325C087E00E94260140E050E06CE573E488E077
S11325D00E94260140E050E062E373E489E00E9437
S11325E0260140E050E063E573E48AE00E9426019E
S11325F040E050E06EEB72E48BE00E94260140E084
S113260050E060E373E483E00E94260140E050E080
S113261066E972E484E00E94260140E050E060E64E
S113262073E485E00E94260140E050E066E173E433
S11326308CE00E94260140E050E062E573E48DE006
S11326400E94260140E050E060EA72E48EE00E94BD
S1132650260140E050E066E173E480E00E94260138
S113266040E050E064EB72E481E00E94260140E027
S113267050E06CE573E482E00E94260140E050E003
S113268062E373E48FE00E94260140E050E063E5DA
S113269073E480E10E94260140E050E06EEB72E4B6
S11326A081E10E9426012FEF81EE94E021508040C9
S11326B09040E1F700C000000C945201089540E0FE
S11326C050E066E173E486E00E94260140E050E0B9
S11326D064EB72E487E00E94260140E050E06CE580
S11326E073E488E00E94260140E050E062E373E472
S11326F089E00E94260140E050E067E473E48AE048
S11327000E94260140E050E06CEC72E48BE00E94F1
S1132710260140E050E060E373E483E00E94260178
S113272040E050E062EB72E484E00E94260140E065
S113273050E069E573E485E00E94260140E050E042
S113274066E173E48CE00E94260140E050E062E51B
S113275073E48DE00E94260140E050E060EA72E4F8
S11327608EE00E94260140E050E066E173E480E0E0
S11327700E94260140E050E064EB72E481E00E9494
S1132780260140E050E06CE573E482E00E942601FB
S113279040E050E062E373E48FE00E94260140E0F1
S11327A050E067E473E480E10E94260140E050E0D9
S11327B06CEC72E481E10E9426012FEF81EE94E03B
S11327C0215080409040E1F700C000000C94520179
S11327D0089540E050E066E173E486E00E9426013B
S11327E040E050E06CE872E487E00E94260140E09B
S11327F050E06CE573E488E00E94260140E050E07C
S113280062E373E489E00E94260140E050E067E45B
S113281073E48AE00E94260140E050E06CEC72E42C
S11328208BE00E94260140E050E060E373E483E023
S11328300E94260140E050E062EB72E484E00E94D2
S1132840260140E050E069E573E485E00E9426013A
S113285040E050E066E173E48CE00E94260140E031
S113286050E066E673E48DE00E94260140E050E00B
S113287060EA72E48EE00E94260140E050E066E1E6
S113288073E480E00E94260140E050E06CE872E4CA
S113289081E00E94260140E050E06CE573E482E0B0
S11328A00E94260140E050E062E373E48FE00E945E
S11328B0260140E050E067E473E480E10E942601D1
S11328C040E050E06CEC72E481E10E9426012FEFBD
S11328D081EE94E0215080409040E1F700C0000078
S11328E00C945201089540E050E066E173E486E000
S11328F00E94260140E050E06CE872E487E00E9408
S1132900260140E050E06CE573E488E00E94260173
S113291040E050E065E273E489E00E94260140E073
S113292050E062E573E48AE00E94260140E050E052
S11329306AEA72E48BE00E94260140E050E061E222
S113294073E483E00E94260140E050E06CEA72E404
S113295084E00E94260140E050E06EE573E485E0E7
S11329600E94260140E050E066E173E48CE00E949E
S1132970260140E050E066E673E48DE00E94260103
S113298040E050E060EA72E48EE00E94260140E0FC
S113299050E066E173E480E00E94260140E050E0EC
S11329A06CE872E481E00E94260140E050E06CE5AE
S11329B073E482E00E94260140E050E065E273E4A3
S11329C08FE00E94260140E050E062E573E480E17C
S11329D00E94260140E050E06AEA72E481E10E942C
S11329E026012FEF81EE94E0215080409040E1F7E2
S11329F000C000000C945201089540E050E066E1EC
S1132A0073E486E00E94260140E050E06CE872E442
S1132A1087E00E94260140E050E06CE573E488E022
S1132A200E94260140E050E066E173E489E00E94E0
S1132A30260140E050E063E573E48AE00E94260149
S1132A4040E050E064EA72E48BE00E94260140E03A
S1132A5050E066E173E483E00E94260140E050E028
S1132A6062EB72E484E00E94260140E050E06AE5F3
S1132A7073E485E00E94260140E050E066E173E4DF
S1132A808CE00E94260140E050E066E673E48DE0AD
S1132A900E94260140E050E060EA72E48EE00E9469
S1132AA0260140E050E066E173E480E00E942601E4
S1132AB040E050E06CE872E481E00E94260140E0CE
S1132AC050E06CE573E482E00E94260140E050E0AF
S1132AD066E173E48FE00E94260140E050E063E584
S1132AE073E480E10E94260140E050E064EA72E46D
S1132AF081E10E9426012FEF81EE94E02150804075
S1132B009040E1F700C000000C945201089540E0A9
S1132B1050E066E173E486E00E94260140E050E064
S1132B2064EB72E487E00E94260140E050E06CE52B
S1132B3073E488E00E94260140E050E066E173E41B
S1132B4089E00E94260140E050E063E573E48AE0F6
S1132B500E94260140E050E064EA72E48BE00E94A7
S1132B60260140E050E066E173E483E00E94260120
S1132B7040E050E062EB72E484E00E94260140E011
S1132B8050E06AE573E485E00E94260140E050E0ED
S1132B9066E173E48CE00E94260140E050E062E5C7
S1132BA073E48DE00E94260140E050E060EA72E4A4
S1132BB08EE00E94260140E050E066E173E480E08C
S1132BC00E94260140E050E064EB72E481E00E9440
S1132BD0260140E050E06CE573E482E00E942601A7
S1132BE040E050E066E173E48FE00E94260140E09B
S1132BF050E063E573E480E10E94260140E050E088
S1132C0064EA72E481E10E9426012FEF81EE94E0F0
S1132C10215080409040E1F700C000000C94520124
S1132C20089540E050E066E173E486E00E942601E6
S1132C3040E050E064EB72E487E00E94260140E04B
S1132C4050E06CE573E488E00E94260140E050E027
S1132C5066E173E489E00E94260140E050E062E608
S1132C6073E48AE00E94260140E050E066E972E4E1
S1132C708BE00E94260140E050E066E173E483E0CB
S1132C800E94260140E050E064E972E484E00E947E
S1132C90260140E050E061E673E485E00E942601ED
S1132CA040E050E066E173E48CE00E94260140E0DD
S1132CB050E062E573E48DE00E94260140E050E0BC
S1132CC060EA72E48EE00E94260140E050E066E192
S1132CD073E480E00E94260140E050E064EB72E47B
S1132CE081E00E94260140E050E06CE573E482E05C
S1132CF00E94260140E050E066E173E48FE00E9408
S1132D00260140E050E062E673E480E10E9426017F
S1132D1040E050E066E972E481E10E9426012FEF71
S1132D2081EE94E0215080409040E1F700C0000023
S1132D300C9452010895EBDE60DED5DD4ADDBFDC84
S1132D4034DCA9DB6ECF0895E2DE6BDFA4DB2DDC7F
S1132D50B6DC3FDDC8DD51CE0895CF93CEB590915A
S1132D600101992331F080ED0E9476011092000157
S1132D7042C08FEF0E9476018C2F90E0FC013197C6
S1132D80E730F105B0F5EA5BFF4FADC181E0809318
S1132D9001010E948509109201012BC081E08093FA
S1132DA001010E948E091092010123C081E08093E9
S1132DB00101CADF109201011CC081E0809301016E
S1132DC0BADF1092010115C081E0809301014FDB4D
S1132DD0109201010EC081E08093010153DB109237
S1132DE0010107C081E0809301010E949A011092C1
S1132DF0010110920001CF9108958093000108957C
S1132E001F920F920FB60F9211240BB60F922F93AD
S1132E103F934F935F936F937F938F939F93AF935E
S1132E20BF93EF93FF9380910001811104C081E06F
S1132E308093000192DFFF91EF91BF91AF919F9139
S1132E408F917F916F915F914F913F912F910F904F
S1132E500BBE0F900FBE0F901F9018955058BB27B4
S1132E60AA270ED0A3C094D030F099D020F031F42A
S1132E709F3F11F41EF489C00EF4E095E7FB7FC078
S1132E80E92FA5D080F3BA17620773078407950763
S1132E9018F071F49EF5BDC00EF4E0950B2EBA2F18
S1132EA0A02D0B01B90190010C01CA01A00111244C
S1132EB0FF27591B99F0593F50F4503E68F11A16F8
S1132EC0F040A22F232F342F4427585FF3CF469589
S1132ED037952795A795F0405395C9F77EF41F16AB
S1132EE0BA0B620B730B840BBAF09150A1F0FF0F75
S1132EF0BB1F661F771F881FC2F70EC0BA0F621F61
S1132F00731F841F48F4879577956795B795F79550
S1132F109E3F08F0B3CF9395880F08F09927EE0FE2
S1132F209795879508955BD088F09F5790F0B92FB7
S1132F309927B751A0F0D1F0660F771F881F991F0A
S1132F401AF0BA95C9F712C0B13081F062D0B1E07D
S1132F5008955FC0672F782F8827B85F39F0B93F8D
S1132F60CCF3869577956795B395D9F73EF490950C
S1132F708095709561957F4F8F4F9F4F089597F976
S1132F809F6780E870E060E008959FEF80EC08950B
S1132F9000240A9416161706180609060895002434
S1132FA00A9412161306140605060895092E0394AE
S1132FB0000C11F4882352F0BB0F40F4BF2B11F422
S1132FC060FF04C06F5F7F4F8F4F9F4F089557FD81
S1132FD09058440F551F59F05F3F71F04795880F83
S1132FE097FB991F61F09F3F79F08795089512161A
S1132FF013061406551FF2CF4695F1DF08C01616C6
S113300017061806991FF1CF869571056105089476
S11330100895E894BB2766277727CB0197F908958D
S11330200BD0C4CFB5DF28F0BADF18F0952309F030
S1133030A6CFABCF1124EECFCADFA0F3959FD1F377
S1133040950F50E0551F629FF001729FBB27F00D52
S1133050B11D639FAA27F00DB11DAA1F649F6627A7
S1133060B00DA11D661F829F2227B00DA11D621FF6
S1133070739FB00DA11D621F839FA00D611D221FB0
S1133080749F3327A00D611D231F849F600D211D94
S1133090822F762F6A2F11249F5750408AF0E1F037
S11330A088234AF0EE0FFF1FBB1F661F771F881F80
S11330B091505040A9F79E3F510570F060CFAACFC0
S11330C05F3FECF3983EDCF3869577956795B7956B
S11330D0F795E7959F5FC1F7FE2B880F911D969595
S11330E0879597F90895EE0FFF1F0590F491E02D51
S10930F00994F894FFCFDF
S9030000FC
