S00C00006D61696E2E7372656373
S11300004CC0000068C0000066C0000064C000006E
S113001062C0000060C000005EC000005CC0000060
S11300205AC0000058C0000056C0000054C0000070
S113003052C0000050C000004EC000004CC0000080
S11300404AC0000048C0000046C000000C942417B9
S113005042C0000040C000003EC000003CC00000A0
S11300603AC0000038C0000036C0000034C00000B0
S113007032C0000030C000002EC000002CC00000C0
S11300802AC0000028C0000026C00000D616E116D1
S1130090EC16F61600170A17141711241FBECFEF1B
S11300A0D0E4DEBFCDBF11E0A0E0B1E0E4E7F0E3CF
S11300B000E00BBF02C007900D92A030B107D9F742
S11300C021E0A0E0B1E001C01D92A230B207E1F747
S11300D03CD00C94381894CF0097B9F0289A2FEF9D
S11300E039E648E1215030404040E1F700C00000CB
S11300F015B82FEF39E648E1215030404040E1F790
S113010000C000000197009749F708950097B9F0DF
S1130110299A2FEF39E648E1215030404040E1F779
S113012000C0000015B82FEF39E648E121503040F7
S11301304040E1F700C000000197009749F7089597
S1130140E3D0EFD0F9D0D4C00895FADF2FEF83EDD8
S113015090E3215080409040E1F700C00000FFD0C0
S11301602FEF83ED90E3215080409040E1F700C0F1
S1130170000081E090E0B0DF81E090E0C7DF80E044
S11301800E942117FCCFDF92EF92FF920F931F93EF
S1130190CF93DF93C82FE62ED42E022F132FF8947B
S11301A0C7D0E0ECF0E0808180838FEFD0D08FEF78
S11301B0CED08C2FCCD082E08D0DC9D08E2DC7D05F
S11301C0E394E394ED0CEC0EDD2061F0C02FD12F0D
S11301D0F12C8E018991BBD0F8018081E80EF39453
S11301E0FD10F7CF8E2D8095B2D0E0ECF0E0808149
S11301F086FFFDCF99D07894DF91CF911F910F9115
S1130200FF90EF90DF900895CF93DF9300D0CDB7A8
S1130210DEB790E199836A839E012F5F3F4F42E0EE
S113022063E0B1DF0F900F90DF91CF910895CF93EA
S1130230DF9300D01F92CDB7DEB790E299836A8333
S11302407B839E012F5F3F4F43E063E09CDF0F9071
S11302500F900F90DF91CF910895CF93DF9300D04B
S11302601F92CDB7DEB792E299836A837B839E01A6
S11302702F5F3F4F43E063E086DF0F900F900F90B6
S1130280DF91CF9108951F93CF93DF9300D01F92F6
S1130290CDB7DEB7182FCB01BA0121E73DE34AE51C
S11302A050E40E94A7170E9452178EE189836A8343
S11302B07B839E012F5F3F4F43E064E0812F63DF28
S11302C00F900F900F90DF91CF911F910895CF93CE
S11302D0DF931F92CDB7DEB719829E012F5F3F4F88
S11302E040E065E08EEF4FDF0F90DF91CF910895EE
S11302F060E08EEF89DF6FEF73E08EEFAEDF66E9CB
S113030070E08EEF94CF08958CB580688CBD8CB569
S113031080648CBD08958EBD0DB407FEFDCF8EB5EF
S1130320089587E484B9089580E18093C100089515
S113033088E08093C10008951092C5001092C40013
S113034086E08093C20080E18093C1000895E0ECD0
S1130350F0E0908195FFFDCF8093C600089540E0C2
S113036050E066E173E480E08EDF40E050E066E157
S113037073E483E088DF40E050E066E173E486E004
S113038082DF40E050E066E173E489E07CDF40E036
S113039050E066E173E48CE076DF40E050E066E133
S11303A073E48FE070DF40E050E064EB72E481E0DE
S11303B06ADF40E050E064EB72E484E064DF40E034
S11303C050E064EB72E487E05EDF40E050E062E519
S11303D073E48AE058DF40E050E062E573E48DE0C6
S11303E052DF40E050E062E573E480E14CDF40E03E
S11303F050E066E673E482E046DF40E050E066E603
S113040073E485E040DF40E050E066E673E488E0B2
S11304103ADF40E050E06CE872E48BE034DF40E027
S113042050E06CE872E48EE02EDF40E050E06CE8CF
S113043072E481E128DF4BCF089540E050E069E1A8
S113044073E486E020DF40E050E068EB72E487E08C
S11304501ADF40E050E063E673E488E014DF40E034
S113046050E063E173E489E00EDF40E050E060E7D0
S113047073E48AE008DF40E050E068E772E48BE070
S113048002DF40E050E066E173E483E0FCDE40E03C
S113049050E060E872E484E0F6DE40E050E06DE6AF
S11304A073E485E0F0DE40E050E066E173E48CE064
S11304B0EADE40E050E060E573E48DE0E4DE40E035
S11304C050E062E972E48EE0DEDE40E050E063E199
S11304D073E480E0D8DE40E050E068EB72E481E051
S11304E0D2DE40E050E063E673E482E0CCDE40E03C
S11304F050E069E173E48FE0C6DE40E050E060E77D
S113050073E480E1C0DE40E050E068E772E481E13A
S1130510BADE2FE78AE196E0215080409040E1F76F
S113052000C00000D4CE089540E050E063E173E4DD
S113053086E0A9DE40E050E06EEA72E487E0A3DEE4
S113054040E050E06DE673E488E09DDE40E050E07A
S11305506FE073E489E097DE40E050E06BE673E41B
S11305608AE091DE40E050E064E972E48BE08BDEE7
S113057040E050E06EE173E483E085DE40E050E06B
S11305806CE872E484E07FDE40E050E06CE673E403
S113059085E079DE40E050E06EE173E48CE073DEE8
S11305A040E050E06FE473E48DE06DDE40E050E045
S11305B064E972E48EE067DE40E050E06FE073E4EB
S11305C080E061DE40E050E062EC72E481E05BDEFA
S11305D040E050E069E573E482E055DE40E050E03D
S11305E063E173E48FE04FDE40E050E060E773E4E2
S11305F080E149DE40E050E060E772E481E143DEFF
S11306002FE78AE196E0215080409040E1F700C056
S113061000005DCE089540E050E063E173E486E0BD
S113062032DE40E050E06EEA72E487E02CDE40E027
S113063050E06DE673E488E026DE40E050E06FE0D1
S113064073E489E020DE40E050E06BE473E48AE088
S11306501ADE40E050E066EA72E48BE014DE40E02B
S113066050E06EE173E483E00EDE40E050E06AEBBC
S113067072E484E008DE40E050E062E673E485E082
S113068002DE40E050E06EE173E48CE0FCDD40E02B
S113069050E06FE473E48DE0F6DD40E050E064E99F
S11306A072E48EE0F0DD40E050E06FE073E480E05F
S11306B0EADD40E050E062EC72E481E0E4DD40E039
S11306C050E069E573E482E0DEDD40E050E063E1A0
S11306D073E48FE0D8DD40E050E065E573E480E149
S11306E0D2DD40E050E06CE772E481E1CCDD2FE73D
S11306F08AE196E0215080409040E1F700C000007C
S1130700E6CD089540E050E063E173E486E0BBDDAC
S113071040E050E060E772E487E0B5DD40E050E09F
S113072060E773E488E0AFDD40E050E06FE073E43D
S113073089E0A9DD40E050E06BE473E48AE0A3DDE6
S113074040E050E066EA72E48BE09DDD40E050E07A
S11307506EE173E483E097DD40E050E06AEB72E41D
S113076084E091DD40E050E062E673E485E08BDDF7
S113077040E050E06EE173E48CE085DD40E050E061
S11307806AE673E48DE07FDD40E050E060E872E407
S11307908EE079DD40E050E06FE073E480E073DDEB
S11307A040E050E060E772E481E06DDD40E050E05D
S11307B062E673E482E067DD40E050E063E173E405
S11307C08FE061DD40E050E065E573E480E15BDDEE
S11307D040E050E06CE772E481E155DD2FE78AE107
S11307E096E0215080409040E1F700C000006FCDBA
S11307F0089540E050E069E173E486E044DD40E0C0
S113080050E060E772E487E03EDD40E050E06EE6F1
S113081073E488E038DD40E050E063E173E489E0AC
S113082032DD40E050E060E573E48AE02CDD40E036
S113083050E062E972E48BE026DD40E050E066E1DE
S113084073E483E020DD40E050E068EB72E484E090
S11308501ADD40E050E063E673E485E014DD40E037
S113086050E066E173E48CE00EDD40E050E06BE6BE
S113087073E48DE008DD40E050E06CE772E48EE064
S113088002DD40E050E063E173E480E0FCDC40E042
S113089050E060E772E481E0F6DC40E050E06EE6B0
S11308A073E482E0F0DC40E050E069E173E48FE05F
S11308B0EADC40E050E060E573E480E1E4DC40E041
S11308C050E062E972E481E1DEDC2FE78AE196E040
S11308D0215080409040E1F700C00000F8CC08951A
S11308E040E050E06DE173E486E0CDDC40E050E0B0
S11308F060E772E487E0C7DC40E050E062E673E45E
S113090088E0C1DC40E050E069E173E489E0BBDCED
S113091040E050E065E573E48AE0B5DC40E050E097
S11309206CE772E48BE0AFDC40E050E06EE073E42F
S113093083E0A9DC40E050E06AEB72E484E0A3DCED
S113094040E050E062E673E485E09DDC40E050E086
S11309506EE073E48CE097DC40E050E06BE673E417
S11309608DE091DC40E050E060E872E48EE08BDCE6
S113097040E050E069E173E480E085DC40E050E071
S113098060E772E481E07FDC40E050E060E773E41C
S113099082E079DC40E050E06DE173E48FE073DCE9
S11309A040E050E06BE473E480E16DDC40E050E053
S11309B066EA72E481E167DC2FE78AE196E0215080
S11309C080409040E1F700C0000081CC089540E0F1
S11309D050E06DE173E486E056DC40E050E062EC08
S11309E072E487E050DC40E050E069E573E488E0BD
S11309F04ADC40E050E069E173E489E044DC40E033
S1130A0050E065E573E48AE03EDC40E050E06CE7EA
S1130A1072E48BE038DC40E050E06EE073E483E0A5
S1130A2032DC40E050E06AEB72E484E02CDC40E02D
S1130A3050E062E673E485E026DC40E050E06EE0DE
S1130A4073E48CE020DC40E050E06FE473E48DE07C
S1130A501ADC40E050E064E972E48EE014DC40E02B
S1130A6050E069E173E480E00EDC40E050E06EEABF
S1130A7072E481E008DC40E050E06DE673E482E07B
S1130A8002DC40E050E06DE173E48FE0FCDB40E029
S1130A9050E06BE473E480E1F6DB40E050E066EAAA
S1130AA072E481E1F0DB2FE78AE196E02150804097
S1130AB09040E1F700C000000ACC089540E050E007
S1130AC06DE173E486E0DFDB40E050E062EC72E469
S1130AD087E0D9DB40E050E069E573E488E0D3DBEC
S1130AE040E050E069E173E489E0CDDB40E050E0B0
S1130AF060E773E48AE0C7DB40E050E060E772E45B
S1130B008BE0C1DB40E050E06EE073E483E0BBDBEC
S1130B1040E050E062E872E484E0B5DB40E050E09D
S1130B206CE673E485E0AFDB40E050E06EE073E434
S1130B308CE0A9DB40E050E06FE473E48DE0A3DBDC
S1130B4040E050E064E972E48EE09DDB40E050E078
S1130B5069E173E480E097DB40E050E06EEA72E420
S1130B6081E091DB40E050E06DE673E482E08BDBF2
S1130B7040E050E06DE173E48FE085DB40E050E05D
S1130B8060E773E480E17FDB40E050E064E972E415
S1130B9081E179DB2FE78AE196E0215080409040A3
S1130BA0E1F700C0000093CB089540E050E066E117
S1130BB073E486E068DB40E050E06CEB72E487E0CD
S1130BC062DB40E050E06FE573E488E05CDB40E02A
S1130BD050E063E173E489E056DB40E050E060E715
S1130BE073E48AE050DB40E050E068E772E48BE0B5
S1130BF04ADB40E050E066E173E483E044DB40E03C
S1130C0050E060E872E484E03EDB40E050E06DE6F2
S1130C1073E485E038DB40E050E066E173E48CE0A7
S1130C2032DB40E050E060E573E48DE02CDB40E033
S1130C3050E062E972E48EE026DB40E050E063E1DC
S1130C4073E480E020DB40E050E068EB72E481E094
S1130C501ADB40E050E063E673E482E014DB40E03A
S1130C6050E069E173E48FE00EDB40E050E060E7C0
S1130C7073E480E108DB40E050E068E772E481E17E
S1130C8002DB2FE78AE196E0215080409040E1F7B3
S1130C9000C000001CCB089540E050E063E173E421
S1130CA086E0F1DA40E050E06EEA72E487E0EBDAE5
S1130CB040E050E06DE673E488E0E5DA40E050E0BF
S1130CC06FE073E489E0DFDA40E050E06BE673E460
S1130CD08AE0D9DA40E050E064E972E48BE0D3DAE8
S1130CE040E050E06EE173E483E0CDDA40E050E0B0
S1130CF06CE872E484E0C7DA40E050E06CE673E448
S1130D0085E0C1DA40E050E06EE173E48CE0BBDAE8
S1130D1040E050E06FE473E48DE0B5DA40E050E089
S1130D2064E972E48EE0AFDA40E050E06FE073E42F
S1130D3080E0A9DA40E050E062EC72E481E0A3DAFA
S1130D4040E050E069E573E482E09DDA40E050E081
S1130D5063E173E48FE097DA40E050E060E773E426
S1130D6080E191DA40E050E060E772E481E18BDAFF
S1130D702FE78AE196E0215080409040E1F700C0DF
S1130D800000A5CA089540E050E063E173E486E002
S1130D907ADA40E050E06EEA72E487E074DA40E028
S1130DA050E06DE673E488E06EDA40E050E06FE016
S1130DB073E489E068DA40E050E06BE473E48AE0CD
S1130DC062DA40E050E066EA72E48BE05CDA40E02C
S1130DD050E06EE173E483E056DA40E050E06AEB01
S1130DE072E484E050DA40E050E062E673E485E0C7
S1130DF04ADA40E050E06EE173E48CE044DA40E02B
S1130E0050E06FE473E48DE03EDA40E050E064E9E2
S1130E1072E48EE038DA40E050E06FE073E480E0A2
S1130E2032DA40E050E062EC72E481E02CDA40E037
S1130E3050E069E573E482E026DA40E050E063E1E3
S1130E4073E48FE020DA40E050E065E573E480E18C
S1130E501ADA40E050E06CE772E481E114DA2FE73B
S1130E608AE196E0215080409040E1F700C0000004
S1130E702ECA089540E050E063E173E486E003DAAB
S1130E8040E050E060E772E487E0FDD940E050E0E4
S1130E9060E773E488E0F7D940E050E06FE073E482
S1130EA089E0F1D940E050E06BE473E48AE0EBD9E7
S1130EB040E050E066EA72E48BE0E5D940E050E0BF
S1130EC06EE173E483E0DFD940E050E06AEB72E462
S1130ED084E0D9D940E050E062E673E485E0D3D9F8
S1130EE040E050E06EE173E48CE0CDD940E050E0A6
S1130EF06AE673E48DE0C7D940E050E060E872E44C
S1130F008EE0C1D940E050E06FE073E480E0BBD9EB
S1130F1040E050E060E772E481E0B5D940E050E0A1
S1130F2062E673E482E0AFD940E050E063E173E449
S1130F308FE0A9D940E050E065E573E480E1A3D9EE
S1130F4040E050E06CE772E481E19DD92FE78AE14B
S1130F5096E0215080409040E1F700C00000B7C9FE
S1130F60089540E050E066E173E486E08CD940E007
S1130F7050E06AE972E487E086D940E050E069E62F
S1130F8073E488E080D940E050E063E173E489E0F1
S1130F907AD940E050E060E573E48AE074D940E037
S1130FA050E062E972E48BE06ED940E050E066E123
S1130FB073E483E068D940E050E068EB72E484E0D5
S1130FC062D940E050E063E673E485E05CD940E038
S1130FD050E066E173E48CE056D940E050E06BE603
S1130FE073E48DE050D940E050E06CE772E48EE0A9
S1130FF04AD940E050E063E173E480E044D940E042
S113100050E060E772E481E03ED940E050E06EE6F3
S113101073E482E038D940E050E069E173E48FE0A2
S113102032D940E050E060E573E480E12CD940E03F
S113103050E062E972E481E126D92FE78AE196E083
S1131040215080409040E1F700C0000040C908955D
S113105040E050E068E173E486E015D940E050E0F8
S113106060EB72E487E00FD940E050E068E573E498
S113107088E009D940E050E069E173E489E003D9EC
S113108040E050E065E573E48AE0FDD840E050E0DC
S11310906CE772E48BE0F7D840E050E06EE073E474
S11310A083E0F1D840E050E06AEB72E484E0EBD8EE
S11310B040E050E062E673E485E0E5D840E050E0CB
S11310C06EE073E48CE0DFD840E050E06BE673E45C
S11310D08DE0D9D840E050E060E872E48EE0D3D8E7
S11310E040E050E069E173E480E0CDD840E050E0B6
S11310F060E772E481E0C7D840E050E060E773E461
S113110082E0C1D840E050E06DE173E48FE0BBD8E9
S113111040E050E06BE473E480E1B5D840E050E097
S113112066EA72E481E1AFD82FE78AE196E02150C4
S113113080409040E1F700C00000C9C8089540E035
S113114050E068E173E486E09ED840E050E06EEC45
S113115072E487E098D840E050E06FE473E488E0FC
S113116092D840E050E069E173E489E08CD840E033
S113117050E065E573E48AE086D840E050E06CE72F
S113118072E48BE080D840E050E06EE073E483E0EA
S11311907AD840E050E06AEB72E484E074D840E02E
S11311A050E062E673E485E06ED840E050E06EE023
S11311B073E48CE068D840E050E06FE473E48DE0C1
S11311C062D840E050E064E972E48EE05CD840E02C
S11311D050E069E173E480E056D840E050E06EEA04
S11311E072E481E050D840E050E06DE673E482E0C0
S11311F04AD840E050E06DE173E48FE044D840E029
S113120050E06BE473E480E13ED840E050E066EAED
S113121072E481E138D82FE78AE196E021508040DA
S11312209040E1F700C0000052C8089540E050E04B
S113123068E173E486E027D840E050E06EEC72E4A5
S113124087E021D840E050E06FE473E488E01BD8E5
S113125040E050E069E173E489E015D840E050E0F3
S113126060E773E48AE00FD840E050E060E772E49E
S11312708BE009D840E050E06EE073E483E003D8EB
S113128040E050E062E872E484E00E94430140E000
S113129050E06CE673E485E00E94430140E050E0D6
S11312A06EE073E48CE00E94430140E050E06FE4A0
S11312B073E48DE00E94430140E050E064E972E48D
S11312C08EE00E94430140E050E069E173E480E075
S11312D00E94430140E050E06EEA72E481E00E9423
S11312E0430140E050E06DE673E482E00E94430174
S11312F040E050E06DE173E48FE00E94430140E080
S113130050E060E773E480E10E94430140E050E074
S113131064E972E481E10E9443012FE78AE196E0E7
S1131320215080409040E1F700C000000C94670118
S113133008957CDF3ADCB0DC26DD9CDD12DE88DE3D
S1131340FECE0895CDDA55DADDD965D9EDD875D854
S1131350B5DB3DCB089540E050E069E173E486E0FD
S11313600E94430140E050E068EB72E487E00E9491
S1131370430140E050E063E673E488E00E944301E7
S113138040E050E066E173E489E00E94430140E0FC
S113139050E060E773E48AE00E94430140E050E0DB
S11313A066E872E48BE00E94430140E050E066E1AD
S11313B073E483E00E94430140E050E060E872E49B
S11313C084E00E94430140E050E06DE673E485E070
S11313D00E94430140E050E066E173E48CE00E9427
S11313E0430140E050E060E573E48DE00E94430176
S11313F040E050E062E972E48EE00E94430140E084
S113140050E063E173E480E00E94430140E050E077
S113141068EB72E481E00E94430140E050E063E63F
S113142073E482E00E94430140E050E069E173E428
S11314308FE00E94430140E050E060E773E480E104
S11314400E94430140E050E068E772E481E10E94B9
S113145043012FE78AE196E0215080409040E1F774
S113146000C000000C946701089540E050E063E17F
S113147073E486E00E94430140E050E06EEA72E4C7
S113148087E00E94430140E050E06DE673E488E0A9
S11314900E94430140E050E064E173E489E00E946B
S11314A0430140E050E06BE673E48AE00E944301AC
S11314B040E050E062E972E48BE00E94430140E0C6
S11314C050E06EE173E483E00E94430140E050E0A9
S11314D06CE872E484E00E94430140E050E06CE672
S11314E073E485E00E94430140E050E06EE173E460
S11314F08CE00E94430140E050E06FE473E48DE02F
S11315000E94430140E050E064E972E48EE00E94EE
S1131510430140E050E06FE073E480E00E94430147
S113152040E050E062EC72E481E00E94430140E05C
S113153050E069E573E482E00E94430140E050E03A
S113154063E173E48FE00E94430140E050E060E710
S113155073E480E10E94430140E050E060E772E4FC
S113156081E10E9443012FE78AE196E02150804007
S11315709040E1F700C000000C946701089540E03A
S113158050E063E173E486E00E94430140E050E0F0
S11315906EEA72E487E00E94430140E050E06DE6A9
S11315A073E488E00E94430140E050E064E173E4A6
S11315B089E00E94430140E050E065E473E48AE07E
S11315C00E94430140E050E06AEB72E48BE00E9429
S11315D0430140E050E06EE173E483E00E94430184
S11315E040E050E06AEB72E484E00E94430140E092
S11315F050E062E673E485E00E94430140E050E07D
S11316006EE173E48CE00E94430140E050E06FE43B
S113161073E48DE00E94430140E050E064E972E429
S11316208EE00E94430140E050E06FE073E480E00C
S11316300E94430140E050E062EC72E481E00E94C9
S1131640430140E050E069E573E482E00E94430115
S113165040E050E063E173E48FE00E94430140E026
S113166050E065E573E480E10E94430140E050E00E
S11316706CE772E481E10E9443012FE78AE196E07E
S1131680215080409040E1F700C000000C946701B5
S1131690089540E050E063E173E486E00E94430172
S11316A040E050E060E772E487E00E94430140E0DC
S11316B050E060E773E488E00E94430140E050E0BA
S11316C064E173E489E00E94430140E050E065E492
S11316D073E48AE00E94430140E050E06AEB72E464
S11316E08BE00E94430140E050E06EE173E483E04C
S11316F00E94430140E050E06AEB72E484E00E94FF
S1131700430140E050E062E673E485E00E94430157
S113171040E050E06EE173E48CE00E94430140E05D
S113172050E06AE673E48DE00E94430140E050E03B
S113173060E872E48EE00E94430140E050E06FE014
S113174073E480E00E94430140E050E060E772E40B
S113175081E00E94430140E050E062E673E482E0ED
S11317600E94430140E050E063E173E48FE00E9493
S1131770430140E050E065E573E480E10E944301E9
S113178040E050E06CE772E481E10E9443012FE7FE
S11317908AE196E0215080409040E1F700C00000CB
S11317A00C946701089540E050E069E173E486E039
S11317B00E94430140E050E060E772E487E00E9449
S11317C0430140E050E06EE673E488E00E94430188
S11317D040E050E066E173E489E00E94430140E0A8
S11317E050E06EE473E48AE00E94430140E050E07C
S11317F06AE972E48BE00E94430140E050E066E154
S113180073E483E00E94430140E050E068EB72E43B
S113181084E00E94430140E050E063E673E485E025
S11318200E94430140E050E066E173E48CE00E94D2
S1131830430140E050E06BE673E48DE00E94430115
S113184040E050E06CE772E48EE00E94430140E027
S113185050E063E173E480E00E94430140E050E023
S113186060E772E481E00E94430140E050E06EE6EC
S113187073E482E00E94430140E050E069E173E4D4
S11318808FE00E94430140E050E060E573E480E1B2
S11318900E94430140E050E062E972E481E10E9469
S11318A043012FE78AE196E0215080409040E1F720
S11318B000C000000C946701089540E050E06DE121
S11318C073E486E00E94430140E050E060E772E484
S11318D087E00E94430140E050E062E673E488E060
S11318E00E94430140E050E069E173E489E00E9412
S11318F0430140E050E065E573E48AE00E9443015F
S113190040E050E06CE772E48BE00E94430140E069
S113191050E06EE073E483E00E94430140E050E055
S11319206AEB72E484E00E94430140E050E062E626
S113193073E485E00E94430140E050E06EE073E40C
S11319408CE00E94430140E050E06BE673E48DE0DC
S11319500E94430140E050E060E872E48EE00E949F
S1131960430140E050E069E173E480E00E944301F8
S113197040E050E060E772E481E00E94430140E00F
S113198050E060E773E482E00E94430140E050E0ED
S11319906DE173E48FE00E94430140E050E06BE4AA
S11319A073E480E10E94430140E050E066EA72E49F
S11319B081E10E9443012FE78AE196E021508040B3
S11319C09040E1F700C000000C946701089540E0E6
S11319D050E06DE173E486E00E94430140E050E092
S11319E062EC72E487E00E94430140E050E069E564
S11319F073E488E00E94430140E050E069E173E44D
S1131A0089E00E94430140E050E065E573E48AE028
S1131A100E94430140E050E06CE772E48BE00E94D6
S1131A20430140E050E06EE073E483E00E94430130
S1131A3040E050E06AEB72E484E00E94430140E03D
S1131A4050E062E673E485E00E94430140E050E028
S1131A506EE073E48CE00E94430140E050E06FE4E8
S1131A6073E48DE00E94430140E050E064E972E4D5
S1131A708EE00E94430140E050E069E173E480E0BD
S1131A800E94430140E050E06EEA72E481E00E946B
S1131A90430140E050E06DE673E482E00E944301BC
S1131AA040E050E06DE173E48FE00E94430140E0C8
S1131AB050E06BE473E480E10E94430140E050E0B5
S1131AC066EA72E481E10E9443012FE78AE196E02D
S1131AD0215080409040E1F700C000000C94670161
S1131AE0089540E050E06DE173E486E00E94430114
S1131AF040E050E062EC72E487E00E94430140E081
S1131B0050E069E573E488E00E94430140E050E05E
S1131B1069E173E489E00E94430140E050E060E73A
S1131B2073E48AE00E94430140E050E060E772E41D
S1131B308BE00E94430140E050E06EE073E483E0F8
S1131B400E94430140E050E062E872E484E00E94B5
S1131B50430140E050E06CE673E485E00E944301F9
S1131B6040E050E06EE073E48CE00E94430140E00A
S1131B7050E06FE473E48DE00E94430140E050E0E4
S1131B8064E972E48EE00E94430140E050E069E1C0
S1131B9073E480E00E94430140E050E06EEA72E4A6
S1131BA081E00E94430140E050E06DE673E482E08E
S1131BB00E94430140E050E06DE173E48FE00E9435
S1131BC0430140E050E060E773E480E10E94430198
S1131BD040E050E064E972E481E10E9443012FE7B0
S1131BE08AE196E0215080409040E1F700C0000077
S1131BF00C946701089540E050E066E173E486E0E8
S1131C000E94430140E050E06CEB72E487E00E94E4
S1131C10430140E050E06FE573E488E00E94430133
S1131C2040E050E066E173E489E00E94430140E053
S1131C3050E060E773E48AE00E94430140E050E032
S1131C4066E872E48BE00E94430140E050E066E104
S1131C5073E483E00E94430140E050E060E872E4F2
S1131C6084E00E94430140E050E06DE673E485E0C7
S1131C700E94430140E050E066E173E48CE00E947E
S1131C80430140E050E060E573E48DE00E944301CD
S1131C9040E050E062E972E48EE00E94430140E0DB
S1131CA050E063E173E480E00E94430140E050E0CF
S1131CB068EB72E481E00E94430140E050E063E697
S1131CC073E482E00E94430140E050E069E173E480
S1131CD08FE00E94430140E050E060E773E480E15C
S1131CE00E94430140E050E068E772E481E10E9411
S1131CF043012FE78AE196E0215080409040E1F7CC
S1131D0000C000000C946701089540E050E063E1D6
S1131D1073E486E00E94430140E050E06EEA72E41E
S1131D2087E00E94430140E050E06DE673E488E000
S1131D300E94430140E050E06FE073E489E00E94B8
S1131D40430140E050E06BE673E48AE00E94430103
S1131D5040E050E064E972E48BE00E94430140E01B
S1131D6050E06EE173E483E00E94430140E050E000
S1131D706CE872E484E00E94430140E050E06CE6C9
S1131D8073E485E00E94430140E050E06EE173E4B7
S1131D908CE00E94430140E050E06FE473E48DE086
S1131DA00E94430140E050E064E972E48EE00E9446
S1131DB0430140E050E06FE073E480E00E9443019F
S1131DC040E050E062EC72E481E00E94430140E0B4
S1131DD050E069E573E482E00E94430140E050E092
S1131DE063E173E48FE00E94430140E050E060E768
S1131DF073E480E10E94430140E050E060E772E454
S1131E0081E10E9443012FE78AE196E0215080405E
S1131E109040E1F700C000000C946701089540E091
S1131E2050E063E173E486E00E94430140E050E047
S1131E306EEA72E487E00E94430140E050E06DE600
S1131E4073E488E00E94430140E050E06FE073E4F3
S1131E5089E00E94430140E050E06BE473E48AE0CF
S1131E600E94430140E050E066EA72E48BE00E9485
S1131E70430140E050E06EE173E483E00E944301DB
S1131E8040E050E06AEB72E484E00E94430140E0E9
S1131E9050E062E673E485E00E94430140E050E0D4
S1131EA06EE173E48CE00E94430140E050E06FE493
S1131EB073E48DE00E94430140E050E064E972E481
S1131EC08EE00E94430140E050E06FE073E480E064
S1131ED00E94430140E050E062EC72E481E00E9421
S1131EE0430140E050E069E573E482E00E9443016D
S1131EF040E050E063E173E48FE00E94430140E07E
S1131F0050E065E573E480E10E94430140E050E065
S1131F106CE772E481E10E9443012FE78AE196E0D5
S1131F20215080409040E1F700C000000C9467010C
S1131F30089540E050E063E173E486E00E944301C9
S1131F4040E050E060E772E487E00E94430140E033
S1131F5050E060E773E488E00E94430140E050E011
S1131F606FE073E489E00E94430140E050E06BE4D9
S1131F7073E48AE00E94430140E050E066EA72E4C0
S1131F808BE00E94430140E050E06EE173E483E0A3
S1131F900E94430140E050E06AEB72E484E00E9456
S1131FA0430140E050E062E673E485E00E944301AF
S1131FB040E050E06EE173E48CE00E94430140E0B5
S1131FC050E06AE673E48DE00E94430140E050E093
S1131FD060E872E48EE00E94430140E050E06FE06C
S1131FE073E480E00E94430140E050E060E772E463
S1131FF081E00E94430140E050E062E673E482E045
S11320000E94430140E050E063E173E48FE00E94EA
S1132010430140E050E065E573E480E10E94430140
S113202040E050E06CE772E481E10E9443012FE755
S11320308AE196E0215080409040E1F700C0000022
S11320400C946701089540E050E066E173E486E093
S11320500E94430140E050E068E872E487E00E9497
S1132060430140E050E069E673E488E00E944301E4
S113207040E050E066E173E489E00E94430140E0FF
S113208050E06EE473E48AE00E94430140E050E0D3
S11320906AE972E48BE00E94430140E050E066E1AB
S11320A073E483E00E94430140E050E068EB72E493
S11320B084E00E94430140E050E063E673E485E07D
S11320C00E94430140E050E066E173E48CE00E942A
S11320D0430140E050E06BE673E48DE00E9443016D
S11320E040E050E06CE772E48EE00E94430140E07F
S11320F050E063E173E480E00E94430140E050E07B
S113210060E772E481E00E94430140E050E06EE643
S113211073E482E00E94430140E050E069E173E42B
S11321208FE00E94430140E050E060E573E480E109
S11321300E94430140E050E062E972E481E10E94C0
S113214043012FE78AE196E0215080409040E1F777
S113215000C000000C946701089540E050E068E17D
S113216073E486E00E94430140E050E068E872E4D2
S113217087E00E94430140E050E068E573E488E0B2
S11321800E94430140E050E06EE173E489E00E9464
S1132190430140E050E060E573E48AE00E944301BB
S11321A040E050E062E972E48BE00E94430140E0C9
S11321B050E06EE073E483E00E94430140E050E0AD
S11321C06AEB72E484E00E94430140E050E062E67E
S11321D073E485E00E94430140E050E06EE073E464
S11321E08CE00E94430140E050E06BE673E48DE034
S11321F00E94430140E050E060E872E48EE00E94F7
S1132200430140E050E069E173E480E00E9443014F
S113221040E050E060E772E481E00E94430140E066
S113222050E060E773E482E00E94430140E050E044
S11322306DE173E48FE00E94430140E050E06BE401
S113224073E480E10E94430140E050E066EA72E4F6
S113225081E10E9443012FE78AE196E0215080400A
S11322609040E1F700C000000C946701089540E03D
S113227050E068E173E486E00E94430140E050E0EE
S11322806EEC72E487E00E94430140E050E06FE4AA
S113229073E488E00E94430140E050E06EE173E49F
S11322A089E00E94430140E050E060E573E48AE085
S11322B00E94430140E050E062E972E48BE00E9436
S11322C0430140E050E06EE073E483E00E94430188
S11322D040E050E06AEB72E484E00E94430140E095
S11322E050E062E673E485E00E94430140E050E080
S11322F06EE073E48CE00E94430140E050E06FE440
S113230073E48DE00E94430140E050E064E972E42C
S11323108EE00E94430140E050E069E173E480E014
S11323200E94430140E050E06EEA72E481E00E94C2
S1132330430140E050E06DE673E482E00E94430113
S113234040E050E06DE173E48FE00E94430140E01F
S113235050E06BE473E480E10E94430140E050E00C
S113236066EA72E481E10E9443012FE78AE196E084
S1132370215080409040E1F700C000000C946701B8
S1132380089540E050E068E173E486E00E94430170
S113239040E050E06EEC72E487E00E94430140E0CC
S11323A050E06FE473E488E00E94430140E050E0B1
S11323B06EE173E489E00E94430140E050E06BE683
S11323C073E48AE00E94430140E050E06CE772E469
S11323D08BE00E94430140E050E06EE073E483E050
S11323E00E94430140E050E062E872E484E00E940D
S11323F0430140E050E06CE673E485E00E94430151
S113240040E050E06EE073E48CE00E94430140E061
S113241050E06FE473E48DE00E94430140E050E03B
S113242064E972E48EE00E94430140E050E069E117
S113243073E480E00E94430140E050E06EEA72E4FD
S113244081E00E94430140E050E06DE673E482E0E5
S11324500E94430140E050E06DE173E48FE00E948C
S1132460430140E050E060E773E480E10E944301EF
S113247040E050E064E972E481E10E9443012FE707
S11324808AE196E0215080409040E1F700C00000CE
S11324900C946701089525DB0E94AB090E94350A5C
S11324A06ED8F7D880D909DA92CA08956ADFA3DB17
S11324B02CDCB5DC3EDDC7DD50DED9CE089540E02E
S11324C050E066E173E486E00E94430140E050E09E
S11324D064EB72E487E00E94430140E050E06CE565
S11324E073E488E00E94430140E050E065E273E455
S11324F089E00E94430140E050E06DE573E48AE026
S11325000E94430140E050E064EA72E48BE00E94E0
S1132510430140E050E064E273E483E00E9443013D
S113252040E050E062E972E484E00E94430140E04C
S113253050E063E673E485E00E94430140E050E02C
S113254066E173E48CE00E94430140E050E062E500
S113255073E48DE00E94430140E050E060EA72E4DD
S11325608EE00E94430140E050E066E173E480E0C5
S11325700E94430140E050E064EB72E481E00E9479
S1132580430140E050E06CE573E482E00E944301C3
S113259040E050E065E273E48FE00E94430140E0D4
S11325A050E06DE573E480E10E94430140E050E0B7
S11325B064EA72E481E10E9443012FE78AE196E034
S11325C0215080409040E1F700C000000C94670166
S11325D0089540E050E066E173E486E00E94430120
S11325E040E050E064EB72E487E00E94430140E085
S11325F050E06CE573E488E00E94430140E050E061
S113260062E373E489E00E94430140E050E063E543
S113261073E48AE00E94430140E050E06EEB72E410
S11326208BE00E94430140E050E060E373E483E008
S11326300E94430140E050E066E972E484E00E94B5
S1132640430140E050E060E673E485E00E9443010A
S113265040E050E066E173E48CE00E94430140E016
S113266050E062E573E48DE00E94430140E050E0F5
S113267060EA72E48EE00E94430140E050E066E1CB
S113268073E480E00E94430140E050E064EB72E4B4
S113269081E00E94430140E050E06CE573E482E095
S11326A00E94430140E050E062E373E48FE00E9443
S11326B0430140E050E063E573E480E10E9443019C
S11326C040E050E06EEB72E481E10E9443012FE7A9
S11326D08AE196E0215080409040E1F700C000007C
S11326E00C946701089540E050E066E173E486E0ED
S11326F00E94430140E050E064EB72E487E00E94F2
S1132700430140E050E06CE573E488E00E9443013B
S113271040E050E062E373E489E00E94430140E05A
S113272050E067E473E48AE00E94430140E050E033
S11327306CEC72E48BE00E94430140E050E060E303
S113274073E483E00E94430140E050E062EB72E4F2
S113275084E00E94430140E050E069E573E485E0D1
S11327600E94430140E050E066E173E48CE00E9483
S1132770430140E050E062E573E48DE00E944301D0
S113278040E050E060EA72E48EE00E94430140E0E1
S113279050E066E173E480E00E94430140E050E0D1
S11327A064EB72E481E00E94430140E050E06CE598
S11327B073E482E00E94430140E050E062E373E48A
S11327C08FE00E94430140E050E067E473E480E15D
S11327D00E94430140E050E06CEC72E481E10E940D
S11327E043012FE78AE196E0215080409040E1F7D1
S11327F000C000000C946701089540E050E066E1D9
S113280073E486E00E94430140E050E06CE872E427
S113281087E00E94430140E050E06CE573E488E007
S11328200E94430140E050E062E373E489E00E94C7
S1132830430140E050E067E473E48AE00E9443010E
S113284040E050E06CEC72E48BE00E94430140E015
S113285050E060E373E483E00E94430140E050E011
S113286062EB72E484E00E94430140E050E069E5D9
S113287073E485E00E94430140E050E066E173E4C4
S11328808CE00E94430140E050E066E673E48DE092
S11328900E94430140E050E060EA72E48EE00E944E
S11328A0430140E050E066E173E480E00E944301AC
S11328B040E050E06CE872E481E00E94430140E0B3
S11328C050E06CE573E482E00E94430140E050E094
S11328D062E373E48FE00E94430140E050E067E468
S11328E073E480E10E94430140E050E06CEC72E448
S11328F081E10E9443012FE78AE196E02150804064
S11329009040E1F700C000000C946701089540E096
S113291050E066E173E486E00E94430140E050E049
S11329206CE872E487E00E94430140E050E06CE50B
S113293073E488E00E94430140E050E065E273E400
S113294089E00E94430140E050E062E573E48AE0DC
S11329500E94430140E050E06AEA72E48BE00E9486
S1132960430140E050E061E273E483E00E944301EC
S113297040E050E06CEA72E484E00E94430140E0ED
S113298050E06EE573E485E00E94430140E050E0CE
S113299066E173E48CE00E94430140E050E066E6A7
S11329A073E48DE00E94430140E050E060EA72E489
S11329B08EE00E94430140E050E066E173E480E071
S11329C00E94430140E050E06CE872E481E00E9420
S11329D0430140E050E06CE573E482E00E9443016F
S11329E040E050E065E273E48FE00E94430140E080
S11329F050E062E573E480E10E94430140E050E06E
S1132A006AEA72E481E10E9443012FE78AE196E0D9
S1132A10215080409040E1F700C000000C94670111
S1132A20089540E050E066E173E486E00E944301CB
S1132A3040E050E06CE872E487E00E94430140E02B
S1132A4050E06CE573E488E00E94430140E050E00C
S1132A5066E173E489E00E94430140E050E063E5ED
S1132A6073E48AE00E94430140E050E064EA72E4C7
S1132A708BE00E94430140E050E066E173E483E0B0
S1132A800E94430140E050E062EB72E484E00E9463
S1132A90430140E050E06AE573E485E00E944301AD
S1132AA040E050E066E173E48CE00E94430140E0C2
S1132AB050E066E673E48DE00E94430140E050E09C
S1132AC060EA72E48EE00E94430140E050E066E177
S1132AD073E480E00E94430140E050E06CE872E45B
S1132AE081E00E94430140E050E06CE573E482E041
S1132AF00E94430140E050E066E173E48FE00E94ED
S1132B00430140E050E063E573E480E10E94430147
S1132B1040E050E064EA72E481E10E9443012FE75F
S1132B208AE196E0215080409040E1F700C0000027
S1132B300C946701089540E050E066E173E486E098
S1132B400E94430140E050E064EB72E487E00E949D
S1132B50430140E050E06CE573E488E00E944301E7
S1132B6040E050E066E173E489E00E94430140E004
S1132B7050E063E573E48AE00E94430140E050E0E2
S1132B8064EA72E48BE00E94430140E050E066E1B5
S1132B9073E483E00E94430140E050E062EB72E49E
S1132BA084E00E94430140E050E06AE573E485E07C
S1132BB00E94430140E050E066E173E48CE00E942F
S1132BC0430140E050E062E573E48DE00E9443017C
S1132BD040E050E060EA72E48EE00E94430140E08D
S1132BE050E066E173E480E00E94430140E050E07D
S1132BF064EB72E481E00E94430140E050E06CE544
S1132C0073E482E00E94430140E050E066E173E433
S1132C108FE00E94430140E050E063E573E480E10B
S1132C200E94430140E050E064EA72E481E10E94C2
S1132C3043012FE78AE196E0215080409040E1F77C
S1132C4000C000000C946701089540E050E066E184
S1132C5073E486E00E94430140E050E064EB72E4D8
S1132C6087E00E94430140E050E06CE573E488E0B3
S1132C700E94430140E050E066E173E489E00E9471
S1132C80430140E050E062E673E48AE00E944301BD
S1132C9040E050E066E972E48BE00E94430140E0CA
S1132CA050E066E173E483E00E94430140E050E0B9
S1132CB064E972E484E00E94430140E050E061E68C
S1132CC073E485E00E94430140E050E066E173E470
S1132CD08CE00E94430140E050E062E573E48DE043
S1132CE00E94430140E050E060EA72E48EE00E94FA
S1132CF0430140E050E066E173E480E00E94430158
S1132D0040E050E064EB72E481E00E94430140E063
S1132D1050E06CE573E482E00E94430140E050E03F
S1132D2066E173E48FE00E94430140E050E062E614
S1132D3073E480E10E94430140E050E066E972E4FC
S1132D4081E10E9443012FE78AE196E0215080400F
S1132D509040E1F700C000000C9467010895EBDE99
S1132D6060DED5DD4ADDBFDC34DCA9DB6ECF08953F
S1132D70E2DE6BDFA4DB2DDCB6DC3FDDC8DD51CE4B
S1132D8008958EB590910101992331F080ED0E9450
S1132D908B0110920001089590E0FC013197E73017
S1132DA0F10508F04BC0EA5BFF4F5CC18FEF0E9456
S1132DB08B0181E0809301010E9499091092010125
S1132DC03DC08FEF0E948B0181E0809301010E943E
S1132DD0A2091092010132C08FEF0E948B0181E0A1
S1132DE080930101C5DF1092010128C08FEF0E947A
S1132DF08B0181E080930101B2DF109201011EC0BA
S1132E008FEF0E948B0181E08093010144DB1092DB
S1132E10010114C08FEF0E948B0181E080930101B6
S1132E2045DB109201010AC08FEF0E948B0181E003
S1132E30809301010E94AF011092010110920001E0
S1132E4008958093000108951F920F920FB60F9278
S1132E5011240BB60F922F933F934F935F936F936D
S1132E607F938F939F93AF93BF93EF93FF9380913F
S1132E700001811104C081E08093000182DFFF9191
S1132E80EF91BF91AF919F918F917F916F915F91DE
S1132E904F913F912F910F900BBE0F900FBE0F904B
S1132EA01F90189533D088F09F5790F0B92F992729
S1132EB0B751A0F0D1F0660F771F881F991F1AF041
S1132EC0BA95C9F712C0B13081F03AD0B1E0089593
S1132ED037C0672F782F8827B85F39F0B93FCCF314
S1132EE0869577956795B395D9F73EF49095809537
S1132EF0709561957F4F8F4F9F4F089557FD905860
S1132F00440F551F59F05F3F71F04795880F97FBA9
S1132F10991F61F09F3F79F0879508951216130663
S1132F201406551FF2CF4695F1DF08C01616170692
S1132F301806991FF1CF86957105610508940895C7
S1132F40E894BB2766277727CB0197F908950BD020
S1132F5078C069D028F06ED018F0952309F05AC0D3
S1132F605FC01124EECFCADFA0F3959FD1F3950F74
S1132F7050E0551F629FF001729FBB27F00DB11DF9
S1132F80639FAA27F00DB11DAA1F649F6627B00D89
S1132F90A11D661F829F2227B00DA11D621F739F72
S1132FA0B00DA11D621F839FA00D611D221F749F80
S1132FB03327A00D611D231F849F600D211D822FC7
S1132FC0762F6A2F11249F5750408AF0E1F088230E
S1132FD04AF0EE0FFF1FBB1F661F771F881F91501B
S1132FE05040A9F79E3F510570F014C0AACF5F3F2F
S1132FF0ECF3983EDCF3869577956795B795F7954E
S1133000E7959F5FC1F7FE2B880F911D96958795D5
S113301097F9089597F99F6780E870E060E0089554
S11330209FEF80EC089500240A94161617061806DC
S11330300906089500240A941216130614060506B8
S11330400895092E0394000C11F4882352F0BB0F49
S113305040F4BF2B11F460FF04C06F5F7F4F8F4FAC
S11330609F4F0895EE0FFF1F0590F491E02D0994F2
S1073070F894FFCFFE
S9030000FC
