S00C00006D61696E2E7372656373
S11300004CC000005BC0000059C0000057C0000095
S113001055C0000053C0000051C000004FC0000094
S11300204DC000004BC0000049C0000047C00000A4
S113003045C0000043C0000041C000003FC00000B4
S11300403DC000003BC0000039C000000C94E20831
S113005035C0000033C0000031C000002FC00000D4
S11300602DC000002BC0000029C0000027C00000E4
S113007025C0000023C0000021C000001FC00000F4
S11300801DC000001BC0000019C00000AE08B50868
S1130090BC08C308CA08D108D80811241FBECFEF72
S11300A0D0E4DEBFCDBF21E0A0E0B1E001C01D92ED
S11300B0A230B207E1F798D00C94F609A1CF92B11F
S11300C0282F207F9F70922B92B91398129A35E0B3
S11300D03A95F1F700001298EFE1F3E03197F1F768
S11300E000C0000022B1F0E18F9FC0011124922FC3
S11300F09F70892B82B9129A35E03A95F1F7000086
S113010012988FE39FE10197F1F700C00000089572
S11301108FEF81B92FEF89EF90E02150804090401C
S1130120E1F700C0000083E3CADF82E3C8DF88E2AE
S1130130C6DF8CE0C4DF86E0C2DF81E0C0DF8FE38E
S11301409FE10197F1F700C0000080E8B8CF08955F
S113015081E0B5DF8FE39FE10197F1F700C0000074
S113016080E8ADCF08950097B9F0289A2FEF39E6CB
S113017048E1215030404040E1F700C0000015B88C
S11301802FEF39E648E1215030404040E1F700C00C
S113019000000197009749F708950097B9F0299A4C
S11301A02FEF39E648E1215030404040E1F700C0EC
S11301B0000015B82FEF39E648E1215030404040A7
S11301C0E1F700C000000197009749F7089584B152
S11301D0836084B9ECD09CDFBBDFCFD07894FBD0B4
S11301E083E090E0C0CF0895F2DF2FEF87EA91E635
S11301F0215080409040E1F700C0000081E090E091
S1130200CCDFFCCFDF92EF92FF920F931F93CF933B
S1130210DF93C82FE62ED42E022F132FC4D0E0EC88
S1130220F0E0808180838FEF90E0CDD08FEF90E07D
S1130230CAD08C2F90E0C7D08D2D90E00296C3D009
S11302408E2D90E0C0D0E394E394ED0CEC0EDD2011
S113025069F0C02FD12FF12C8E01899190E0B3D099
S1130260F8018081E80EF394FD10F6CFF8948E2DFA
S113027090E080959095A7D0E0ECF0E0808186FF37
S1130280FDCF8DD07894DF91CF911F910F91FF9086
S1130290EF90DF900895CF93DF9300D0CDB7DEB712
S11302A090E199836A839E012F5F3F4F42E063E0B0
S11302B0A9DF0F900F90DF91CF910895CF93DF9333
S11302C000D01F92CDB7DEB790E299836A837B8317
S11302D09E012F5F3F4F43E063E094DF0F900F9048
S11302E00F90DF91CF910895CF93DF9300D01F92A9
S11302F0CDB7DEB792E299836A837B839E012F5F39
S11303003F4F43E063E07EDF0F900F900F90DF914B
S1130310CF9108951F93CF93DF9300D01F92CDB751
S1130320DEB7182FCB01BA0121E73DE34AE550E4DB
S1130330CCD776D78EE189836A837B839E012F5F36
S11303403F4F43E064E0812F5DDF0F900F900F90EB
S1130350DF91CF911F910895CF93DF931F92CDB773
S1130360DEB719829E012F5F3F4F40E065E08EEFBC
S113037049DF0F90DF91CF91089561E08EEF8BDF1D
S11303806FEF73E08EEFB0DF66E970E08EEF96CF2B
S113039008958EBD0DB407FEFDCF8EB5089580E19E
S11303A08093C100089588E08093C10008958FEF81
S11303B08093C5008093C40086E08093C20080E1EE
S11303C08093C1000895E0ECF0E0908195FFFDCFAB
S11303D08093C600089566E970E080E090E09ADFBB
S11303E066E970E083E090E095DF66E970E086E01E
S11303F090E090DF66E970E089E090E08BDF66E9E9
S113040070E08CE090E086DF66E970E08FE090E0D9
S113041081DF6AE570E081E090E07CDF6AE570E00E
S113042084E090E077DF6AE570E087E090E072DFD7
S113043062ED70E08AE090E06DDF62ED70E08DE0E7
S113044090E068DF62ED70E080E190E063DF66EEEB
S113045070E082E090E05EDF66EE70E085E090E0C0
S113046059DF66EE70E088E090E054DF66E470E007
S11304708BE090E04FDF66E470E08EE090E04ADFCE
S113048066E470E081E190E045DF66CF089569E9B4
S113049070E086E090E03EDF6CE570E087E090E09D
S11304A039DF63EE70E088E090E034DF63E970E008
S11304B089E090E02FDF60EF70E08AE090E02ADFCF
S11304C06EE370E08BE090E025DF66E970E083E0A6
S11304D090E020DF60E470E084E090E01BDF6DEEEC
S11304E070E085E090E016DF66E970E08CE090E073
S11304F011DF60ED70E08DE090E00CDF69E470E006
S11305008EE090E007DF63E970E080E090E002DFD6
S11305106CE570E081E090E0FDDE63EE70E082E087
S113052090E0F8DE69E970E08FE090E0F3DE60EFE0
S113053070E080E190E0EEDE6EE370E081E190E057
S1130540E9DE8BE792E90197F1F700C0000004CFE0
S1130550089563E970E086E090E0DCDE67E570E032
S113056087E090E0D7DE6DEE70E088E090E0D2DEC8
S11305706FE870E089E090E0CDDE6BEE70E08AE039
S113058090E0C8DE6AE470E08BE090E0C3DE6EE9E0
S113059070E083E090E0BEDE66E470E084E090E02A
S11305A0B9DE6CEE70E085E090E0B4DE6EE970E0F8
S11305B08CE090E0AFDE6FEC70E08DE090E0AADEBE
S11305C06AE470E08EE090E0A5DE6FE870E080E021
S11305D090E0A0DE61E670E081E090E09BDE69EDF2
S11305E070E082E090E096DE63E970E08FE090E0F6
S11305F091DE60EF70E080E190E08CDE6CE370E00F
S113060081E190E087DE8BE792E90197F1F700C082
S11306100000A2CE089563E970E086E090E07ADEFF
S113062067E570E087E090E075DE6DEE70E088E0ED
S113063090E070DE6FE870E089E090E06BDE6BECD8
S113064070E08AE090E066DE63E570E08BE090E0C5
S113065061DE6EE970E083E090E05CDE6DE570E001
S113066084E090E057DE62EE70E085E090E052DED8
S11306706EE970E08CE090E04DDE6FEC70E08DE0B0
S113068090E048DE6AE470E08EE090E043DE6FE8DC
S113069070E080E090E03EDE61E670E081E090E0B2
S11306A039DE69ED70E082E090E034DE63E970E009
S11306B08FE090E02FDE65ED70E080E190E02ADECF
S11306C06FE370E081E190E025DE8BE792E901972A
S11306D0F1F700C0000040CE089563E970E086E0C1
S11306E090E018DE6CE370E087E090E013DE60EFEA
S11306F070E088E090E00EDE6FE870E089E090E062
S113070009DE6BEC70E08AE090E004DE63E570E003
S11307108BE090E0FFDD6EE970E083E090E0FADDCD
S11307206DE570E084E090E0F5DD62EE70E085E078
S113073090E0F0DD6EE970E08CE090E0EBDD6AEED5
S113074070E08DE090E0E6DD60E470E08EE090E043
S1130750E1DD6FE870E080E090E0DCDD6CE370E008
S113076081E090E0D7DD62EE70E082E090E0D2DDDF
S113077063E970E08FE090E0CDDD65ED70E080E14D
S113078090E0C8DD6FE370E081E190E0C3DD8BE7CA
S113079092E90197F1F700C00000DECD089569E900
S11307A070E086E090E0B6DD6CE370E087E090E016
S11307B0B1DD6EEE70E088E090E0ACDD63E970E0FE
S11307C089E090E0A7DD60ED70E08AE090E0A2DDD2
S11307D069E470E08BE090E09DDD66E970E083E021
S11307E090E098DD6CE570E084E090E093DD63EEEA
S11307F070E085E090E08EDD66E970E08CE090E0EA
S113080089DD6BEE70E08DE090E084DD6FE370E0F5
S11308108EE090E07FDD63E970E080E090E07ADDD7
S11308206CE370E081E090E075DD6EEE70E082E0F4
S113083090E070DD69E970E08FE090E06BDD60EDE1
S113084070E080E190E066DD69E470E081E190E0D1
S113085061DD8BE792E90197F1F700C000007CCDE0
S113086008956DE970E086E090E054DD6CE370E09B
S113087087E090E04FDD62EE70E088E090E04ADDD2
S113088069E970E089E090E045DD65ED70E08AE0BB
S113089090E040DD6FE370E08BE090E03BDD6EE8DC
S11308A070E083E090E036DD6DE570E084E090E098
S11308B031DD62EE70E085E090E02CDD6EE870E002
S11308C08CE090E027DD6BEE70E08DE090E022DDBF
S11308D060E470E08EE090E01DDD69E970E080E0A6
S11308E090E018DD6CE370E081E090E013DD60EFF0
S11308F070E082E090E00EDD6DE970E08FE090E062
S113090009DD6BEC70E080E190E004DD63E570E00C
S113091081E190E0FFDC8BE792E90197F1F700C0F9
S113092000001ACD08956DE970E086E090E0F2DCF5
S113093061E670E087E090E0EDDC69ED70E088E06E
S113094090E0E8DC69E970E089E090E0E3DC65EDE3
S113095070E08AE090E0DEDC6FE370E08BE090E032
S1130960D9DC6EE870E083E090E0D4DC6DE570E003
S113097084E090E0CFDC62EE70E085E090E0CADCD9
S11309806EE870E08CE090E0C5DC6FEC70E08DE028
S113099090E0C0DC6AE470E08EE090E0BBDC69E9E2
S11309A070E080E090E0B6DC67E570E081E090E024
S11309B0B1DC6DEE70E082E090E0ACDC6DE970E0FB
S11309C08FE090E0A7DC6BEC70E080E190E0A2DCCB
S11309D063E570E081E190E09DDC8BE792E90197AB
S11309E0F1F700C00000B8CC08956DE970E086E02E
S11309F090E090DC61E670E087E090E08BDC69EDEC
S1130A0070E088E090E086DC69E970E089E090E0DD
S1130A1081DC60EF70E08AE090E07CDC6CE370E005
S1130A208BE090E077DC6EE870E083E090E072DCCD
S1130A3061E470E084E090E06DDC6CEE70E085E0F1
S1130A4090E068DC6EE870E08CE090E063DC6FECD2
S1130A5070E08DE090E05EDC6AE470E08EE090E0AF
S1130A6059DC69E970E080E090E054DC67E570E00F
S1130A7081E090E04FDC6DEE70E082E090E04ADCD3
S1130A806DE970E08FE090E045DC60EF70E080E1BC
S1130A9090E040DC6AE470E081E190E03BDC8BE7CD
S1130AA092E90197F1F700C0000056CC08959DDF4C
S1130AB0EEDC4FDDB0DD11DE72DED3DE34CF08951F
S1130AC032DFCFDE6CDE09DEA6DD43DDE0DC8DCF78
S1130AD0089566E970E086E090E01CDC6AE570E069
S1130AE087E090E017DC6CED70E088E090E012DCC9
S1130AF065EA70E089E090E00DDC6DED70E08AE07D
S1130B0090E008DC62E570E08BE090E003DC64EAEE
S1130B1070E083E090E0FEDB69E470E084E090E064
S1130B20F9DB63EE70E085E090E0F4DB66E970E009
S1130B308CE090E0EFDB62ED70E08DE090E0EADBCA
S1130B4060E570E08EE090E0E5DB66E970E080E06F
S1130B5090E0E0DB6AE570E081E090E0DBDB6CEDE7
S1130B6070E082E090E0D6DB65EA70E08FE090E030
S1130B70D1DB6DED70E080E190E0CCDB62E570E00C
S1130B8081E190E0C7DB8BE792E90197F1F700C0C0
S1130B900000E2CB089566E970E086E090E0BADBFD
S1130BA06AE570E087E090E0B5DB6CED70E088E02A
S1130BB090E0B0DB62EB70E089E090E0ABDB63EDEA
S1130BC070E08AE090E0A6DB6FE570E08BE090E0F7
S1130BD0A1DB60EB70E083E090E09CDB6BE470E011
S1130BE084E090E097DB60EE70E085E090E092DBDB
S1130BF066E970E08CE090E08DDB62ED70E08DE002
S1130C0090E088DB60E570E08EE090E083DB66E9ED
S1130C1070E080E090E07EDB6AE570E081E090E0E7
S1130C2079DB6CED70E082E090E074DB62EB70E005
S1130C308FE090E06FDB63ED70E080E190E06ADBD1
S1130C406FE570E081E190E065DB8BE792E9019765
S1130C50F1F700C0000080CB089566E970E086E0FB
S1130C6090E058DB6AE570E087E090E053DB6CEDE0
S1130C7070E088E090E04EDB62EB70E089E090E0A9
S1130C8049DB67EC70E08AE090E044DB66E670E004
S1130C908BE090E03FDB60EB70E083E090E03ADBD8
S1130CA069E570E084E090E035DB69ED70E085E0B3
S1130CB090E030DB66E970E08CE090E02BDB62EDE5
S1130CC070E08DE090E026DB60E570E08EE090E07F
S1130CD021DB66E970E080E090E01CDB6AE570E00F
S1130CE081E090E017DB6CED70E082E090E012DBD5
S1130CF062EB70E08FE090E00DDB67EC70E080E188
S1130D0090E008DB66E670E081E190E003DB8BE7CE
S1130D1092E90197F1F700C000001ECB089566E93F
S1130D2070E086E090E0F6DA66E470E087E090E058
S1130D30F1DA6CED70E088E090E0ECDA62EB70E000
S1130D4089E090E0E7DA67EC70E08AE090E0E2DACC
S1130D5066E670E08BE090E0DDDA60EB70E083E063
S1130D6090E0D8DA69E570E084E090E0D3DA69EDE8
S1130D7070E085E090E0CEDA66E970E08CE090E027
S1130D80C9DA66EE70E08DE090E0C4DA60E570E008
S1130D908EE090E0BFDA66E970E080E090E0BADAD5
S1130DA066E470E081E090E0B5DA6CED70E082E03A
S1130DB090E0B0DA62EB70E08FE090E0ABDA67ECE1
S1130DC070E080E190E0A6DA66E670E081E190E010
S1130DD0A1DA8BE792E90197F1F700C00000BCCAE1
S1130DE0089566E970E086E090E094DA66E470E0E5
S1130DF087E090E08FDA6CED70E088E090E08ADACA
S1130E0065EA70E089E090E085DA62ED70E08AE0FE
S1130E1090E080DA65E570E08BE090E07BDA61EAEF
S1130E2070E083E090E076DA66E570E084E090E0DC
S1130E3071DA6EED70E085E090E06CDA66E970E0FE
S1130E408CE090E067DA66EE70E08DE090E062DAC4
S1130E5060E570E08EE090E05DDA66E970E080E0E5
S1130E6090E058DA66E470E081E090E053DA6CEDEB
S1130E7070E082E090E04EDA65EA70E08FE090E0A6
S1130E8049DA62ED70E080E190E044DA65E570E013
S1130E9081E190E03FDA8BE792E90197F1F700C036
S1130EA000005ACA089566E970E086E090E032DAFC
S1130EB066E470E087E090E02DDA6CED70E088E0A5
S1130EC090E028DA66E970E089E090E023DA63EDE7
S1130ED070E08AE090E01EDA62E570E08BE090E07A
S1130EE019DA66E970E083E090E014DA69E570E00D
S1130EF084E090E00FDA6AED70E085E090E00ADAD1
S1130F0066E970E08CE090E005DA66EE70E08DE072
S1130F1090E000DA60E570E08EE090E0FBD966E9ED
S1130F2070E080E090E0F6D966E470E081E090E063
S1130F30F1D96CED70E082E090E0ECD966E970E004
S1130F408FE090E0E7D963ED70E080E190E0E2D9D2
S1130F5062E570E081E190E0DDD98BE792E90197E9
S1130F60F1F700C00000F8C9089566E970E086E072
S1130F7090E0D0D96AE570E087E090E0CBD96CEDE1
S1130F8070E088E090E0C6D966E970E089E090E01E
S1130F90C1D963ED70E08AE090E0BCD962E570E00D
S1130FA08BE090E0B7D966E970E083E090E0B2D9D5
S1130FB069E570E084E090E0ADD96AED70E085E029
S1130FC090E0A8D966E970E08CE090E0A3D962EDE6
S1130FD070E08DE090E09ED960E570E08EE090E0F6
S1130FE099D966E970E080E090E094D96AE570E010
S1130FF081E090E08FD96CED70E082E090E08AD9D6
S113100066E970E08FE090E085D963ED70E080E1FF
S113101090E080D962E570E081E190E07BD98BE7D4
S113102092E90197F1F700C0000096C9089566E9B6
S113103070E086E090E06ED96AE570E087E090E0C9
S113104069D96CED70E088E090E064D966E970E0FD
S113105089E090E05FD962EE70E08AE090E05AD9CE
S11310606BE470E08BE090E055D966E970E083E0D2
S113107090E050D96AE470E084E090E04BD961EEEE
S113108070E085E090E046D966E970E08CE090E09D
S113109041D962ED70E08DE090E03CD960E570E00C
S11310A08EE090E037D966E970E080E090E032D9D4
S11310B06AE570E081E090E02DD96CED70E082E0AB
S11310C090E028D966E970E08FE090E023D962EEE1
S11310D070E080E190E01ED96BE470E081E190E083
S11310E019D98BE792E90197F1F700C0000034C9E0
S11310F008953BDFD8DE75DE12DEAFDD4CDDE9DCC2
S113110096CF089532DF93DFE4DC45DDA6DD07DE0C
S113111068DEC9CE0895CBDCCADCC9DCC8DCF2CFFA
S11311200895C5DCC4DCC3DCC2DCE3CF0895CF93EF
S1131130CEB590910101992329F080ED2AD910921E
S113114000013EC08FEF25D98C2F90E0FC01319730
S1131150E730F10598F5EA5BFF4F42C181E08093E7
S11311600101A5DC1092010129C081E080930101F5
S1131170A7DC1092010122C081E080930101C2DF4B
S1131180109201011BC081E080930101B2DF109233
S1131190010114C081E080930101BDDF10920101BF
S11311A00DC081E080930101BCDF1092010106C0F3
S11311B081E0809301010FD9109201011092000186
S11311C0CF9108951F920F920FB60F9211240BB670
S11311D00F922F933F934F935F936F937F938F93CC
S11311E09F93AF93BF93EF93FF938091000181117D
S11311F004C081E0809300019ADFFF91EF91BF91D9
S1131200AF919F918F917F916F915F914F913F919A
S11312102F910F900BBE0F900FBE0F901F9018953B
S113122033D088F09F5790F0B92F9927B751A0F089
S1131230D1F0660F771F881F991F1AF0BA95C9F766
S113124012C0B13081F03AD0B1E0089537C0672FB1
S1131250782F8827B85F39F0B93FCCF38695779516
S11312606795B395D9F73EF49095809570956195FF
S11312707F4F8F4F9F4F089557FD9058440F551F30
S113128059F05F3F71F04795880F97FB991F61F004
S11312909F3F79F087950895121613061406551F7B
S11312A0F2CF4695F1DF08C0161617061806991FE7
S11312B0F1CF86957105610508940895E894BB27DC
S11312C066277727CB0197F908950BD078C069D0AA
S11312D028F06ED018F0952309F05AC05FC011248D
S11312E0EECFCADFA0F3959FD1F3950F50E0551FC1
S11312F0629FF001729FBB27F00DB11D639FAA2767
S1131300F00DB11DAA1F649F6627B00DA11D661FB5
S1131310829F2227B00DA11D621F739FB00DA11DD6
S1131320621F839FA00D611D221F749F3327A00D90
S1131330611D231F849F600D211D822F762F6A2F2C
S113134011249F5750408AF0E1F088234AF0EE0FB1
S1131350FF1FBB1F661F771F881F91505040A9F7BE
S11313609E3F510570F014C0AACF5F3FECF3983E46
S1131370DCF3869577956795B795F795E7959F5F25
S1131380C1F7FE2B880F911D9695879597F90895BF
S113139097F99F6780E870E060E008959FEF80EC24
S11313A0089500240A9416161706180609060895C7
S11313B000240A9412161306140605060895092E2D
S11313C00394000C11F4882352F0BB0F40F4BF2B9C
S11313D011F460FF04C06F5F7F4F8F4F9F4F0895DC
S11313E0EE0FFF1F0590F491E02D0994F894FFCFC0
S9030000FC
