S00C00006D61696E2E7372656373
S11300004CC0000068C0000066C0000064C000006E
S113001062C0000060C000005EC000005CC0000060
S11300205AC0000058C0000056C0000054C0000070
S113003052C0000050C000004EC000004CC0000080
S11300404AC0000048C0000046C000000C94000AEA
S113005042C0000040C000003EC000003CC00000A0
S11300603AC0000038C0000036C0000034C00000B0
S113007032C0000030C000002EC000002CC00000C0
S11300802AC0000028C0000026C00000C809CF090B
S1130090D609DD09E409EB09F20911241FBECFEFEB
S11300A0D0E4DEBFCDBF11E0A0E0B1E0ECE2F6E1C8
S11300B000E00BBF02C007900D92A030B107D9F742
S11300C021E0A0E0B1E001C01D92A230B207E1F747
S11300D022D00C94140B94CF0097B9F0289A2FEFE8
S11300E039E648E1215030404040E1F700C00000CB
S11300F015B82FEF39E648E1215030404040E1F790
S113010000C000000197009749F70895E0D0ECD0B3
S1130110F6D0D1C00895FADF2FEF87EA91E6215097
S113012080409040E1F700C00000FCD02FEF87EA48
S113013091E6215080409040E1F700C0000081E04A
S113014090E0CADF80E00E94FD09FCCFDF92EF92CD
S1130150FF920F931F93CF93DF93C82FE62ED42ED5
S1130160022F132FC8D0E0ECF0E0808180838FEF62
S1130170D1D08FEFCFD08C2FCDD082E08D0DCAD0CF
S11301808E2DC8D0E394E394ED0CEC0EDD2061F0E9
S1130190C02FD12FF12C8E018991BCD0F801808120
S11301A0E80EF394FD10F7CFF8948E2D8095B2D01D
S11301B0E0ECF0E0808186FFFDCF99D07894DF9168
S11301C0CF911F910F91FF90EF90DF900895CF93FF
S11301D0DF9300D0CDB7DEB790E199836A839E01A7
S11301E02F5F3F4F42E063E0B1DF0F900F90DF914C
S11301F0CF910895CF93DF9300D01F92CDB7DEB790
S113020090E299836A837B839E012F5F3F4F43E093
S113021063E09CDF0F900F900F90DF91CF910895D2
S1130220CF93DF9300D01F92CDB7DEB792E29983CC
S11302306A837B839E012F5F3F4F43E063E086DF49
S11302400F900F900F90DF91CF9108951F93CF934C
S1130250DF9300D01F92CDB7DEB7182FCB01BA01C0
S113026021E73DE34AE550E40E94830A0E942E0AF6
S11302708EE189836A837B839E012F5F3F4F43E036
S113028064E0812F63DF0F900F900F90DF91CF9187
S11302901F910895CF93DF931F92CDB7DEB71982D4
S11302A09E012F5F3F4F40E065E08EEF4FDF0F90E0
S11302B0DF91CF91089561E08EEF89DF6FEF73E0F6
S11302C08EEFAEDF62ED70E08EEF94CF08958CB5C3
S11302D080688CBD8CB580648CBD08958EBD0DB4D2
S11302E007FEFDCF8EB5089587E484B9089580E1B3
S11302F08093C100089588E08093C100089510920E
S1130300C5001092C40086E08093C20080E180930F
S1130310C1000895E0ECF0E0908195FFFDCF80935B
S1130320C600089540E050E066E173E480E08EDFAB
S113033040E050E066E173E483E088DF40E050E0B1
S113034066E173E486E082DF40E050E066E173E456
S113035089E07CDF40E050E066E173E48CE076DF26
S113036040E050E066E173E48FE070DF40E050E08D
S113037064EB72E481E06ADF40E050E064EB72E435
S113038084E064DF40E050E064EB72E487E05EDF29
S113039040E050E062E573E48AE058DF40E050E07A
S11303A062E573E48DE052DF40E050E062E573E41F
S11303B080E14CDF40E050E066E673E482E046DF33
S11303C040E050E066E673E485E040DF40E050E062
S11303D066E673E488E03ADF40E050E06CE872E4FB
S11303E08BE034DF40E050E06CE872E48EE02EDF16
S11303F040E050E06CE872E481E128DF4BCF0895DF
S113040040E050E069E173E486E020DF40E050E042
S113041068EB72E487E01ADF40E050E063E673E4DF
S113042088E014DF40E050E063E173E489E00EDF2C
S113043040E050E060E773E48AE008DF40E050E029
S113044068E772E48BE002DF40E050E066E173E4C9
S113045083E0FCDE40E050E060E872E484E0F6DE35
S113046040E050E06DE673E485E0F0DE40E050E00B
S113047066E173E48CE0EADE40E050E060E573E4BA
S11304808DE0E4DE40E050E062E972E48EE0DEDE1E
S113049040E050E063E173E480E0D8DE40E050E007
S11304A068EB72E481E0D2DE40E050E063E673E49E
S11304B082E0CCDE40E050E069E173E48FE0C6DE28
S11304C040E050E060E773E480E1C0DE40E050E0EB
S11304D068E772E481E1BADE2FEF81EE94E0215007
S11304E080409040E1F700C00000D4CE089540E081
S11304F050E063E173E486E0A9DE40E050E06EEA98
S113050072E487E0A3DE40E050E06DE673E488E047
S11305109DDE40E050E06FE073E489E097DE40E068
S113052050E06BE673E48AE091DE40E050E064E979
S113053072E48BE08BDE40E050E06EE173E483E034
S113054085DE40E050E06CE872E484E07FDE40E069
S113055050E06CE673E485E079DE40E050E06EE163
S113056073E48CE073DE40E050E06FE473E48DE00C
S11305706DDE40E050E064E972E48EE067DE40E066
S113058050E06FE073E480E061DE40E050E062EC54
S113059072E481E05BDE40E050E069E573E482E010
S11305A055DE40E050E063E173E48FE04FDE40E06D
S11305B050E060E773E480E149DE40E050E060E74A
S11305C072E481E143DE2FEF81EE94E0215080401C
S11305D09040E1F700C000005DCE089540E050E097
S11305E063E173E486E032DE40E050E06EEA72E4F8
S11305F087E02CDE40E050E06DE673E488E026DE20
S113060040E050E06FE073E489E020DE40E050E039
S11306106BE473E48AE01ADE40E050E066EA72E4D8
S11306208BE014DE40E050E06EE173E483E00EDE24
S113063040E050E06AEB72E484E008DE40E050E021
S113064062E673E485E002DE40E050E06EE173E4CC
S11306508CE0FCDD40E050E06FE473E48DE0F6DD17
S113066040E050E064E972E48EE0F0DD40E050E008
S11306706FE073E480E0EADD40E050E062EC72E4B5
S113068081E0E4DD40E050E069E573E482E0DEDD32
S113069040E050E063E173E48FE0D8DD40E050E0F7
S11306A065E573E480E1D2DD40E050E06CE772E49C
S11306B081E1CCDD2FEF81EE94E021508040904029
S11306C0E1F700C00000E6CD089540E050E063E1AA
S11306D073E486E0BBDD40E050E060E772E487E06D
S11306E0B5DD40E050E060E773E488E0AFDD40E072
S11306F050E06FE073E489E0A9DD40E050E06BE492
S113070073E48AE0A3DD40E050E066EA72E48BE043
S11307109DDD40E050E06EE173E483E097DD40E06E
S113072050E06AEB72E484E091DD40E050E062E680
S113073073E485E08BDD40E050E06EE173E48CE02F
S113074085DD40E050E06AE673E48DE07FDD40E063
S113075050E060E872E48EE079DD40E050E06FE064
S113076073E480E073DD40E050E060E772E481E030
S11307706DDD40E050E062E673E482E067DD40E076
S113078050E063E173E48FE061DD40E050E065E553
S113079073E480E15BDD40E050E06CE772E481E10A
S11307A055DD2FEF81EE94E0215080409040E1F739
S11307B000C000006FCD089540E050E069E173E4AB
S11307C086E044DD40E050E060E772E487E03EDD2F
S11307D040E050E06EE673E488E038DD40E050E04D
S11307E063E173E489E032DD40E050E060E573E406
S11307F08AE02CDD40E050E062E972E48BE026DD23
S113080040E050E066E173E483E020DD40E050E046
S113081068EB72E484E01ADD40E050E063E673E4E0
S113082085E014DD40E050E066E173E48CE00EDD29
S113083040E050E06BE673E48DE008DD40E050E01A
S11308406CE772E48EE002DD40E050E063E173E4C3
S113085080E0FCDC40E050E060E772E481E0F6DC3C
S113086040E050E06EE673E482E0F0DC40E050E00B
S113087069E173E48FE0EADC40E050E060E573E4B2
S113088080E1E4DC40E050E062E972E481E1DEDC36
S11308902FEF81EE94E0215080409040E1F700C0BA
S11308A00000F8CC089540E050E06DE173E486E088
S11308B0CDDC40E050E060E772E487E0C7DC40E074
S11308C050E062E673E488E0C1DC40E050E069E1B6
S11308D073E489E0BBDC40E050E065E573E48AE062
S11308E0B5DC40E050E06CE772E48BE0AFDC40E064
S11308F050E06EE073E483E0A9DC40E050E06AEB92
S113090072E484E0A3DC40E050E062E673E485E056
S11309109DDC40E050E06EE073E48CE097DC40E066
S113092050E06BE673E48DE091DC40E050E060E879
S113093072E48EE08BDC40E050E069E173E480E037
S113094085DC40E050E060E772E481E07FDC40E079
S113095050E060E773E482E079DC40E050E06DE170
S113096073E48FE073DC40E050E06BE473E480E117
S11309706DDC40E050E066EA72E481E167DC2FEF71
S113098081EE94E0215080409040E1F700C00000E7
S113099081CC089540E050E06DE173E486E056DCDC
S11309A040E050E062EC72E487E050DC40E050E06C
S11309B069E573E488E04ADC40E050E069E173E40F
S11309C089E044DC40E050E065E573E48AE03EDC25
S11309D040E050E06CE772E48BE038DC40E050E04B
S11309E06EE073E483E032DC40E050E06AEB72E4F2
S11309F084E02CDC40E050E062E673E485E026DC31
S1130A0040E050E06EE073E48CE020DC40E050E035
S1130A106FE473E48DE01ADC40E050E064E972E4D2
S1130A208EE014DC40E050E069E173E480E00EDC29
S1130A3040E050E06EEA72E481E008DC40E050E01F
S1130A406DE673E482E002DC40E050E06DE173E4C3
S1130A508FE0FCDB40E050E06BE473E480E1F6DB24
S1130A6040E050E066EA72E481E1F0DB2FEF81EED2
S1130A7094E0215080409040E1F700C000000ACC8F
S1130A80089540E050E06DE173E486E0DFDB40E090
S1130A9050E062EC72E487E0D9DB40E050E069E5C5
S1130AA073E488E0D3DB40E050E069E173E489E07B
S1130AB0CDDB40E050E060E773E48AE0C7DB40E070
S1130AC050E060E772E48BE0C1DB40E050E06EE0B0
S1130AD073E483E0BBDB40E050E062E872E484E06E
S1130AE0B5DB40E050E06CE673E485E0AFDB40E06A
S1130AF050E06EE073E48CE0A9DB40E050E06FE48A
S1130B0073E48DE0A3DB40E050E064E972E48EE03E
S1130B109DDB40E050E069E173E480E097DB40E076
S1130B2050E06EEA72E481E091DB40E050E06DE673
S1130B3073E482E08BDB40E050E06DE173E48FE02E
S1130B4085DB40E050E060E773E480E17FDB40E078
S1130B5050E064E972E481E179DB2FEF81EE94E007
S1130B60215080409040E1F700C0000093CB0895ED
S1130B7088DF46DCBCDC32DDA8DD1EDE94DE0ACF75
S1130B80089508DF90DE18DEA0DD28DDB0DC38DC57
S1130B9078CF089540E050E066E173E486E056DBE8
S1130BA040E050E064EB72E487E050DB40E050E06A
S1130BB06CE573E488E04ADB40E050E065E273E40E
S1130BC089E044DB40E050E06DE573E48AE03EDB1D
S1130BD040E050E064EA72E48BE038DB40E050E04F
S1130BE064E273E483E032DB40E050E062E972E403
S1130BF084E02CDB40E050E063E673E485E026DB30
S1130C0040E050E066E173E48CE020DB40E050E03B
S1130C1062E573E48DE01ADB40E050E060EA72E4E0
S1130C208EE014DB40E050E066E173E480E00EDB2C
S1130C3040E050E064EB72E481E008DB40E050E027
S1130C406CE573E482E002DB40E050E065E273E4CB
S1130C508FE0FCDA40E050E06DE573E480E1F6DA21
S1130C6040E050E064EA72E481E1F0DA2FEF81EED3
S1130C7094E0215080409040E1F700C000000ACB8E
S1130C80089540E050E066E173E486E0DFDA40E096
S1130C9050E064EB72E487E0D9DA40E050E06CE5C0
S1130CA073E488E0D3DA40E050E062E373E489E07F
S1130CB0CDDA40E050E063E573E48AE0C7DA40E06F
S1130CC050E06EEB72E48BE0C1DA40E050E060E3A8
S1130CD073E483E0BBDA40E050E066E972E484E068
S1130CE0B5DA40E050E060E673E485E0AFDA40E076
S1130CF050E066E173E48CE0A9DA40E050E062E59C
S1130D0073E48DE0A3DA40E050E060EA72E48EE040
S1130D109DDA40E050E066E173E480E097DA40E079
S1130D2050E064EB72E481E091DA40E050E06CE57D
S1130D3073E482E08BDA40E050E062E373E48FE036
S1130D4085DA40E050E063E573E480E17FDA40E077
S1130D5050E06EEB72E481E179DA2FEF81EE94E0FA
S1130D60215080409040E1F700C0000093CA0895EC
S1130D7040E050E066E173E486E068DA40E050E089
S1130D8064EB72E487E062DA40E050E06CE573E41F
S1130D9088E05CDA40E050E062E373E489E056DA2C
S1130DA040E050E067E473E48AE050DA40E050E069
S1130DB06CEC72E48BE04ADA40E050E060E373E408
S1130DC083E044DA40E050E062EB72E484E03EDA2F
S1130DD040E050E069E573E485E038DA40E050E053
S1130DE066E173E48CE032DA40E050E062E573E4FB
S1130DF08DE02CDA40E050E060EA72E48EE026DA1E
S1130E0040E050E066E173E480E020DA40E050E046
S1130E1064EB72E481E01ADA40E050E06CE573E4DC
S1130E2082E014DA40E050E062E373E48FE00EDA2B
S1130E3040E050E067E473E480E108DA40E050E029
S1130E406CEC72E481E102DA2FEF81EE94E0215040
S1130E5080409040E1F700C000001CCA089540E0C3
S1130E6050E066E173E486E0F1D940E050E06CE8DC
S1130E7072E487E0EBD940E050E06CE573E488E08D
S1130E80E5D940E050E062E373E489E0DFD940E073
S1130E9050E067E473E48AE0D9D940E050E06CECB8
S1130EA072E48BE0D3D940E050E060E373E483E084
S1130EB0CDD940E050E062EB72E484E0C7D940E071
S1130EC050E069E573E485E0C1D940E050E066E1B3
S1130ED073E48CE0BBD940E050E066E673E48DE057
S1130EE0B5D940E050E060EA72E48EE0AFD940E06A
S1130EF050E066E173E480E0A9D940E050E06CE89A
S1130F0072E481E0A3D940E050E06CE573E482E050
S1130F109DD940E050E062E373E48FE097D940E06C
S1130F2050E067E473E480E191D940E050E06CEC78
S1130F3072E481E18BD92FEF81EE94E0215080405F
S1130F409040E1F700C00000A5C9089540E050E0DA
S1130F5066E173E486E07AD940E050E06CE872E43C
S1130F6087E074D940E050E06CE573E488E06ED922
S1130F7040E050E065E273E489E068D940E050E085
S1130F8062E573E48AE062D940E050E06AEA72E420
S1130F908BE05CD940E050E061E273E483E056D931
S1130FA040E050E06CEA72E484E050D940E050E064
S1130FB06EE573E485E04AD940E050E066E173E40D
S1130FC08CE044D940E050E066E673E48DE03ED91D
S1130FD040E050E060EA72E48EE038D940E050E04E
S1130FE066E173E480E032D940E050E06CE872E4FA
S1130FF081E02CD940E050E06CE573E482E026D92E
S113100040E050E065E273E48FE020D940E050E036
S113101062E573E480E11AD940E050E06AEA72E4E0
S113102081E114D92FEF81EE94E02150804090406B
S1131030E1F700C000002EC9089540E050E066E1E9
S113104073E486E003D940E050E06CE872E487E0A2
S1131050FDD840E050E06CE573E488E0F7D840E068
S113106050E066E173E489E0F1D840E050E063E5E4
S113107073E48AE0EBD840E050E064EA72E48BE089
S1131080E5D840E050E066E173E483E0DFD840E077
S113109050E062EB72E484E0D9D840E050E06AE5C5
S11310A073E485E0D3D840E050E066E173E48CE07B
S11310B0CDD840E050E066E673E48DE0C7D840E068
S11310C050E060EA72E48EE0C1D840E050E066E1AE
S11310D073E480E0BBD840E050E06CE872E481E067
S11310E0B5D840E050E06CE573E482E0AFD840E06E
S11310F050E066E173E48FE0A9D840E050E063E596
S113110073E480E1A3D840E050E064EA72E481E152
S11311109DD82FEF81EE94E0215080409040E1F77C
S113112000C00000B7C8089540E050E066E173E4F1
S113113086E08CD840E050E064EB72E487E086D827
S113114040E050E06CE573E488E080D840E050E093
S113115066E173E489E07AD840E050E063E573E443
S11311608AE074D840E050E064EA72E48BE06ED820
S113117040E050E066E173E483E068D840E050E08A
S113118062EB72E484E062D840E050E06AE573E424
S113119085E05CD840E050E066E173E48CE056D82A
S11311A040E050E062E573E48DE050D840E050E068
S11311B060EA72E48EE04AD840E050E066E173E40D
S11311C080E044D840E050E064EB72E481E03ED833
S11311D040E050E06CE573E482E038D840E050E051
S11311E066E173E48FE032D840E050E063E573E4F5
S11311F080E12CD840E050E064EA72E481E126D832
S11312002FEF81EE94E0215080409040E1F700C040
S1131210000040C8089540E050E066E173E486E0D1
S113122015D840E050E064EB72E487E00FD840E06A
S113123050E06CE573E488E009D840E050E066E1F2
S113124073E489E003D840E050E062E673E48AE0A6
S11312500E94260140E050E066E972E48BE00E94BF
S1131260260140E050E066E173E483E00E94260139
S113127040E050E064E972E484E00E94260140E02A
S113128050E061E673E485E00E94260140E050E00E
S113129066E173E48CE00E94260140E050E062E5E0
S11312A073E48DE00E94260140E050E060EA72E4BD
S11312B08EE00E94260140E050E066E173E480E0A5
S11312C00E94260140E050E064EB72E481E00E9459
S11312D0260140E050E06CE573E482E00E942601C0
S11312E040E050E066E173E48FE00E94260140E0B4
S11312F050E062E673E480E10E94260140E050E0A1
S113130066E972E481E10E9426012FEF81EE94E008
S1131310215080409040E1F700C000000C944A0145
S1131320089502DF8ADE12DE9ADD22DDAADC32DCD9
S113133072CF0895F9DE6FDF2DDCA3DC19DD8FDDBC
S113134005DE7BCE089514DC13DC12DC11DCF2CF55
S113135008950EDC0DDC0CDC0BDCE3CF0895CF9399
S1131360CEB590910101992331F080ED0E946E0178
S11313701092000140C08FEF0E946E018C2F90E00C
S1131380FC013197E730F105A0F5EA5BFF4F46C158
S113139081E080930101ECDB109201012AC081E01D
S11313A080930101EEDB1092010123C081E0809360
S11313B00101C0DF109201011CC081E08093010192
S11313C0B0DF1092010115C081E080930101BBDF01
S11313D0109201010EC081E080930101BADF1092E6
S11313E0010107C081E0809301010E9492011092E3
S11313F0010110920001CF91089580930001089596
S11314001F920F920FB60F9211240BB60F922F93C7
S11314103F934F935F936F937F938F939F93AF9378
S1131420BF93EF93FF9380910001811104C081E089
S11314308093000194DFFF91EF91BF91AF919F9151
S11314408F917F916F915F914F913F912F910F9069
S11314500BBE0F900FBE0F901F90189533D088F0DD
S11314609F5790F0B92F9927B751A0F0D1F0660F8C
S1131470771F881F991F1AF0BA95C9F712C0B130A7
S113148081F03AD0B1E0089537C0672F782F8827CC
S1131490B85F39F0B93FCCF3869577956795B395E6
S11314A0D9F73EF490958095709561957F4F8F4F55
S11314B09F4F089557FD9058440F551F59F05F3FB3
S11314C071F04795880F97FB991F61F09F3F79F062
S11314D087950895121613061406551FF2CF4695E4
S11314E0F1DF08C0161617061806991FF1CF869566
S11314F07105610508940895E894BB27662777274A
S1131500CB0197F908950BD078C069D028F06ED03C
S113151018F0952309F05AC05FC01124EECFCADF3A
S1131520A0F3959FD1F3950F50E0551F629FF001F2
S1131530729FBB27F00DB11D639FAA27F00DB11D4B
S1131540AA1F649F6627B00DA11D661F829F2227D4
S1131550B00DA11D621F739FB00DA11D621F839F5B
S1131560A00D611D221F749F3327A00D611D231F31
S1131570849F600D211D822F762F6A2F11249F577F
S113158050408AF0E1F088234AF0EE0FFF1FBB1FA2
S1131590661F771F881F91505040A9F79E3F510541
S11315A070F014C0AACF5F3FECF3983EDCF386954D
S11315B077956795B795F795E7959F5FC1F7FE2BEC
S11315C0880F911D9695879597F9089597F99F67C8
S11315D080E870E060E008959FEF80EC08950024B7
S11315E00A941616170618060906089500240A9484
S11315F012161306140605060895092E0394000C0A
S113160011F4882352F0BB0F40F4BF2B11F460FF98
S113161004C06F5F7F4F8F4F9F4F0895EE0FFF1FE2
S10F16200590F491E02D0994F894FFCF9C
S9030000FC
