S00C00006D61696E2E7372656373
S11300004CC0000068C0000066C0000064C000006E
S113001062C0000060C000005EC000005CC0000060
S11300205AC0000058C0000056C0000054C0000070
S113003052C0000050C000004EC000004CC0000080
S11300404AC0000048C0000046C000000C947D1760
S113005042C0000040C000003EC000003CC00000A0
S11300603AC0000038C0000036C0000034C00000B0
S113007032C0000030C000002EC000002CC00000C0
S11300802AC0000028C0000026C000002F173A171D
S113009045174F17591763176D1711241FBECFEF5C
S11300A0D0E4DEBFCDBF11E0A0E0B1E0E6E2F1E3D1
S11300B000E00BBF02C007900D92A030B107D9F742
S11300C021E0A0E0B1E001C01D92A230B207E1F747
S11300D03CD00C94911894CF0097B9F0289A2FEF44
S11300E039E648E1215030404040E1F700C00000CB
S11300F015B82FEF39E648E1215030404040E1F790
S113010000C000000197009749F708950097B9F0DF
S1130110299A2FEF39E648E1215030404040E1F779
S113012000C0000015B82FEF39E648E121503040F7
S11301304040E1F700C000000197009749F7089597
S113014031D13DD147D116C10895FADF2FEF83EDA8
S113015090E3215080409040E1F700C000004DD171
S11301602FEF83ED90E3215080409040E1F700C0F1
S1130170000081E090E0B0DF81E090E0C7DF80E044
S11301800E947A17FCCFDF92EF92FF920F931F9396
S1130190CF93DF93C82FE62ED42E022F132FF8947B
S11301A015D1E0ECF0E0808180838FEF1ED18FEFDA
S11301B01CD18C2F1AD182E08D0D17D18E2D15D123
S11301C0E394E394ED0CEC0EDD2061F0C02FD12F0D
S11301D0F12C8E01899109D1F8018081E80EF39404
S11301E0FD10F7CF8E2D809500D1E0ECF0E08081FA
S11301F086FFFDCFE7D07894DF91CF911F910F91C7
S1130200FF90EF90DF900895CF93DF9300D0CDB7A8
S1130210DEB790E199836A839E012F5F3F4F42E0EE
S113022063E0B1DF0F900F90DF91CF910895CF93EA
S1130230DF9300D01F92CDB7DEB790E299836A8333
S11302407B839E012F5F3F4F43E063E09CDF0F9071
S11302500F900F90DF91CF910895CF93DF9300D04B
S11302601F92CDB7DEB792E299836A837B839E01A6
S11302702F5F3F4F43E063E086DF0F900F900F90B6
S1130280DF91CF9108951F93CF93DF9300D01F92F6
S1130290CDB7DEB7182FCB01BA0121E73DE34AE51C
S11302A050E40E9400180E94AB178EE189836A8390
S11302B07B839E012F5F3F4F43E064E0812F63DF28
S11302C00F900F900F90DF91CF911F910895CF93CE
S11302D0DF9300D01F92CDB7DEB79BE099836A838A
S11302E07B839E012F5F3F4F43E063E04CDF0F9021
S11302F00F900F90DF91CF910895CF93DF9300D0AB
S11303001F92CDB7DEB792E199836A837B839E0106
S11303102F5F3F4F43E063E036DF0F900F900F9065
S1130320DF91CF910895CF93DF9300D01F92CDB783
S1130330DEB791E199836A837B839E012F5F3F4FF0
S113034043E063E020DF0F900F900F90DF91CF9197
S11303500895CF93DF931F92CDB7DEB719829E0124
S11303602F5F3F4F40E065E08EEF0DDF0F90DF9190
S1130370CF91089560E08EEF47DF6FEF73E08EEF6B
S11303806CDF66E970E08EEF52DF66E470E08EEFBA
S11303909EDF67E070E08EEFB0DF64E070E08EEF28
S11303A0C2CF08958CB580688CBD8CB580648CBD3B
S11303B008958EBD0DB407FEFDCF8EB5089587E474
S11303C084B9089580E18093C100089588E0809302
S11303D0C10008951092C5001092C40086E0809375
S11303E0C20080E18093C1000895E0ECF0E09081C8
S11303F095FFFDCF8093C600089540E050E066E18C
S113040073E480E040DF40E050E066E173E483E0C1
S11304103ADF40E050E066E173E486E034DF40E038
S113042050E066E173E489E02EDF40E050E066E1ED
S113043073E48CE028DF40E050E066E173E48FE091
S113044022DF40E050E064EB72E481E01CDF40E036
S113045050E064EB72E484E016DF40E050E064EBCB
S113046072E487E010DF40E050E062E573E48AE084
S11304700ADF40E050E062E573E48DE004DF40E031
S113048050E062E573E480E1FEDE40E050E066E6C1
S113049073E482E0F8DE40E050E066E673E485E071
S11304A0F2DE40E050E066E673E488E0ECDE40E033
S11304B050E06CE872E48BE0E6DE40E050E06CE88B
S11304C072E48EE0E0DE40E050E06CE872E481E14A
S11304D0DADE3FCF089540E050E069E173E486E05E
S11304E0D2DE40E050E068EB72E487E0CCDE40E02E
S11304F050E063E673E488E0C6DE40E050E063E188
S113050073E489E0C0DE40E050E060E773E48AE031
S1130510BADE40E050E068E772E48BE0B4DE40E02D
S113052050E066E173E483E0AEDE40E050E060E872
S113053072E484E0A8DE40E050E06DE673E485E018
S1130540A2DE40E050E066E173E48CE09CDE40E033
S113055050E060E573E48DE096DE40E050E062E94F
S113056072E48EE090DE40E050E063E173E480E00A
S11305708ADE40E050E068EB72E481E084DE40E033
S113058050E063E673E482E07EDE40E050E069E13F
S113059073E48FE078DE40E050E060E773E480E1EC
S11305A072DE40E050E068E772E481E16CDE2FE740
S11305B08AE196E0215080409040E1F700C00000BD
S11305C0C8CE089540E050E063E173E486E05BDE6A
S11305D040E050E06EEA72E487E055DE40E050E02F
S11305E06DE673E488E04FDE40E050E06FE073E4D2
S11305F089E049DE40E050E06BE673E48AE043DEE4
S113060040E050E064E972E48BE03DDE40E050E01D
S11306106EE173E483E037DE40E050E06CE872E4BE
S113062084E031DE40E050E06CE673E485E02BDEEC
S113063040E050E06EE173E48CE025DE40E050E001
S11306406FE473E48DE01FDE40E050E064E972E49F
S11306508EE019DE40E050E06FE073E480E013DEEA
S113066040E050E062EC72E481E00DDE40E050E0F6
S113067069E573E482E007DE40E050E063E173E49F
S11306808FE001DE40E050E060E773E480E1FBDDF1
S113069040E050E060E772E481E1F5DD2FE78AE1B4
S11306A096E0215080409040E1F700C0000051CE18
S11306B0089540E050E063E173E486E0E4DD40E067
S11306C050E06EEA72E487E0DEDD40E050E06DE683
S11306D073E488E0D8DD40E050E06FE073E489E043
S11306E0D2DD40E050E06BE473E48AE0CCDD40E02E
S11306F050E066EA72E48BE0C6DD40E050E06EE173
S113070073E483E0C0DD40E050E06AEB72E484E02F
S1130710BADD40E050E062E673E485E0B4DD40E039
S113072050E06EE173E48CE0AEDD40E050E06FE455
S113073073E48DE0A8DD40E050E064E972E48EE00B
S1130740A2DD40E050E06FE073E480E09CDD40E037
S113075050E062EC72E481E096DD40E050E069E54F
S113076073E482E090DD40E050E063E173E48FE005
S11307708ADD40E050E065E573E480E184DD40E03B
S113078050E06CE772E481E17EDD2FE78AE196E0D8
S1130790215080409040E1F700C00000DACD089578
S11307A040E050E063E173E486E06DDD40E050E05A
S11307B060E772E487E067DD40E050E060E773E4FF
S11307C088E061DD40E050E06FE073E489E05BDDE8
S11307D040E050E06BE473E48AE055DD40E050E033
S11307E066EA72E48BE04FDD40E050E06EE173E4D2
S11307F083E049DD40E050E06AEB72E484E043DDED
S113080040E050E062E673E485E03DDD40E050E026
S11308106EE173E48CE037DD40E050E06AE673E4B7
S11308208DE031DD40E050E060E872E48EE02BDDE5
S113083040E050E06FE073E480E025DD40E050E00C
S113084060E772E481E01FDD40E050E062E673E4BB
S113085082E019DD40E050E063E173E48FE013DDF2
S113086040E050E065E573E480E10DDD40E050E0F8
S11308706CE772E481E107DD2FE78AE196E021501D
S113088080409040E1F700C0000063CD089540E04F
S113089050E069E173E486E0F6DC40E050E060E7B4
S11308A072E487E0F0DC40E050E06EE673E488E058
S11308B0EADC40E050E063E173E489E0E4DC40E03A
S11308C050E060E573E48AE0DEDC40E050E062E999
S11308D072E48BE0D8DC40E050E066E173E483E04E
S11308E0D2DC40E050E068EB72E484E0CCDC40E031
S11308F050E063E673E485E0C6DC40E050E066E186
S113090073E48CE0C0DC40E050E06BE673E48DE01F
S1130910BADC40E050E06CE772E48EE0B4DC40E026
S113092050E063E173E480E0AEDC40E050E060E777
S113093072E481E0A8DC40E050E06EE673E482E01B
S1130940A2DC40E050E069E173E48FE09CDC40E02D
S113095050E060E573E480E196DC40E050E062E959
S113096072E481E190DC2FE78AE196E02150804037
S11309709040E1F700C00000ECCC089540E050E066
S11309806DE173E486E07FDC40E050E060E772E410
S113099087E079DC40E050E062E673E488E073DCF1
S11309A040E050E069E173E489E06DDC40E050E050
S11309B065E573E48AE067DC40E050E06CE772E4EC
S11309C08BE061DC40E050E06EE073E483E05BDCEC
S11309D040E050E06AEB72E484E055DC40E050E033
S11309E062E673E485E04FDC40E050E06EE073E4DF
S11309F08CE049DC40E050E06BE673E48DE043DCDE
S1130A0040E050E060E872E48EE03DDC40E050E01D
S1130A1069E173E480E037DC40E050E060E772E4D1
S1130A2081E031DC40E050E060E773E482E02BDCFD
S1130A3040E050E06DE173E48FE025DC40E050E0FD
S1130A406BE473E480E11FDC40E050E066EA72E4AA
S1130A5081E119DC2FE78AE196E021508040904043
S1130A60E1F700C0000075CC089540E050E06DE16E
S1130A7073E486E008DC40E050E062EC72E487E076
S1130A8002DC40E050E069E573E488E0FCDB40E030
S1130A9050E069E173E489E0F6DB40E050E065E5AD
S1130AA073E48AE0F0DB40E050E06CE772E48BE052
S1130AB0EADB40E050E06EE073E483E0E4DB40E036
S1130AC050E06AEB72E484E0DEDB40E050E062E692
S1130AD073E485E0D8DB40E050E06EE073E48CE042
S1130AE0D2DB40E050E06FE473E48DE0CCDB40E027
S1130AF050E064E972E48EE0C6DB40E050E069E176
S1130B0073E480E0C0DB40E050E06EEA72E481E030
S1130B10BADB40E050E06DE673E482E0B4DB40E031
S1130B2050E06DE173E48FE0AEDB40E050E06BE455
S1130B3073E480E1A8DB40E050E066EA72E481E11E
S1130B40A2DB2FE78AE196E0215080409040E1F754
S1130B5000C00000FECB089540E050E06DE173E476
S1130B6086E091DB40E050E062EC72E487E08BDBEE
S1130B7040E050E069E573E488E085DB40E050E064
S1130B8069E173E489E07FDB40E050E060E773E40F
S1130B908AE079DB40E050E060E772E48BE073DBED
S1130BA040E050E06EE073E483E06DDB40E050E051
S1130BB062E872E484E067DB40E050E06CE673E4F2
S1130BC085E061DB40E050E06EE073E48CE05BDBE9
S1130BD040E050E06FE473E48DE055DB40E050E02A
S1130BE064E972E48EE04FDB40E050E069E173E4D5
S1130BF080E049DB40E050E06EEA72E481E043DBF0
S1130C0040E050E06DE673E482E03DDB40E050E01C
S1130C106DE173E48FE037DB40E050E060E773E4BC
S1130C2080E131DB40E050E064E972E481E12BDBF8
S1130C302FE78AE196E0215080409040E1F700C020
S1130C40000087CB089540E050E066E173E486E05D
S1130C501ADB40E050E06CEB72E487E014DB40E028
S1130C6050E06FE573E488E00EDB40E050E063E1C0
S1130C7073E489E008DB40E050E060E773E48AE075
S1130C8002DB40E050E068E772E48BE0FCDA40E02D
S1130C9050E066E173E483E0F6DA40E050E060E8B7
S1130CA072E484E0F0DA40E050E06DE673E485E05D
S1130CB0EADA40E050E066E173E48CE0E4DA40E034
S1130CC050E060E573E48DE0DEDA40E050E062E994
S1130CD072E48EE0D8DA40E050E063E173E480E04F
S1130CE0D2DA40E050E068EB72E481E0CCDA40E034
S1130CF050E063E673E482E0C6DA40E050E069E184
S1130D0073E48FE0C0DA40E050E060E773E480E130
S1130D10BADA40E050E068E772E481E1B4DA2FE740
S1130D208AE196E0215080409040E1F700C0000045
S1130D3010CB089540E050E063E173E486E0A3DA69
S1130D4040E050E06EEA72E487E09DDA40E050E073
S1130D506DE673E488E097DA40E050E06FE073E416
S1130D6089E091DA40E050E06BE673E48AE08BDAE4
S1130D7040E050E064E972E48BE085DA40E050E062
S1130D806EE173E483E07FDA40E050E06CE872E403
S1130D9084E079DA40E050E06CE673E485E073DAED
S1130DA040E050E06EE173E48CE06DDA40E050E046
S1130DB06FE473E48DE067DA40E050E064E972E4E4
S1130DC08EE061DA40E050E06FE073E480E05BDAEB
S1130DD040E050E062EC72E481E055DA40E050E03B
S1130DE069E573E482E04FDA40E050E063E173E4E4
S1130DF08FE049DA40E050E060E773E480E143DAF1
S1130E0040E050E060E772E481E13DDA2FE78AE1F7
S1130E1096E0215080409040E1F700C0000099CA5C
S1130E20089540E050E063E173E486E02CDA40E0AA
S1130E3050E06EEA72E487E026DA40E050E06DE6C6
S1130E4073E488E020DA40E050E06FE073E489E086
S1130E501ADA40E050E06BE473E48AE014DA40E02C
S1130E6050E066EA72E48BE00EDA40E050E06EE1B6
S1130E7073E483E008DA40E050E06AEB72E484E073
S1130E8002DA40E050E062E673E485E0FCD940E039
S1130E9050E06EE173E48CE0F6D940E050E06FE49A
S1130EA073E48DE0F0D940E050E064E972E48EE050
S1130EB0EAD940E050E06FE073E480E0E4D940E038
S1130EC050E062EC72E481E0DED940E050E069E594
S1130ED073E482E0D8D940E050E063E173E48FE04A
S1130EE0D2D940E050E065E573E480E1CCD940E03C
S1130EF050E06CE772E481E1C6D92FE78AE196E01D
S1130F00215080409040E1F700C0000022CA0895BB
S1130F1040E050E063E173E486E0B5D940E050E09E
S1130F2060E772E487E0AFD940E050E060E773E443
S1130F3088E0A9D940E050E06FE073E489E0A3D9E8
S1130F4040E050E06BE473E48AE09DD940E050E077
S1130F5066EA72E48BE097D940E050E06EE173E416
S1130F6083E091D940E050E06AEB72E484E08BD9ED
S1130F7040E050E062E673E485E085D940E050E06B
S1130F806EE173E48CE07FD940E050E06AE673E4FC
S1130F908DE079D940E050E060E872E48EE073D9E6
S1130FA040E050E06FE073E480E06DD940E050E051
S1130FB060E772E481E067D940E050E062E673E400
S1130FC082E061D940E050E063E173E48FE05BD9F3
S1130FD040E050E065E573E480E155D940E050E03D
S1130FE06CE772E481E14FD92FE78AE196E0215062
S1130FF080409040E1F700C00000ABC9089540E094
S113100050E066E173E486E03ED940E050E06AE9EE
S113101072E487E038D940E050E069E673E488E0A0
S113102032D940E050E063E173E489E02CD940E038
S113103050E060E573E48AE026D940E050E062E9DC
S113104072E48BE020D940E050E066E173E483E091
S11310501AD940E050E068EB72E484E014D940E02F
S113106050E063E673E485E00ED940E050E066E1C9
S113107073E48CE008D940E050E06BE673E48DE063
S113108002D940E050E06CE772E48EE0FCD840E026
S113109050E063E173E480E0F6D840E050E060E7BC
S11310A072E481E0F0D840E050E06EE673E482E060
S11310B0EAD840E050E069E173E48FE0E4D840E02E
S11310C050E060E573E480E1DED840E050E062E99E
S11310D072E481E1D8D82FE78AE196E0215080407C
S11310E09040E1F700C0000034C9089540E050E0AA
S11310F068E173E486E0C7D840E050E060EB72E456
S113110087E0C1D840E050E068E573E488E0BBD8EC
S113111040E050E069E173E489E0B5D840E050E094
S113112065E573E48AE0AFD840E050E06CE772E430
S11311308BE0A9D840E050E06EE073E483E0A3D8EC
S113114040E050E06AEB72E484E09DD840E050E077
S113115062E673E485E097D840E050E06EE073E423
S11311608CE091D840E050E06BE673E48DE08BD8DE
S113117040E050E060E872E48EE085D840E050E062
S113118069E173E480E07FD840E050E060E772E416
S113119081E079D840E050E060E773E482E073D8FE
S11311A040E050E06DE173E48FE06DD840E050E042
S11311B06BE473E480E167D840E050E066EA72E4EF
S11311C081E161D82FE78AE196E021508040904088
S11311D0E1F700C00000BDC8089540E050E068E1B8
S11311E073E486E050D840E050E06EEC72E487E0AF
S11311F04AD840E050E06FE473E488E044D840E02B
S113120050E069E173E489E03ED840E050E065E5F0
S113121073E48AE038D840E050E06CE772E48BE095
S113122032D840E050E06EE073E483E02CD840E034
S113123050E06AEB72E484E026D840E050E062E6D5
S113124073E485E020D840E050E06EE073E48CE085
S11312501AD840E050E06FE473E48DE014D840E025
S113126050E064E972E48EE00ED840E050E069E1B9
S113127073E480E008D840E050E06EEA72E481E074
S113128002D840E050E06DE673E482E00E9443013E
S113129040E050E06DE173E48FE00E94430140E0E0
S11312A050E06BE473E480E10E94430140E050E0CD
S11312B066EA72E481E10E9443012FE78AE196E045
S11312C0215080409040E1F700C0000042C80895DA
S11312D040E050E068E173E486E00E94430140E0AE
S11312E050E06EEC72E487E00E94430140E050E07D
S11312F06FE473E488E00E94430140E050E069E158
S113130073E489E00E94430140E050E060E773E445
S11313108AE00E94430140E050E060E772E48BE021
S11313200E94430140E050E06EE073E483E00E94D9
S1131330430140E050E062E872E484E00E9443012B
S113134040E050E06CE673E485E00E94430140E035
S113135050E06EE073E48CE00E94430140E050E012
S11313606FE473E48DE00E94430140E050E064E9DF
S113137072E48EE00E94430140E050E069E173E4CE
S113138080E00E94430140E050E06EEA72E481E0B4
S11313900E94430140E050E06DE673E482E00E9465
S11313A0430140E050E06DE173E48FE00E944301AB
S11313B040E050E060E773E480E10E94430140E0D4
S11313C050E064E972E481E10E9443012FE78AE17D
S11313D096E0215080409040E1F700C000000C945A
S11313E0A901089575DF2FDCA5DC1BDD91DD07DE87
S11313F07DDEF3CE0895C2DA4ADAD2D95AD9E2D8D8
S11314006AD8AADB32CB089540E050E069E173E486
S113141086E00E94430140E050E068EB72E487E01C
S11314200E94430140E050E063E673E488E00E94D8
S1131430430140E050E066E173E489E00E94430127
S113144040E050E060E773E48AE00E94430140E03A
S113145050E066E872E48BE00E94430140E050E013
S113146066E173E483E00E94430140E050E060E8F9
S113147072E484E00E94430140E050E06DE673E4CE
S113148085E00E94430140E050E066E173E48CE0B3
S11314900E94430140E050E060E573E48DE00E9467
S11314A0430140E050E062E972E48EE00E944301AF
S11314B040E050E063E173E480E00E94430140E0D7
S11314C050E068EB72E481E00E94430140E050E0A8
S11314D063E673E482E00E94430140E050E069E186
S11314E073E48FE00E94430140E050E060E773E45E
S11314F080E10E94430140E050E068E772E481E14A
S11315000E9443012FE78AE196E0215080409040F9
S1131510E1F700C000000C94A901089540E050E0F8
S113152063E173E486E00E94430140E050E06EEA28
S113153072E487E00E94430140E050E06DE673E40A
S113154088E00E94430140E050E064E173E489E0F4
S11315500E94430140E050E06BE673E48AE00E949D
S1131560430140E050E062E972E48BE00E944301F1
S113157040E050E06EE173E483E00E94430140E008
S113158050E06CE872E484E00E94430140E050E0E3
S11315906CE673E485E00E94430140E050E06EE1B4
S11315A073E48CE00E94430140E050E06FE473E494
S11315B08DE00E94430140E050E064E972E48EE073
S11315C00E94430140E050E06FE073E480E00E9439
S11315D0430140E050E062EC72E481E00E94430188
S11315E040E050E069E573E482E00E94430140E09A
S11315F050E063E173E48FE00E94430140E050E077
S113160060E773E480E10E94430140E050E060E75A
S113161072E481E10E9443012FE78AE196E02150C0
S113162080409040E1F700C000000C94A9010895A7
S113163040E050E063E173E486E00E94430140E04F
S113164050E06EEA72E487E00E94430140E050E01B
S11316506DE673E488E00E94430140E050E064E1F9
S113166073E489E00E94430140E050E065E473E4E0
S11316708AE00E94430140E050E06AEB72E48BE0B0
S11316800E94430140E050E06EE173E483E00E9475
S1131690430140E050E06AEB72E484E00E944301BD
S11316A040E050E062E673E485E00E94430140E0DC
S11316B050E06EE173E48CE00E94430140E050E0AE
S11316C06FE473E48DE00E94430140E050E064E97C
S11316D072E48EE00E94430140E050E06FE073E466
S11316E080E00E94430140E050E062EC72E481E05B
S11316F00E94430140E050E069E573E482E00E9407
S1131700430140E050E063E173E48FE00E94430151
S113171040E050E065E573E480E10E94430140E06D
S113172050E06CE772E481E10E9443012FE78AE113
S113173096E0215080409040E1F700C000000C94F6
S1131740A901089540E050E063E173E486E00E945B
S1131750430140E050E060E772E487E00E94430107
S113176040E050E060E773E488E00E94430140E019
S113177050E064E173E489E00E94430140E050E0FA
S113178065E473E48AE00E94430140E050E06AEBC0
S113179072E48BE00E94430140E050E06EE173E4A8
S11317A083E00E94430140E050E06AEB72E484E08D
S11317B00E94430140E050E062E673E485E00E9449
S11317C0430140E050E06EE173E48CE00E94430189
S11317D040E050E06AE673E48DE00E94430140E09B
S11317E050E060E872E48EE00E94430140E050E083
S11317F06FE073E480E00E94430140E050E060E762
S113180072E481E00E94430140E050E062E673E448
S113181082E00E94430140E050E063E173E48FE022
S11318200E94430140E050E065E573E480E10E94DA
S1131830430140E050E06CE772E481E10E9443011F
S11318402FE78AE196E0215080409040E1F700C004
S113185000000C94A901089540E050E069E173E4AC
S113186086E00E94430140E050E060E772E487E0D4
S11318700E94430140E050E06EE673E488E00E9479
S1131880430140E050E066E173E489E00E944301D3
S113189040E050E06EE473E48AE00E94430140E0DB
S11318A050E06AE972E48BE00E94430140E050E0BA
S11318B066E173E483E00E94430140E050E068EB9A
S11318C072E484E00E94430140E050E063E673E484
S11318D085E00E94430140E050E066E173E48CE05F
S11318E00E94430140E050E06BE673E48DE00E9407
S11318F0430140E050E06CE772E48EE00E94430153
S113190040E050E063E173E480E00E94430140E082
S113191050E060E772E481E00E94430140E050E05F
S11319206EE673E482E00E94430140E050E069E126
S113193073E48FE00E94430140E050E060E573E40B
S113194080E10E94430140E050E062E972E481E1F9
S11319500E9443012FE78AE196E0215080409040A5
S1131960E1F700C000000C94A901089540E050E0A4
S11319706DE173E486E00E94430140E050E060E7DB
S113198072E487E00E94430140E050E062E673E4C1
S113199088E00E94430140E050E069E173E489E09B
S11319A00E94430140E050E065E573E48AE00E9450
S11319B0430140E050E06CE772E48BE00E94430195
S11319C040E050E06EE073E483E00E94430140E0B5
S11319D050E06AEB72E484E00E94430140E050E08E
S11319E062E673E485E00E94430140E050E06EE06B
S11319F073E48CE00E94430140E050E06BE673E442
S1131A008DE00E94430140E050E060E872E48EE023
S1131A100E94430140E050E069E173E480E00E94E9
S1131A20430140E050E060E772E481E00E9443013A
S1131A3040E050E060E773E482E00E94430140E04C
S1131A4050E06DE173E48FE00E94430140E050E018
S1131A506BE473E480E10E94430140E050E066EAF5
S1131A6072E481E10E9443012FE78AE196E021506C
S1131A7080409040E1F700C000000C94A901089553
S1131A8040E050E06DE173E486E00E94430140E0F1
S1131A9050E062EC72E487E00E94430140E050E0D1
S1131AA069E573E488E00E94430140E050E069E1A5
S1131AB073E489E00E94430140E050E065E573E48B
S1131AC08AE00E94430140E050E06CE772E48BE05E
S1131AD00E94430140E050E06EE073E483E00E9422
S1131AE0430140E050E06AEB72E484E00E94430169
S1131AF040E050E062E673E485E00E94430140E088
S1131B0050E06EE073E48CE00E94430140E050E05A
S1131B106FE473E48DE00E94430140E050E064E927
S1131B2072E48EE00E94430140E050E069E173E416
S1131B3080E00E94430140E050E06EEA72E481E0FC
S1131B400E94430140E050E06DE673E482E00E94AD
S1131B50430140E050E06DE173E48FE00E944301F3
S1131B6040E050E06BE473E480E10E94430140E014
S1131B7050E066EA72E481E10E9443012FE78AE1C2
S1131B8096E0215080409040E1F700C000000C94A2
S1131B90A901089540E050E06DE173E486E00E94FD
S1131BA0430140E050E062EC72E487E00E944301AC
S1131BB040E050E069E573E488E00E94430140E0BE
S1131BC050E069E173E489E00E94430140E050E0A1
S1131BD060E773E48AE00E94430140E050E060E77C
S1131BE072E48BE00E94430140E050E06EE073E455
S1131BF083E00E94430140E050E062E872E484E044
S1131C000E94430140E050E06CE673E485E00E94EA
S1131C10430140E050E06EE073E48CE00E94430135
S1131C2040E050E06FE473E48DE00E94430140E043
S1131C3050E064E972E48EE00E94430140E050E029
S1131C4069E173E480E00E94430140E050E06EEA01
S1131C5072E481E00E94430140E050E06DE673E4E9
S1131C6082E00E94430140E050E06DE173E48FE0C4
S1131C700E94430140E050E060E773E480E10E9489
S1131C80430140E050E064E972E481E10E944301D1
S1131C902FE78AE196E0215080409040E1F700C0B0
S1131CA000000C94A901089540E050E066E173E45B
S1131CB086E00E94430140E050E06CEB72E487E070
S1131CC00E94430140E050E06FE573E488E00E9425
S1131CD0430140E050E066E173E489E00E9443017F
S1131CE040E050E060E773E48AE00E94430140E092
S1131CF050E066E872E48BE00E94430140E050E06B
S1131D0066E173E483E00E94430140E050E060E850
S1131D1072E484E00E94430140E050E06DE673E425
S1131D2085E00E94430140E050E066E173E48CE00A
S1131D300E94430140E050E060E573E48DE00E94BE
S1131D40430140E050E062E972E48EE00E94430106
S1131D5040E050E063E173E480E00E94430140E02E
S1131D6050E068EB72E481E00E94430140E050E0FF
S1131D7063E673E482E00E94430140E050E069E1DD
S1131D8073E48FE00E94430140E050E060E773E4B5
S1131D9080E10E94430140E050E068E772E481E1A1
S1131DA00E9443012FE78AE196E021508040904051
S1131DB0E1F700C000000C94A901089540E050E050
S1131DC063E173E486E00E94430140E050E06EEA80
S1131DD072E487E00E94430140E050E06DE673E462
S1131DE088E00E94430140E050E06FE073E489E042
S1131DF00E94430140E050E06BE673E48AE00E94F5
S1131E00430140E050E064E972E48BE00E94430146
S1131E1040E050E06EE173E483E00E94430140E05F
S1131E2050E06CE872E484E00E94430140E050E03A
S1131E306CE673E485E00E94430140E050E06EE10B
S1131E4073E48CE00E94430140E050E06FE473E4EB
S1131E508DE00E94430140E050E064E972E48EE0CA
S1131E600E94430140E050E06FE073E480E00E9490
S1131E70430140E050E062EC72E481E00E944301DF
S1131E8040E050E069E573E482E00E94430140E0F1
S1131E9050E063E173E48FE00E94430140E050E0CE
S1131EA060E773E480E10E94430140E050E060E7B2
S1131EB072E481E10E9443012FE78AE196E0215018
S1131EC080409040E1F700C000000C94A9010895FF
S1131ED040E050E063E173E486E00E94430140E0A7
S1131EE050E06EEA72E487E00E94430140E050E073
S1131EF06DE673E488E00E94430140E050E06FE047
S1131F0073E489E00E94430140E050E06BE473E431
S1131F108AE00E94430140E050E066EA72E48BE00C
S1131F200E94430140E050E06EE173E483E00E94CC
S1131F30430140E050E06AEB72E484E00E94430114
S1131F4040E050E062E673E485E00E94430140E033
S1131F5050E06EE173E48CE00E94430140E050E005
S1131F606FE473E48DE00E94430140E050E064E9D3
S1131F7072E48EE00E94430140E050E06FE073E4BD
S1131F8080E00E94430140E050E062EC72E481E0B2
S1131F900E94430140E050E069E573E482E00E945E
S1131FA0430140E050E063E173E48FE00E944301A9
S1131FB040E050E065E573E480E10E94430140E0C5
S1131FC050E06CE772E481E10E9443012FE78AE16B
S1131FD096E0215080409040E1F700C000000C944E
S1131FE0A901089540E050E063E173E486E00E94B3
S1131FF0430140E050E060E772E487E00E9443015F
S113200040E050E060E773E488E00E94430140E070
S113201050E06FE073E489E00E94430140E050E047
S11320206BE473E48AE00E94430140E050E066EA16
S113203072E48BE00E94430140E050E06EE173E4FF
S113204083E00E94430140E050E06AEB72E484E0E4
S11320500E94430140E050E062E673E485E00E94A0
S1132060430140E050E06EE173E48CE00E944301E0
S113207040E050E06AE673E48DE00E94430140E0F2
S113208050E060E872E48EE00E94430140E050E0DA
S11320906FE073E480E00E94430140E050E060E7B9
S11320A072E481E00E94430140E050E062E673E4A0
S11320B082E00E94430140E050E063E173E48FE07A
S11320C00E94430140E050E065E573E480E10E9432
S11320D0430140E050E06CE772E481E10E94430177
S11320E02FE78AE196E0215080409040E1F700C05C
S11320F000000C94A901089540E050E066E173E407
S113210086E00E94430140E050E068E872E487E022
S11321100E94430140E050E069E673E488E00E94D5
S1132120430140E050E066E173E489E00E9443012A
S113213040E050E06EE473E48AE00E94430140E032
S113214050E06AE972E48BE00E94430140E050E011
S113215066E173E483E00E94430140E050E068EBF1
S113216072E484E00E94430140E050E063E673E4DB
S113217085E00E94430140E050E066E173E48CE0B6
S11321800E94430140E050E06BE673E48DE00E945E
S1132190430140E050E06CE772E48EE00E944301AA
S11321A040E050E063E173E480E00E94430140E0DA
S11321B050E060E772E481E00E94430140E050E0B7
S11321C06EE673E482E00E94430140E050E069E17E
S11321D073E48FE00E94430140E050E060E573E463
S11321E080E10E94430140E050E062E972E481E151
S11321F00E9443012FE78AE196E0215080409040FD
S1132200E1F700C000000C94A901089540E050E0FB
S113221068E173E486E00E94430140E050E068E82E
S113222072E487E00E94430140E050E068E573E413
S113223088E00E94430140E050E06EE173E489E0ED
S11322400E94430140E050E060E573E48AE00E94AC
S1132250430140E050E062E972E48BE00E944301F4
S113226040E050E06EE073E483E00E94430140E00C
S113227050E06AEB72E484E00E94430140E050E0E5
S113228062E673E485E00E94430140E050E06EE0C2
S113229073E48CE00E94430140E050E06BE673E499
S11322A08DE00E94430140E050E060E872E48EE07B
S11322B00E94430140E050E069E173E480E00E9441
S11322C0430140E050E060E772E481E00E94430192
S11322D040E050E060E773E482E00E94430140E0A4
S11322E050E06DE173E48FE00E94430140E050E070
S11322F06BE473E480E10E94430140E050E066EA4D
S113230072E481E10E9443012FE78AE196E02150C3
S113231080409040E1F700C000000C94A9010895AA
S113232040E050E068E173E486E00E94430140E04D
S113233050E06EEC72E487E00E94430140E050E01C
S11323406FE473E488E00E94430140E050E06EE1F2
S113235073E489E00E94430140E050E060E573E4E7
S11323608AE00E94430140E050E062E972E48BE0BD
S11323700E94430140E050E06EE073E483E00E9479
S1132380430140E050E06AEB72E484E00E944301C0
S113239040E050E062E673E485E00E94430140E0DF
S11323A050E06EE073E48CE00E94430140E050E0B2
S11323B06FE473E48DE00E94430140E050E064E97F
S11323C072E48EE00E94430140E050E069E173E46E
S11323D080E00E94430140E050E06EEA72E481E054
S11323E00E94430140E050E06DE673E482E00E9405
S11323F0430140E050E06DE173E48FE00E9443014B
S113240040E050E06BE473E480E10E94430140E06B
S113241050E066EA72E481E10E9443012FE78AE119
S113242096E0215080409040E1F700C000000C94F9
S1132430A901089540E050E068E173E486E00E9459
S1132440430140E050E06EEC72E487E00E944301F7
S113245040E050E06FE473E488E00E94430140E010
S113246050E06EE173E489E00E94430140E050E0F3
S11324706BE673E48AE00E94430140E050E06CE7BD
S113248072E48BE00E94430140E050E06EE073E4AC
S113249083E00E94430140E050E062E872E484E09B
S11324A00E94430140E050E06CE673E485E00E9442
S11324B0430140E050E06EE073E48CE00E9443018D
S11324C040E050E06FE473E48DE00E94430140E09B
S11324D050E064E972E48EE00E94430140E050E081
S11324E069E173E480E00E94430140E050E06EEA59
S11324F072E481E00E94430140E050E06DE673E441
S113250082E00E94430140E050E06DE173E48FE01B
S11325100E94430140E050E060E773E480E10E94E0
S1132520430140E050E064E972E481E10E94430128
S11325302FE78AE196E0215080409040E1F700C007
S113254000000C94A901089525DB0E94040A0E944E
S11325508E0A6ED8F7D880D909DA92CA08956ADF4C
S1132560A3DB2CDCB5DC3EDDC7DD50DED9CE08951F
S113257040E050E066E173E486E00E94430140E0FD
S113258050E064EB72E487E00E94430140E050E0D5
S11325906CE573E488E00E94430140E050E065E2AA
S11325A073E489E00E94430140E050E06DE573E488
S11325B08AE00E94430140E050E064EA72E48BE068
S11325C00E94430140E050E064E273E483E00E942F
S11325D0430140E050E062E972E484E00E94430178
S11325E040E050E063E673E485E00E94430140E08C
S11325F050E066E173E48CE00E94430140E050E067
S113260062E573E48DE00E94430140E050E060EA3B
S113261072E48EE00E94430140E050E066E173E41E
S113262080E00E94430140E050E064EB72E481E00A
S11326300E94430140E050E06CE573E482E00E94B4
S1132640430140E050E065E273E48FE00E944301FF
S113265040E050E06DE573E480E10E94430140E016
S113266050E064EA72E481E10E9443012FE78AE1C9
S113267096E0215080409040E1F700C000000C94A7
S1132680A901089540E050E066E173E486E00E9409
S1132690430140E050E064EB72E487E00E944301B0
S11326A040E050E06CE573E488E00E94430140E0C0
S11326B050E062E373E489E00E94430140E050E0AB
S11326C063E573E48AE00E94430140E050E06EEB6E
S11326D072E48BE00E94430140E050E060E373E465
S11326E083E00E94430140E050E066E972E484E044
S11326F00E94430140E050E060E673E485E00E94FC
S1132700430140E050E066E173E48CE00E94430141
S113271040E050E062E573E48DE00E94430140E054
S113272050E060EA72E48EE00E94430140E050E031
S113273066E173E480E00E94430140E050E064EB12
S113274072E481E00E94430140E050E06CE573E4F0
S113275082E00E94430140E050E062E373E48FE0D2
S11327600E94430140E050E063E573E480E10E948D
S1132770430140E050E06EEB72E481E10E944301CA
S11327802FE78AE196E0215080409040E1F700C0B5
S113279000000C94A901089540E050E066E173E460
S11327A086E00E94430140E050E064EB72E487E07D
S11327B00E94430140E050E06CE573E488E00E942D
S11327C0430140E050E062E373E489E00E94430186
S11327D040E050E067E473E48AE00E94430140E093
S11327E050E06CEC72E48BE00E94430140E050E066
S11327F060E373E483E00E94430140E050E062EB55
S113280072E484E00E94430140E050E069E573E42F
S113281085E00E94430140E050E066E173E48CE00F
S11328200E94430140E050E062E573E48DE00E94C1
S1132830430140E050E060EA72E48EE00E9443010C
S113284040E050E066E173E480E00E94430140E030
S113285050E064EB72E481E00E94430140E050E008
S11328606CE573E482E00E94430140E050E062E3DF
S113287073E48FE00E94430140E050E067E473E4B6
S113288080E10E94430140E050E06CEC72E481E19D
S11328900E9443012FE78AE196E021508040904056
S11328A0E1F700C000000C94A901089540E050E055
S11328B066E173E486E00E94430140E050E06CE886
S11328C072E487E00E94430140E050E06CE573E469
S11328D088E00E94430140E050E062E373E489E051
S11328E00E94430140E050E067E473E48AE00E9400
S11328F0430140E050E06CEC72E48BE00E94430141
S113290040E050E060E373E483E00E94430140E070
S113291050E062EB72E484E00E94430140E050E046
S113292069E573E485E00E94430140E050E066E11C
S113293073E48CE00E94430140E050E066E673E4F7
S11329408DE00E94430140E050E060EA72E48EE0D2
S11329500E94430140E050E066E173E480E00E949D
S1132960430140E050E06CE872E481E00E944301DE
S113297040E050E06CE573E482E00E94430140E0F3
S113298050E062E373E48FE00E94430140E050E0D2
S113299067E473E480E10E94430140E050E06CECA2
S11329A072E481E10E9443012FE78AE196E021501D
S11329B080409040E1F700C000000C94A901089504
S11329C040E050E066E173E486E00E94430140E0A9
S11329D050E06CE872E487E00E94430140E050E07C
S11329E06CE573E488E00E94430140E050E065E256
S11329F073E489E00E94430140E050E062E573E43F
S1132A008AE00E94430140E050E06AEA72E48BE00D
S1132A100E94430140E050E061E273E483E00E94DD
S1132A20430140E050E06CEA72E484E00E94430118
S1132A3040E050E06EE573E485E00E94430140E02D
S1132A4050E066E173E48CE00E94430140E050E012
S1132A5066E673E48DE00E94430140E050E060EAE2
S1132A6072E48EE00E94430140E050E066E173E4CA
S1132A7080E00E94430140E050E06CE872E481E0B1
S1132A800E94430140E050E06CE573E482E00E9460
S1132A90430140E050E065E273E48FE00E944301AB
S1132AA040E050E062E573E480E10E94430140E0CD
S1132AB050E06AEA72E481E10E9443012FE78AE16F
S1132AC096E0215080409040E1F700C000000C9453
S1132AD0A901089540E050E066E173E486E00E94B5
S1132AE0430140E050E06CE872E487E00E94430157
S1132AF040E050E06CE573E488E00E94430140E06C
S1132B0050E066E173E489E00E94430140E050E054
S1132B1063E573E48AE00E94430140E050E064EA24
S1132B2072E48BE00E94430140E050E066E173E40C
S1132B3083E00E94430140E050E062EB72E484E0F1
S1132B400E94430140E050E06AE573E485E00E949E
S1132B50430140E050E066E173E48CE00E944301ED
S1132B6040E050E066E673E48DE00E94430140E0FB
S1132B7050E060EA72E48EE00E94430140E050E0DD
S1132B8066E173E480E00E94430140E050E06CE8B9
S1132B9072E481E00E94430140E050E06CE573E49C
S1132BA082E00E94430140E050E066E173E48FE07C
S1132BB00E94430140E050E063E573E480E10E9439
S1132BC0430140E050E064EA72E481E10E94430181
S1132BD02FE78AE196E0215080409040E1F700C061
S1132BE000000C94A901089540E050E066E173E40C
S1132BF086E00E94430140E050E064EB72E487E029
S1132C000E94430140E050E06CE573E488E00E94D8
S1132C10430140E050E066E173E489E00E9443012F
S1132C2040E050E063E573E48AE00E94430140E041
S1132C3050E064EA72E48BE00E94430140E050E01B
S1132C4066E173E483E00E94430140E050E062EBFC
S1132C5072E484E00E94430140E050E06AE573E4DA
S1132C6085E00E94430140E050E066E173E48CE0BB
S1132C700E94430140E050E062E573E48DE00E946D
S1132C80430140E050E060EA72E48EE00E944301B8
S1132C9040E050E066E173E480E00E94430140E0DC
S1132CA050E064EB72E481E00E94430140E050E0B4
S1132CB06CE573E482E00E94430140E050E066E189
S1132CC073E48FE00E94430140E050E063E573E465
S1132CD080E10E94430140E050E064EA72E481E153
S1132CE00E9443012FE78AE196E021508040904002
S1132CF0E1F700C000000C94A901089540E050E001
S1132D0066E173E486E00E94430140E050E064EB36
S1132D1072E487E00E94430140E050E06CE573E414
S1132D2088E00E94430140E050E066E173E489E0FA
S1132D300E94430140E050E062E673E48AE00E94AE
S1132D40430140E050E066E972E48BE00E944301F5
S1132D5040E050E066E173E483E00E94430140E018
S1132D6050E064E972E484E00E94430140E050E0F2
S1132D7061E673E485E00E94430140E050E066E1CF
S1132D8073E48CE00E94430140E050E062E573E4A8
S1132D908DE00E94430140E050E060EA72E48EE07E
S1132DA00E94430140E050E066E173E480E00E9449
S1132DB0430140E050E064EB72E481E00E9443018F
S1132DC040E050E06CE573E482E00E94430140E09F
S1132DD050E066E173E48FE00E94430140E050E07C
S1132DE062E673E480E10E94430140E050E066E95A
S1132DF072E481E10E9443012FE78AE196E02150C9
S1132E0080409040E1F700C000000C94A9010895AF
S1132E10EBDE60DED5DD4ADDBFDC34DCA9DB6ECF62
S1132E200895E2DE6BDFA4DB2DDCB6DC3FDDC8DD1C
S1132E3051CE08958EB590910101992331F080ED22
S1132E400E94D90110920001089590E0FC0131978D
S1132E50E730F10508F04BC0EA5BFF4F5CC18FEF30
S1132E600E94D90181E0809301010E94F20910922D
S1132E7001013DC08FEF0E94D90181E080930101DF
S1132E800E94FB091092010132C08FEF0E94D90108
S1132E9081E080930101C5DF1092010128C08FEF0A
S1132EA00E94D90181E080930101B2DF10920101F7
S1132EB01EC08FEF0E94D90181E08093010144DBA1
S1132EC01092010114C08FEF0E94D90181E0809318
S1132ED0010145DB109201010AC08FEF0E94D90164
S1132EE081E0809301010E94FD0110920101109282
S1132EF0000108958093000108951F920F920FB668
S1132F000F9211240BB60F922F933F934F935F931D
S1132F106F937F938F939F93AF93BF93EF93FF939D
S1132F2080910001811104C081E08093000182DF5F
S1132F30FF91EF91BF91AF919F918F917F916F918D
S1132F405F914F913F912F910F900BBE0F900FBE49
S1132F500F901F90189533D088F09F5790F0B92F99
S1132F609927B751A0F0D1F0660F771F881F991FDA
S1132F701AF0BA95C9F712C0B13081F03AD0B1E075
S1132F80089537C0672F782F8827B85F39F0B93F85
S1132F90CCF3869577956795B395D9F73EF49095DC
S1132FA08095709561957F4F8F4F9F4F089557FD82
S1132FB09058440F551F59F05F3F71F04795880FA3
S1132FC097FB991F61F09F3F79F08795089512163A
S1132FD013061406551FF2CF4695F1DF08C01616E6
S1132FE017061806991FF1CF869571056105089497
S1132FF00895E894BB2766277727CB0197F90895AE
S11330000BD078C069D028F06ED018F0952309F061
S11330105AC05FC01124EECFCADFA0F3959FD1F34D
S1133020950F50E0551F629FF001729FBB27F00D72
S1133030B11D639FAA27F00DB11DAA1F649F6627C7
S1133040B00DA11D661F829F2227B00DA11D621F16
S1133050739FB00DA11D621F839FA00D611D221FD0
S1133060749F3327A00D611D231F849F600D211DB4
S1133070822F762F6A2F11249F5750408AF0E1F057
S113308088234AF0EE0FFF1FBB1F661F771F881FA0
S113309091505040A9F79E3F510570F014C0AACF3B
S11330A05F3FECF3983EDCF3869577956795B7958B
S11330B0F795E7959F5FC1F7FE2B880F911D9695B5
S11330C0879597F9089597F99F6780E870E060E025
S11330D008959FEF80EC089500240A9416161706AD
S11330E018060906089500240A94121613061406F5
S11330F005060895092E0394000C11F4882352F058
S1133100BB0F40F4BF2B11F460FF04C06F5F7F4F0F
S11331108F4F9F4F0895EE0FFF1F0590F491E02D00
S10931200994F894FFCFAE
S9030000FC
