S00C00006D61696E2E7372656373
S11300004CC000005BC0000059C0000057C0000095
S113001055C0000053C0000051C000004FC0000094
S11300204DC000004BC0000049C0000047C00000A4
S113003045C0000043C0000041C000003FC00000B4
S11300403DC000003BC0000039C000000C94BA0958
S113005035C0000033C0000031C000002FC00000D4
S11300602DC000002BC0000029C0000027C00000E4
S113007025C0000023C0000021C000001FC00000F4
S11300801DC000001BC0000019C0000081098C09BC
S113009093099A09A109A809AF0911241FBECFEF3A
S11300A0D0E4DEBFCDBF21E0A0E0B1E001C01D92ED
S11300B0A230B207E1F722D00C94CE0AA1CF009768
S11300C0B9F0289A2FEF39E648E1215030404040FA
S11300D0E1F700C0000015B82FEF39E648E12150E0
S11300E030404040E1F700C000000197009749F715
S11300F00895DDD0E9D0F3D0CEC00895FADF2FE71C
S11301008AE196E0215080409040E1F700C0000071
S1130110F9D02FE78AE196E0215080409040E1F742
S113012000C0000081E090E0CADFFCCFDF92EF92D4
S1130130FF920F931F93CF93DF93C82FE62ED42EF5
S1130140022F132FC8D0E0ECF0E0808180838FEF82
S1130150D1D08FEFCFD08C2FCDD082E08D0DCAD0EF
S11301608E2DC8D0E394E394ED0CEC0EDD2061F009
S1130170C02FD12FF12C8E018991BCD0F801808140
S1130180E80EF394FD10F7CFF8948E2D8095B2D03D
S1130190E0ECF0E0808186FFFDCF99D07894DF9188
S11301A0CF911F910F91FF90EF90DF900895CF931F
S11301B0DF9300D0CDB7DEB790E199836A839E01C7
S11301C02F5F3F4F42E063E0B1DF0F900F90DF916C
S11301D0CF910895CF93DF9300D01F92CDB7DEB7B0
S11301E090E299836A837B839E012F5F3F4F43E0B4
S11301F063E09CDF0F900F900F90DF91CF910895F3
S1130200CF93DF9300D01F92CDB7DEB792E29983EC
S11302106A837B839E012F5F3F4F43E063E086DF69
S11302200F900F900F90DF91CF9108951F93CF936C
S1130230DF9300D01F92CDB7DEB7182FCB01BA01E0
S113024021E73DE34AE550E40E943D0A0E94E809A3
S11302508EE189836A837B839E012F5F3F4F43E056
S113026064E0812F63DF0F900F900F90DF91CF91A7
S11302701F910895CF93DF931F92CDB7DEB71982F4
S11302809E012F5F3F4F40E065E08EEF4FDF0F9000
S1130290DF91CF91089561E08EEF89DF6FEF73E016
S11302A08EEFAEDF66E970E08EEF94CF08958CB5E3
S11302B080688CBD8CB580648CBD08958EBD0DB4F2
S11302C007FEFDCF8EB5089587E484B9089580E1D3
S11302D08093C100089588E08093C100089510922E
S11302E0C5001092C40086E08093C20080E1809330
S11302F0C1000895E0ECF0E0908195FFFDCF80937C
S1130300C600089540E050E066E173E480E08EDFCB
S113031040E050E066E173E483E088DF40E050E0D1
S113032066E173E486E082DF40E050E066E173E476
S113033089E07CDF40E050E066E173E48CE076DF46
S113034040E050E066E173E48FE070DF40E050E0AD
S113035064EB72E481E06ADF40E050E064EB72E455
S113036084E064DF40E050E064EB72E487E05EDF49
S113037040E050E062E573E48AE058DF40E050E09A
S113038062E573E48DE052DF40E050E062E573E43F
S113039080E14CDF40E050E066E673E482E046DF53
S11303A040E050E066E673E485E040DF40E050E082
S11303B066E673E488E03ADF40E050E06CE872E41B
S11303C08BE034DF40E050E06CE872E48EE02EDF36
S11303D040E050E06CE872E481E128DF4BCF0895FF
S11303E040E050E069E173E486E020DF40E050E063
S11303F068EB72E487E01ADF40E050E063E673E400
S113040088E014DF40E050E063E173E489E00EDF4C
S113041040E050E060E773E48AE008DF40E050E049
S113042068E772E48BE002DF40E050E066E173E4E9
S113043083E0FCDE40E050E060E872E484E0F6DE55
S113044040E050E06DE673E485E0F0DE40E050E02B
S113045066E173E48CE0EADE40E050E060E573E4DA
S11304608DE0E4DE40E050E062E972E48EE0DEDE3E
S113047040E050E063E173E480E0D8DE40E050E027
S113048068EB72E481E0D2DE40E050E063E673E4BE
S113049082E0CCDE40E050E069E173E48FE0C6DE48
S11304A040E050E060E773E480E1C0DE40E050E00B
S11304B068E772E481E1BADE8BE792E90197F1F72C
S11304C000C00000D7CE089540E050E063E173E43B
S11304D086E0ACDE40E050E06EEA72E487E0A6DE3F
S11304E040E050E06DE673E488E0A0DE40E050E0D8
S11304F06FE073E489E09ADE40E050E06BE673E479
S11305008AE094DE40E050E064E972E48BE08EDE41
S113051040E050E06EE173E483E088DE40E050E0C8
S11305206CE872E484E082DE40E050E06CE673E460
S113053085E07CDE40E050E06EE173E48CE076DE42
S113054040E050E06FE473E48DE070DE40E050E0A2
S113055064E972E48EE06ADE40E050E06FE073E448
S113056080E064DE40E050E062EC72E481E05EDE54
S113057040E050E069E573E482E058DE40E050E09A
S113058063E173E48FE052DE40E050E060E773E43F
S113059080E14CDE40E050E060E772E481E146DE59
S11305A08BE792E90197F1F700C0000063CE08954C
S11305B040E050E063E173E486E038DE40E050E080
S11305C06EEA72E487E032DE40E050E06DE673E408
S11305D088E02CDE40E050E06FE073E489E026DE42
S11305E040E050E06BE473E48AE020DE40E050E059
S11305F066EA72E48BE01ADE40E050E06EE173E4F8
S113060083E014DE40E050E06AEB72E484E00EDE46
S113061040E050E062E673E485E008DE40E050E04C
S11306206EE173E48CE002DE40E050E06FE473E4DA
S11306308DE0FCDD40E050E064E972E48EE0F6DD3C
S113064040E050E06FE073E480E0F0DD40E050E033
S113065062EC72E481E0EADD40E050E069E573E4D5
S113066082E0E4DD40E050E063E173E48FE0DEDD4E
S113067040E050E065E573E480E1D8DD40E050E01F
S11306806CE772E481E1D2DD8BE792E90197F1F73F
S113069000C00000EFCD089540E050E063E173E452
S11306A086E0C4DD40E050E060E772E487E0BEDD50
S11306B040E050E060E773E488E0B8DD40E050E0FB
S11306C06FE073E489E0B2DD40E050E06BE473E492
S11306D08AE0ACDD40E050E066EA72E48BE0A6DD3F
S11306E040E050E06EE173E483E0A0DD40E050E0E0
S11306F06AEB72E484E09ADD40E050E062E673E481
S113070085E094DD40E050E06EE173E48CE08EDD42
S113071040E050E06AE673E48DE088DD40E050E0BC
S113072060E872E48EE082DD40E050E06FE073E464
S113073080E07CDD40E050E060E772E481E076DD5B
S113074040E050E062E673E482E070DD40E050E0B7
S113075063E173E48FE06ADD40E050E065E573E453
S113076080E164DD40E050E06CE772E481E15EDD4D
S11307708BE792E90197F1F700C000007BCD089563
S113078040E050E069E173E486E050DD40E050E091
S113079060E772E487E04ADD40E050E06EE673E42F
S11307A088E044DD40E050E063E173E489E03EDD4D
S11307B040E050E060E573E48AE038DD40E050E07A
S11307C062E972E48BE032DD40E050E066E173E41C
S11307D083E02CDD40E050E068EB72E484E026DD49
S11307E040E050E063E673E485E020DD40E050E063
S11307F066E173E48CE01ADD40E050E06BE673E4FC
S11308008DE014DD40E050E06CE772E48EE00EDD34
S113081040E050E063E173E480E008DD40E050E054
S113082060E772E481E002DD40E050E06EE673E4EC
S113083082E0FCDC40E050E069E173E48FE0F6DC48
S113084040E050E060E573E480E1F0DC40E050E03B
S113085062E972E481E1EADC8BE792E90197F1F75E
S113086000C0000007CD089540E050E06DE173E45E
S113087086E0DCDC40E050E060E772E487E0D6DC50
S113088040E050E062E673E488E0D0DC40E050E011
S113089069E173E489E0CADC40E050E065E573E4B3
S11308A08AE0C4DC40E050E06CE772E48BE0BEDC3C
S11308B040E050E06EE073E483E0B8DC40E050E0F8
S11308C06AEB72E484E0B2DC40E050E062E673E498
S11308D085E0ACDC40E050E06EE073E48CE0A6DC44
S11308E040E050E06BE673E48DE0A0DC40E050E0D3
S11308F060E872E48EE09ADC40E050E069E173E481
S113090080E094DC40E050E060E772E481E08EDC5B
S113091040E050E060E773E482E088DC40E050E0CF
S11309206DE173E48FE082DC40E050E06BE473E45B
S113093080E17CDC40E050E066EA72E481E176DC50
S11309408BE792E90197F1F700C0000093CC08957A
S113095040E050E06DE173E486E068DC40E050E0A4
S113096062EC72E487E062DC40E050E069E573E445
S113097088E05CDC40E050E069E173E489E056DC47
S113098040E050E065E573E48AE050DC40E050E08C
S11309906CE772E48BE04ADC40E050E06EE073E424
S11309A083E044DC40E050E06AEB72E484E03EDC47
S11309B040E050E062E673E485E038DC40E050E07B
S11309C06EE073E48CE032DC40E050E06FE473E40A
S11309D08DE02CDC40E050E064E972E48EE026DC3B
S11309E040E050E069E173E480E020DC40E050E066
S11309F06EEA72E481E01ADC40E050E06DE673E4F4
S1130A0082E014DC40E050E06DE173E48FE00EDC42
S1130A1040E050E06BE473E480E108DC40E050E047
S1130A2066EA72E481E102DC8BE792E90197F1F76F
S1130A3000C000001FCC089540E050E06DE173E475
S1130A4086E0F4DB40E050E062EC72E487E0EEDB49
S1130A5040E050E069E573E488E0E8DB40E050E022
S1130A6069E173E489E0E2DB40E050E060E773E4CD
S1130A708AE0DCDB40E050E060E772E48BE0D6DB48
S1130A8040E050E06EE073E483E0D0DB40E050E00F
S1130A9062E872E484E0CADB40E050E06CE673E4B0
S1130AA085E0C4DB40E050E06EE073E48CE0BEDB44
S1130AB040E050E06FE473E48DE0B8DB40E050E0E8
S1130AC064E972E48EE0B2DB40E050E069E173E493
S1130AD080E0ACDB40E050E06EEA72E481E0A6DB4B
S1130AE040E050E06DE673E482E0A0DB40E050E0DB
S1130AF06DE173E48FE09ADB40E050E060E773E47B
S1130B0080E194DB40E050E064E972E481E18EDB53
S1130B108BE792E90197F1F700C00000ABCB089591
S1130B208BDF5EDCD1DC44DDB7DD2ADE9DDE10CF59
S1130B3008950EDF99DE24DEAFDD3ADDC5DC50DC3E
S1130B407BCF089540E050E066E173E486E06EDB1D
S1130B5040E050E064EB72E487E068DB40E050E0A2
S1130B606CE573E488E062DB40E050E065E273E446
S1130B7089E05CDB40E050E06DE573E48AE056DB3D
S1130B8040E050E064EA72E48BE050DB40E050E087
S1130B9064E273E483E04ADB40E050E062E972E43B
S1130BA084E044DB40E050E063E673E485E03EDB50
S1130BB040E050E066E173E48CE038DB40E050E074
S1130BC062E573E48DE032DB40E050E060EA72E419
S1130BD08EE02CDB40E050E066E173E480E026DB4D
S1130BE040E050E064EB72E481E020DB40E050E060
S1130BF06CE573E482E01ADB40E050E065E273E404
S1130C008FE014DB40E050E06DE573E480E10EDB3F
S1130C1040E050E064EA72E481E108DB8BE792E9AA
S1130C200197F1F700C0000025CB089540E050E0A3
S1130C3066E173E486E0FADA40E050E064EB72E4E3
S1130C4087E0F4DA40E050E06CE573E488E0EEDA43
S1130C5040E050E062E373E489E0E8DA40E050E029
S1130C6063E573E48AE0E2DA40E050E06EEB72E4BC
S1130C708BE0DCDA40E050E060E373E483E0D6DA52
S1130C8040E050E066E972E484E0D0DA40E050E00D
S1130C9060E673E485E0CADA40E050E066E173E4BC
S1130CA08CE0C4DA40E050E062E573E48DE0BEDA43
S1130CB040E050E060EA72E48EE0B8DA40E050E0F0
S1130CC066E173E480E0B2DA40E050E064EB72E4A1
S1130CD081E0ACDA40E050E06CE573E482E0A6DA4F
S1130CE040E050E062E373E48FE0A0DA40E050E0DB
S1130CF063E573E480E19ADA40E050E06EEB72E47D
S1130D0081E194DA8BE792E90197F1F700C00000E2
S1130D10B1CA089540E050E066E173E486E086DA03
S1130D2040E050E064EB72E487E080DA40E050E0B9
S1130D306CE573E488E07ADA40E050E062E373E45F
S1130D4089E074DA40E050E067E473E48AE06EDA44
S1130D5040E050E06CEC72E48BE068DA40E050E094
S1130D6060E373E483E062DA40E050E062EB72E453
S1130D7084E05CDA40E050E069E573E485E056DA4B
S1130D8040E050E066E173E48CE050DA40E050E08B
S1130D9062E573E48DE04ADA40E050E060EA72E430
S1130DA08EE044DA40E050E066E173E480E03EDA4D
S1130DB040E050E064EB72E481E038DA40E050E077
S1130DC06CE573E482E032DA40E050E062E373E41D
S1130DD08FE02CDA40E050E067E473E480E126DA47
S1130DE040E050E06CEC72E481E120DA8BE792E9B8
S1130DF00197F1F700C000003DCA089540E050E0BB
S1130E0066E173E486E012DA40E050E06CE872E4F4
S1130E1087E00CDA40E050E06CE573E488E006DA41
S1130E2040E050E062E373E489E000DA40E050E03F
S1130E3067E473E48AE0FAD940E050E06CEC72E4D1
S1130E408BE0F4D940E050E060E373E483E0EED952
S1130E5040E050E062EB72E484E0E8D940E050E026
S1130E6069E573E485E0E2D940E050E066E173E4CB
S1130E708CE0DCD940E050E066E673E48DE0D6D93E
S1130E8040E050E060EA72E48EE0D0D940E050E007
S1130E9066E173E480E0CAD940E050E06CE872E4B3
S1130EA081E0C4D940E050E06CE573E482E0BED94F
S1130EB040E050E062E373E48FE0B8D940E050E0F2
S1130EC067E473E480E1B2D940E050E06CEC72E492
S1130ED081E1ACD98BE792E90197F1F700C00000FA
S1130EE0C9C9089540E050E066E173E486E09ED904
S1130EF040E050E06CE872E487E098D940E050E0CC
S1130F006CE573E488E092D940E050E065E273E474
S1130F1089E08CD940E050E062E573E48AE086D948
S1130F2040E050E06AEA72E48BE080D940E050E0AF
S1130F3061E273E483E07AD940E050E06CEA72E461
S1130F4084E074D940E050E06EE573E485E06ED946
S1130F5040E050E066E173E48CE068D940E050E0A2
S1130F6066E673E48DE062D940E050E060EA72E442
S1130F708EE05CD940E050E066E173E480E056D94D
S1130F8040E050E06CE872E481E050D940E050E089
S1130F906CE573E482E04AD940E050E065E273E432
S1130FA08FE044D940E050E062E573E480E13ED94B
S1130FB040E050E06AEA72E481E138D98BE792E9D3
S1130FC00197F1F700C0000055C9089540E050E0D2
S1130FD066E173E486E02AD940E050E06CE872E40C
S1130FE087E024D940E050E06CE573E488E01ED942
S1130FF040E050E066E173E489E018D940E050E055
S113100063E573E48AE012D940E050E064EA72E4F4
S11310108BE00CD940E050E066E173E483E006D94C
S113102040E050E062EB72E484E000D940E050E03C
S11310306AE573E485E0FAD840E050E066E173E4E1
S11310408CE0F4D840E050E066E673E48DE0EED83E
S113105040E050E060EA72E48EE0E8D840E050E01E
S113106066E173E480E0E2D840E050E06CE872E4CA
S113107081E0DCD840E050E06CE573E482E0D6D84F
S113108040E050E066E173E48FE0D0D840E050E007
S113109063E573E480E1CAD840E050E064EA72E4B6
S11310A081E1C4D88BE792E90197F1F700C0000011
S11310B0E1C8089540E050E066E173E486E0B6D804
S11310C040E050E064EB72E487E0B0D840E050E0E8
S11310D06CE573E488E0AAD840E050E066E173E48C
S11310E089E0A4D840E050E063E573E48AE09ED848
S11310F040E050E064EA72E48BE098D840E050E0CD
S113110066E173E483E092D840E050E062EB72E47D
S113111084E08CD840E050E06AE573E485E086D84A
S113112040E050E066E173E48CE080D840E050E0B9
S113113062E573E48DE07AD840E050E060EA72E45E
S11311408EE074D840E050E066E173E480E06ED84D
S113115040E050E064EB72E481E068D840E050E0A5
S11311606CE573E482E062D840E050E066E173E449
S11311708FE05CD840E050E063E573E480E156D84A
S113118040E050E064EA72E481E150D88BE792E9F0
S11311900197F1F700C000006DC8089540E050E0E9
S11311A066E173E486E042D840E050E064EB72E428
S11311B087E03CD840E050E06CE573E488E036D842
S11311C040E050E066E173E489E030D840E050E06C
S11311D062E673E48AE02AD840E050E066E972E40B
S11311E08BE024D840E050E066E173E483E01ED84D
S11311F040E050E064E972E484E018D840E050E054
S113120061E673E485E012D840E050E066E173E4FF
S11312108CE00CD840E050E062E573E48DE006D841
S113122040E050E060EA72E48EE000D840E050E034
S113123066E173E480E00E94160140E050E064EB54
S113124072E481E00E94160140E050E06CE573E432
S113125082E00E94160140E050E066E173E48FE012
S11312600E94160140E050E062E673E480E10E94CF
S1131270160140E050E066E972E481E10E94160143
S11312808BE792E90197F1F700C000000C943A0152
S1131290089510DF9BDE26DEB1DD3CDDC7DC52DCC9
S11312A07DCF089507DF7ADF4DDCC0DC33DDA6DDBA
S11312B019DE8CCE089534DC33DC32DC31DCF2CF41
S11312C008952EDC2DDC2CDC2BDCE3CF0895CF93AA
S11312D0CEB590910101992331F080ED0E945E0119
S11312E01092000145C08FEF0E945E018C2F90E0A8
S11312F0FC013197E730F10508F038C0EA5BFF4F95
S113130047C181E0809301010BDC1092010181E06F
S113131090E00E945F002AC081E08093010109DC13
S11313201092010123C081E080930101BBDF109280
S113133001011CC081E080930101ABDF1092010127
S113134015C081E080930101B6DF109201010EC047
S113135081E080930101B5DF1092010107C081E0B3
S1131360809301010E9482011092010110920001F8
S1131370CF9108951F920F920FB60F9211240BB6BE
S11313800F922F933F934F935F936F937F938F931A
S11313909F93AF93BF93EF93FF93809100018111CB
S11313A004C081E08093000192DFFF91EF91BF912F
S11313B0AF919F918F917F916F915F914F913F91E9
S11313C02F910F900BBE0F900FBE0F901F9018958A
S11313D033D088F09F5790F0B92F9927B751A0F0D8
S11313E0D1F0660F771F881F991F1AF0BA95C9F7B5
S11313F012C0B13081F03AD0B1E0089537C0672F00
S1131400782F8827B85F39F0B93FCCF38695779564
S11314106795B395D9F73EF490958095709561954D
S11314207F4F8F4F9F4F089557FD9058440F551F7E
S113143059F05F3F71F04795880F97FB991F61F052
S11314409F3F79F087950895121613061406551FC9
S1131450F2CF4695F1DF08C0161617061806991F35
S1131460F1CF86957105610508940895E894BB272A
S113147066277727CB0197F908950BD078C069D0F8
S113148028F06ED018F0952309F05AC05FC01124DB
S1131490EECFCADFA0F3959FD1F3950F50E0551F0F
S11314A0629FF001729FBB27F00DB11D639FAA27B5
S11314B0F00DB11DAA1F649F6627B00DA11D661F04
S11314C0829F2227B00DA11D621F739FB00DA11D25
S11314D0621F839FA00D611D221F749F3327A00DDF
S11314E0611D231F849F600D211D822F762F6A2F7B
S11314F011249F5750408AF0E1F088234AF0EE0F00
S1131500FF1FBB1F661F771F881F91505040A9F70C
S11315109E3F510570F014C0AACF5F3FECF3983E94
S1131520DCF3869577956795B795F795E7959F5F73
S1131530C1F7FE2B880F911D9695879597F908950D
S113154097F99F6780E870E060E008959FEF80EC72
S1131550089500240A941616170618060906089515
S113156000240A9412161306140605060895092E7B
S11315700394000C11F4882352F0BB0F40F4BF2BEA
S113158011F460FF04C06F5F7F4F8F4F9F4F08952A
S1131590EE0FFF1F0590F491E02D0994F894FFCF0E
S9030000FC
