S00C00006D61696E2E7372656373
S11300004CC0000068C0000066C0000064C000006E
S113001062C0000060C000005EC000005CC0000060
S11300205AC0000058C0000056C0000054C0000070
S113003052C0000050C000004EC000004CC0000080
S11300404AC0000048C0000046C000000C94151CC3
S113005042C0000040C000003EC000003CC00000A0
S11300603AC0000038C0000036C0000034C00000B0
S113007032C0000030C000002EC000002CC00000C0
S11300802AC0000028C0000026C000009B1BAC1B37
S1130090BC1BCD1BDE1BEF1BFF1B11241FBECFEFB0
S11300A0D0E4DEBFCDBF11E0A0E0B1E0E6E5FAE3C5
S11300B000E00BBF02C007900D92A030B107D9F742
S11300C021E0A0E0B1E001C01D92A230B207E1F747
S11300D03CD00C94291D94CF0097B9F0289A2FEFA7
S11300E039E648E1215030404040E1F700C00000CB
S11300F015B82FEF39E648E1215030404040E1F790
S113010000C000000197009749F708950097B9F0DF
S1130110299A2FEF39E648E1215030404040E1F779
S113012000C0000015B82FEF39E648E121503040F7
S11301304040E1F700C000000197009749F7089597
S11301403FD14BD155D120C10895FADF2FEF83ED74
S113015090E3215080409040E1F700C000005BD163
S11301602FEF83ED90E3215080409040E1F700C0F1
S1130170000081E090E0B0DF81E090E0C7DF80E044
S11301800E94121CFCCFDF92EF92FF920F931F93F9
S1130190CF93DF93C82FE62ED42E022F132FF8947B
S11301A023D1E0ECF0E0808180838FEF2CD18FEFBE
S11301B02AD18C2F28D182E08D0D25D18E2D23D1EB
S11301C0E394E394ED0CEC0EDD2061F0C02FD12F0D
S11301D0F12C8E01899117D1F8018081E80EF394F6
S11301E0FD10F7CF8E2D80950ED1E0ECF0E08081EC
S11301F086FFFDCFF5D07894DF91CF911F910F91B9
S1130200FF90EF90DF900895CF93DF9300D0CDB7A8
S1130210DEB790E199836A839E012F5F3F4F42E0EE
S113022063E0B1DF0F900F90DF91CF910895CF93EA
S1130230DF9300D01F92CDB7DEB790E299836A8333
S11302407B839E012F5F3F4F43E063E09CDF0F9071
S11302500F900F90DF91CF910895CF93DF9300D04B
S11302601F92CDB7DEB79EE099836A837B839E019C
S11302702F5F3F4F43E063E086DF0F900F900F90B6
S1130280DF91CF9108951F93CF93DF9300D01F92F6
S1130290CDB7DEB7182FCB01BA0121E73DE34AE51C
S11302A050E40E94981C0E94431C8EE189836A8357
S11302B07B839E012F5F3F4F43E064E0812F63DF28
S11302C00F900F900F90DF91CF911F910895CF93CE
S11302D0DF9300D0CDB7DEB79BE099836A839E019C
S11302E02F5F3F4F42E063E04EDF0F900F90DF91AE
S11302F0CF910895CF93DF9300D0CDB7DEB792E1CD
S113030099836A839E012F5F3F4F42E063E03BDFA6
S11303100F900F90DF91CF910895CF93DF9300D08A
S1130320CDB7DEB791E199836A839E012F5F3F4F7A
S113033042E063E028DF0F900F90DF91CF910895A2
S1130340CF93DF9300D0CDB7DEB798E199836A836A
S11303509E012F5F3F4F42E063E015DF0F900F9047
S1130360DF91CF910895CF93DF931F92CDB7DEB77E
S113037019829E012F5F3F4F40E065E08EEF03DF5F
S11303800F90DF91CF91089560E08EEF3DDF60E242
S113039073E08EEF62DF66E970E08EEF48DF66E4BB
S11303A070E08EEF94DF67E070E08EEFA3DF64E02F
S11303B070E08EEFB2DF61E070E08EEFC1CF0895A0
S11303C08CB580688CBD8CB580648CBD08958EBD61
S11303D00DB407FEFDCF8EB5089587E484B9089562
S11303E080E18093C100089588E08093C10008955E
S11303F01092C5001092C40086E08093C20080E190
S11304008093C1000895E0ECF0E0908195FFFDCF6A
S11304108093C600089540E050E066E173E480E014
S113042032DF40E050E066E173E483E02CDF40E03B
S113043050E066E173E486E026DF40E050E066E1E8
S113044073E489E020DF40E050E066E173E48CE08F
S11304501ADF40E050E066E173E48FE014DF40E02F
S113046050E064EB72E481E00EDF40E050E064EBC6
S113047072E484E008DF40E050E064EB72E487E07B
S113048002DF40E050E062E573E48AE0FCDE40E035
S113049050E062E573E48DE0F6DE40E050E062E5B2
S11304A073E480E1F0DE40E050E066E673E482E06D
S11304B0EADE40E050E066E673E485E0E4DE40E036
S11304C050E066E673E488E0DEDE40E050E06CE88D
S11304D072E48BE0D8DE40E050E06CE872E48EE039
S11304E0D2DE40E050E06CE872E481E1CCDE3BCF48
S11304F0089540E050E06DE173E486E0C4DE40E03E
S113050050E06EEC72E487E0BEDE40E050E06EE462
S113051073E488E0B8DE40E050E069E173E489E028
S1130520B2DE40E050E063E673E48AE0ACDE40E033
S113053050E068E772E48BE0A6DE40E050E06EE055
S113054073E483E0A0DE40E050E066E972E484E016
S11305509ADE40E050E06CE673E485E094DE40E02F
S113056050E06EE073E48CE08EDE40E050E06FE437
S113057073E48DE088DE40E050E064E972E48EE0EC
S113058082DE40E050E069E173E480E07CDE40E03C
S113059050E068EB72E481E076DE40E050E063E630
S11305A073E482E070DE40E050E06DE173E48FE0DC
S11305B06ADE40E050E064E573E480E164DE40E03C
S11305C050E06AEA72E481E15EDE2FEF87EE93E0A9
S11305D0215080409040E1F700C00000C4CE08954F
S11305E040E050E068E173E486E04DDE40E050E036
S11305F062EC72E487E047DE40E050E06AE573E4D1
S113060088E041DE40E050E064E173E489E03BDEF1
S113061040E050E06CE573E48AE035DE40E050E011
S113062062E972E48BE02FDE40E050E066E173E4BF
S113063083E029DE40E050E064E972E484E023DEF4
S113064040E050E06DE673E485E01DDE40E050E0FC
S113065066E173E48CE017DE40E050E060E573E4AB
S11306608DE011DE40E050E062E972E48EE00BDEE2
S113067040E050E064E173E480E005DE40E050E0F7
S113068062EC72E481E0FFDD40E050E06AE573E48F
S113069082E0F9DD40E050E068E173E48FE0F3DDEF
S11306A040E050E06CE573E480E1EDDD40E050E0D3
S11306B062E972E481E1E7DD2FEF87EE93E02150F8
S11306C080409040E1F700C000004DCE089540E026
S11306D050E063E173E486E0D6DD40E050E068EB8F
S11306E072E487E0D0DD40E050E063E673E488E044
S11306F0CADD40E050E06FE073E489E0C4DD40E02F
S113070050E064E573E48AE0BEDD40E050E06AEA6C
S113071072E48BE0B8DD40E050E06EE173E483E026
S1130720B2DD40E050E066E972E484E0ACDD40E034
S113073050E06CE673E485E0A6DD40E050E06EE155
S113074073E48CE0A0DD40E050E06FE473E48DE0FE
S11307509ADD40E050E064E972E48EE094DD40E02C
S113076050E06FE073E480E08EDD40E050E06EEC3A
S113077072E481E088DD40E050E06EE473E482E0FE
S113078082DD40E050E063E173E48FE07CDD40E033
S113079050E063E673E480E176DD40E050E068E732
S11307A072E481E170DD2FEF87EE93E02150804009
S11307B09040E1F700C00000D6CD089540E050E03D
S11307C063E173E486E05FDD40E050E068EB72E4EF
S11307D087E059DD40E050E063E673E488E053DDF0
S11307E040E050E06FE073E489E04DDD40E050E02C
S11307F065E473E48AE047DD40E050E06CEB72E4CA
S11308008BE041DD40E050E06EE173E483E03BDDEA
S113081040E050E06AEB72E484E035DD40E050E013
S113082062E673E485E02FDD40E050E06EE173E4BE
S11308308CE029DD40E050E06FE473E48DE023DDDB
S113084040E050E064E972E48EE01DDD40E050E0F9
S11308506FE073E480E017DD40E050E06EEC72E49A
S113086081E011DD40E050E06EE473E482E00BDDF2
S113087040E050E063E173E48FE005DD40E050E0E8
S113088060E573E480E1FFDC40E050E062E972E49B
S113089081E1F9DC2FEF87EE93E021508040904016
S11308A0E1F700C000005FCD089540E050E063E14F
S11308B073E486E0E8DC40E050E062E972E487E05B
S11308C0E2DC40E050E06EE673E488E0DCDC40E02B
S11308D050E06FE073E489E0D6DC40E050E065E48A
S11308E073E48AE0D0DC40E050E06CEB72E48BE02F
S11308F0CADC40E050E06EE173E483E0C4DC40E035
S113090050E06AEB72E484E0BEDC40E050E062E672
S113091073E485E0B8DC40E050E06EE173E48CE021
S1130920B2DC40E050E061E673E48DE0ACDC40E032
S113093050E060E872E48EE0A6DC40E050E06FE056
S113094073E480E0A0DC40E050E060EB72E481E01E
S11309509ADC40E050E067E573E482E094DC40E038
S113096050E063E173E48FE08EDC40E050E060E54A
S113097073E480E188DC40E050E062E972E481E104
S113098082DC2FEF87EE93E0215080409040E1F726
S113099000C00000E8CC089540E050E068E173E452
S11309A086E071DC40E050E060EA72E487E06BDCF2
S11309B040E050E063E673E488E065DC40E050E04A
S11309C064E173E489E05FDC40E050E06BE473E4ED
S11309D08AE059DC40E050E064EA72E48BE053DCE6
S11309E040E050E066E173E483E04DDC40E050E039
S11309F068EB72E484E047DC40E050E063E673E4D3
S1130A0085E041DC40E050E066E173E48CE03BDCEF
S1130A1040E050E062E673E48DE035DC40E050E015
S1130A206CE772E48EE02FDC40E050E064E173E4B4
S1130A3080E029DC40E050E060EA72E481E023DCFD
S1130A4040E050E063E673E482E01DDC40E050E007
S1130A5068E173E48FE017DC40E050E06BE473E49A
S1130A6080E111DC40E050E064EA72E481E10BDCF7
S1130A702FEF87EE93E0215080409040E1F700C0D3
S1130A80000071CC089540E050E06DE173E486E02D
S1130A90FADB40E050E060EB72E487E0F4DB40E036
S1130AA050E067E573E488E0EEDB40E050E069E1A4
S1130AB073E489E0E8DB40E050E060E573E48AE059
S1130AC0E2DB40E050E062E972E48BE0DCDB40E032
S1130AD050E06EE073E483E0D6DB40E050E06AEB84
S1130AE072E484E0D0DB40E050E062E673E485E049
S1130AF0CADB40E050E06EE073E48CE0C4DB40E02D
S1130B0050E061E673E48DE0BEDB40E050E060E875
S1130B1072E48EE0B8DB40E050E069E173E480E029
S1130B20B2DB40E050E062E972E481E0ACDB40E03B
S1130B3050E06EE673E482E0A6DB40E050E06DE155
S1130B4073E48FE0A0DB40E050E065E473E480E10F
S1130B509ADB40E050E06CEB72E481E194DB2FEF30
S1130B6087EE93E0215080409040E1F700C0000000
S1130B70FACB089540E050E06DE173E486E083DB56
S1130B8040E050E06EEC72E487E07DDB40E050E052
S1130B906EE473E488E077DB40E050E069E173E4FD
S1130BA089E071DB40E050E060E573E48AE06BDBF0
S1130BB040E050E062E972E48BE065DB40E050E045
S1130BC06EE073E483E05FDB40E050E06AEB72E4E4
S1130BD084E059DB40E050E062E673E485E053DBF7
S1130BE040E050E06EE073E48CE04DDB40E050E028
S1130BF06FE473E48DE047DB40E050E064E972E4C5
S1130C008EE041DB40E050E069E173E480E03BDBEF
S1130C1040E050E068EB72E481E035DB40E050E016
S1130C2063E673E482E02FDB40E050E06DE173E4BF
S1130C308FE029DB40E050E065E473E480E123DBEE
S1130C4040E050E06CEB72E481E11DDB2FEF87EEB6
S1130C5093E0215080409040E1F700C0000083CB36
S1130C60089588DF46DCBCDC32DDA8DDA7DD1DDEAF
S1130C7093DE09DF7FCF089540E050E062E273E441
S1130C8086E001DB40E050E064EC72E487E0FBDAEC
S1130C9040E050E067E573E488E0F5DA40E050E0D6
S1130CA069E173E489E0EFDA40E050E063E673E47D
S1130CB08AE0E9DA40E050E068E772E48BE0E3DAE6
S1130CC040E050E06EE073E483E0DDDA40E050E0C1
S1130CD066E972E484E0D7DA40E050E06CE673E45D
S1130CE085E0D1DA40E050E06EE073E48CE0CBDAEA
S1130CF040E050E06FE473E48DE0C5DA40E050E09A
S1130D0064E972E48EE0BFDA40E050E069E173E444
S1130D1080E0B9DA40E050E068EB72E481E0B3DAF5
S1130D2040E050E063E673E482E0ADDA40E050E096
S1130D306DE173E48FE0A7DA40E050E064E573E42A
S1130D4080E1A1DA40E050E06AEA72E481E19BDAF2
S1130D502FEF87EE93E0215080409040E1F700C0F0
S1130D60000001CB089540E050E06BE173E486E0BD
S1130D708ADA40E050E06CEB72E487E084DA40E029
S1130D8050E06EE573E488E07EDA40E050E066E12E
S1130D9073E489E078DA40E050E068E573E48AE0DF
S1130DA072DA40E050E06CE972E48BE06CDA40E027
S1130DB050E066E173E483E066DA40E050E064E921
S1130DC072E484E060DA40E050E06DE673E485E0CC
S1130DD05ADA40E050E066E173E48CE054DA40E033
S1130DE050E060E573E48DE04EDA40E050E062E903
S1130DF072E48EE048DA40E050E064E173E480E0BD
S1130E0042DA40E050E062EC72E481E03CDA40E037
S1130E1050E06AE573E482E036DA40E050E068E1ED
S1130E2073E48FE030DA40E050E06CE573E480E195
S1130E302ADA40E050E062E972E481E124DA2FEF3B
S1130E4087EE93E0215080409040E1F700C000001D
S1130E508ACA089540E050E063E173E486E013DA5F
S1130E6040E050E068EB72E487E00DDA40E050E0E7
S1130E7063E673E488E007DA40E050E064E173E499
S1130E8089E001DA40E050E06CE473E48AE0FBD9E5
S1130E9040E050E060EC72E48BE0F5D940E050E0D3
S1130EA06EE173E483E0EFD940E050E066E972E478
S1130EB084E0E9D940E050E06CE673E485E0E3D9EE
S1130EC040E050E06EE173E48CE0DDD940E050E0B6
S1130ED06FE473E48DE0D7D940E050E064E972E454
S1130EE08EE0D1D940E050E06FE073E480E0CBD9EC
S1130EF040E050E06EEC72E481E0C5D940E050E09F
S1130F006EE473E482E0BFD940E050E063E173E44F
S1130F108FE0B9D940E050E063E673E480E1B3D9EF
S1130F2040E050E068E772E481E1ADD92FEF87EE4D
S1130F3093E0215080409040E1F700C0000013CAC4
S1130F40089540E050E063E173E486E09CD940E01A
S1130F5050E068EB72E487E096D940E050E063E645
S1130F6073E488E090D940E050E064E173E489E000
S1130F708AD940E050E06EE373E48AE084D940E02B
S1130F8050E062ED72E48BE07ED940E050E06EE127
S1130F9073E483E078D940E050E06AEB72E484E0E3
S1130FA072D940E050E062E673E485E06CD940E039
S1130FB050E06EE173E48CE066D940E050E06FE409
S1130FC073E48DE060D940E050E064E972E48EE0BF
S1130FD05AD940E050E06FE073E480E054D940E037
S1130FE050E06EEC72E481E04ED940E050E06EE4F3
S1130FF073E482E048D940E050E063E173E48FE0B9
S113100042D940E050E060E573E480E13CD940E03F
S113101050E062E972E481E136D92FEF87EE93E084
S1131020215080409040E1F700C000009CC9089521
S113103040E050E063E173E486E025D940E050E00D
S113104062E972E487E01FD940E050E06EE673E4A1
S113105088E019D940E050E064E173E489E013D9F1
S113106040E050E06EE373E48AE00DD940E050E0E4
S113107062ED72E48BE007D940E050E06EE173E486
S113108083E001D940E050E06AEB72E484E0FBD8ED
S113109040E050E062E673E485E0F5D840E050E0DB
S11310A06EE173E48CE0EFD840E050E061E673E475
S11310B08DE0E9D840E050E060E872E48EE0E3D8E7
S11310C040E050E06FE073E480E0DDD840E050E0C1
S11310D060EB72E481E0D7D840E050E067E573E468
S11310E082E0D1D840E050E063E173E48FE0CBD8F4
S11310F040E050E060E573E480E1C5D840E050E0B2
S113110062E972E481E1BFD82FEF87EE93E02150CA
S113111080409040E1F700C0000025C9089540E0F8
S113112050E06BE173E486E0AED840E050E06AE959
S113113072E487E0A8D840E050E068E673E488E011
S1131140A2D840E050E066E173E489E09CD840E036
S113115050E068E473E48AE096D840E050E060EB45
S113116072E48BE090D840E050E066E173E483E001
S11311708AD840E050E068EB72E484E084D840E030
S113118050E063E673E485E07ED840E050E066E139
S113119073E48CE078D840E050E062E673E48DE0DC
S11311A072D840E050E06CE772E48EE06CD840E026
S11311B050E064E173E480E066D840E050E060EA27
S11311C072E481E060D840E050E063E673E482E0DA
S11311D05AD840E050E068E173E48FE054D840E02E
S11311E050E06BE473E480E14ED840E050E064EA00
S11311F072E481E148D82FEF87EE93E021508040DC
S11312009040E1F700C00000AEC8089540E050E00F
S113121062E273E486E037D840E050E064EA72E4C6
S113122087E031D840E050E061E673E488E02BD8F1
S113123040E050E069E173E489E025D840E050E003
S113124060E573E48AE01FD840E050E062E972E4AC
S11312508BE019D840E050E06EE073E483E013D8EB
S113126040E050E06AEB72E484E00DD840E050E0E6
S113127062E673E485E007D840E050E06EE073E492
S11312808CE001D840E050E061E673E48DE00E9418
S1131290430140E050E060E872E48EE00E944301C4
S11312A040E050E069E173E480E00E94430140E0E3
S11312B050E062E972E481E00E94430140E050E0C2
S11312C06EE673E482E00E94430140E050E06DE189
S11312D073E48FE00E94430140E050E065E473E46E
S11312E080E10E94430140E050E06CEB72E481E154
S11312F00E9443012FEF87EE93E0215080409040FD
S1131300E1F700C000002FC8089540E050E062E219
S113131073E486E00E94430140E050E064EC72E430
S113132087E00E94430140E050E067E573E488E011
S11313300E94430140E050E069E173E489E00E94C7
S1131340430140E050E060E573E48AE00E94430119
S113135040E050E062E972E48BE00E94430140E027
S113136050E06EE073E483E00E94430140E050E00B
S11313706AEB72E484E00E94430140E050E062E6DC
S113138073E485E00E94430140E050E06EE073E4C2
S11313908CE00E94430140E050E06FE473E48DE090
S11313A00E94430140E050E064E972E48EE00E9450
S11313B0430140E050E069E173E480E00E944301AE
S11313C040E050E068EB72E481E00E94430140E0B9
S11313D050E063E673E482E00E94430140E050E0A1
S11313E06DE173E48FE00E94430140E050E065E466
S11313F073E480E10E94430140E050E06CEB72E44E
S113140081E10E9443012FEF87EE93E02150804059
S11314109040E1F700C000000C94B301089575DF1B
S11314202BDCA1DC17DD8DDD8CDD02DE78DEEEDE6B
S11314306CCF089540E050E066E173E486E00E94DA
S1131440430140E050E06EEB72E487E00E94430108
S113145040E050E06DE573E488E00E94430140E021
S113146050E066E173E489E00E94430140E050E00B
S11314706EE573E48AE00E94430140E050E06AE8CC
S113148072E48BE00E94430140E050E065E273E4C3
S113149083E00E94430140E050E060EA72E484E0AB
S11314A00E94430140E050E064E673E485E00E945A
S11314B0430140E050E067E073E48CE00E944301A4
S11314C040E050E06BE473E48DE00E94430140E0AF
S11314D050E064EA72E48EE00E94430140E050E090
S11314E060EF72E480E00E94430140E050E06CEB66
S11314F072E481E00E94430140E050E06FE573E450
S113150082E00E94430140E050E064E373E48FE032
S11315100E94430140E050E06FE573E480E10E94E3
S1131520430140E050E066E872E481E10E94430137
S11315302FEF87EE93E0215080409040E1F700C008
S113154000000C94B301089540E050E065E273E4B8
S113155086E00E94430140E050E06CEB72E487E0D7
S11315600E94430140E050E060E673E488E00E949A
S1131570430140E050E067E073E489E00E944301E6
S113158040E050E060E673E48AE00E94430140E0FA
S113159050E064E872E48BE00E94430140E050E0D4
S11315A066E173E483E00E94430140E050E06EE9A9
S11315B072E484E00E94430140E050E065E673E495
S11315C085E00E94430140E050E066E173E48CE072
S11315D00E94430140E050E06CE473E48DE00E941B
S11315E0430140E050E060EA72E48EE00E9443016F
S11315F040E050E067E073E480E00E94430140E093
S113160050E06CEB72E481E00E94430140E050E062
S113161060E673E482E00E94430140E050E065E24A
S113162073E48FE00E94430140E050E060E673E41D
S113163080E10E94430140E050E064E872E481E10B
S11316400E9443012FEF87EE93E0215080409040A9
S1131650E1F700C000000C94B301089540E050E0AD
S113166064E373E486E00E94430140E050E06CEBE5
S113167072E487E00E94430140E050E06FE573E4C8
S113168088E00E94430140E050E060EF72E489E0AA
S11316900E94430140E050E06FE573E48AE00E9459
S11316A0430140E050E066E872E48BE00E944301AD
S11316B040E050E067E073E483E00E94430140E0CF
S11316C050E060EA72E484E00E94430140E050E0AC
S11316D064E673E485E00E94430140E050E065E283
S11316E073E48CE00E94430140E050E06BE473E457
S11316F08DE00E94430140E050E064EA72E48EE031
S11317000E94430140E050E066E173E480E00E94FF
S1131710430140E050E06EEB72E481E00E9443013B
S113172040E050E06DE573E482E00E94430140E054
S113173050E066E173E48FE00E94430140E050E032
S11317406EE573E480E10E94430140E050E06AE802
S113175072E481E10E9443012FEF87EE93E0215070
S113176080409040E1F700C000000C94B30108955C
S113177040E050E064E373E486E00E94430140E00B
S113178050E06CEB72E487E00E94430140E050E0DB
S11317906FE573E488E00E94430140E050E060EFAD
S11317A072E489E00E94430140E050E06EE473E497
S11317B08AE00E94430140E050E06AE972E48BE071
S11317C00E94430140E050E067E073E483E00E943C
S11317D0430140E050E062EC72E484E00E94430183
S11317E040E050E06AE573E485E00E94430140E094
S11317F050E065E273E48CE00E94430140E050E075
S11318006BE473E48DE00E94430140E050E064EA3D
S113181072E48EE00E94430140E050E066E173E42C
S113182080E00E94430140E050E06EEB72E481E00E
S11318300E94430140E050E06DE573E482E00E94C1
S1131840430140E050E066E173E48FE00E9443010D
S113185040E050E06DE473E480E10E94430140E025
S113186050E06EE972E481E10E9443012FEF87EEBC
S113187093E0215080409040E1F700C000000C94B8
S1131880B301089540E050E064E373E486E00E940D
S1131890430140E050E06AE972E487E00E944301BA
S11318A040E050E069E673E488E00E94430140E0D0
S11318B050E060EF72E489E00E94430140E050E0B0
S11318C06EE473E48AE00E94430140E050E06AE978
S11318D072E48BE00E94430140E050E067E073E46F
S11318E083E00E94430140E050E062EC72E484E053
S11318F00E94430140E050E06AE573E485E00E9401
S1131900430140E050E065E273E48CE00E9443014F
S113191040E050E06CE573E48DE00E94430140E058
S113192050E060E972E48EE00E94430140E050E040
S113193066E173E480E00E94430140E050E06CE91A
S113194072E481E00E94430140E050E067E673E402
S113195082E00E94430140E050E066E173E48FE0DE
S11319600E94430140E050E06DE473E480E10E9492
S1131970430140E050E06EE972E481E10E944301DA
S11319802FEF87EE93E0215080409040E1F700C0B4
S113199000000C94B301089540E050E065E273E464
S11319A086E00E94430140E050E068E972E487E089
S11319B00E94430140E050E06AE673E488E00E943C
S11319C0430140E050E067E073E489E00E94430192
S11319D040E050E06EE473E48AE00E94430140E09A
S11319E050E068E972E48BE00E94430140E050E07B
S11319F066E173E483E00E94430140E050E060EC60
S1131A0072E484E00E94430140E050E06CE573E43A
S1131A1085E00E94430140E050E066E173E48CE01D
S1131A200E94430140E050E06DE573E48DE00E94C4
S1131A30430140E050E06EE872E48EE00E9443010E
S1131A4040E050E067E073E480E00E94430140E03E
S1131A5050E068E972E481E00E94430140E050E014
S1131A606AE673E482E00E94430140E050E065E2EC
S1131A7073E48FE00E94430140E050E06EE473E4BD
S1131A8080E10E94430140E050E068E972E481E1B2
S1131A900E9443012FEF87EE93E021508040904055
S1131AA0E1F700C000000C94B301089540E050E059
S1131AB066E173E486E00E94430140E050E06CE993
S1131AC072E487E00E94430140E050E067E673E47B
S1131AD088E00E94430140E050E066E173E489E05D
S1131AE00E94430140E050E06DE473E48AE00E9408
S1131AF0430140E050E06EE972E48BE00E94430150
S1131B0040E050E065E273E483E00E94430140E07A
S1131B1050E062EC72E484E00E94430140E050E053
S1131B206AE573E485E00E94430140E050E067E029
S1131B3073E48CE00E94430140E050E06CE573E400
S1131B408DE00E94430140E050E060E972E48EE0E1
S1131B500E94430140E050E060EF72E480E00E94A4
S1131B60430140E050E06AE972E481E00E944301ED
S1131B7040E050E069E673E482E00E94430140E003
S1131B8050E064E373E48FE00E94430140E050E0DE
S1131B906EE473E480E10E94430140E050E06AE9AE
S1131BA072E481E10E9443012FEF87EE93E021501C
S1131BB080409040E1F700C000000C94B301089508
S1131BC040E050E066E173E486E00E94430140E0B7
S1131BD050E06EEB72E487E00E94430140E050E085
S1131BE06DE573E488E00E94430140E050E066E163
S1131BF073E489E00E94430140E050E06DE473E443
S1131C008AE00E94430140E050E06EE972E48BE018
S1131C100E94430140E050E065E273E483E00E94E7
S1131C20430140E050E062EC72E484E00E9443012E
S1131C3040E050E06AE573E485E00E94430140E03F
S1131C4050E067E073E48CE00E94430140E050E020
S1131C506BE473E48DE00E94430140E050E064EAE9
S1131C6072E48EE00E94430140E050E060EF72E4D1
S1131C7080E00E94430140E050E06CEB72E481E0BC
S1131C800E94430140E050E06FE573E482E00E946B
S1131C90430140E050E064E373E48FE00E944301B9
S1131CA040E050E06EE473E480E10E94430140E0D0
S1131CB050E06AE972E481E10E9443012FEF87EE6C
S1131CC093E0215080409040E1F700C000000C9464
S1131CD0B301089575DFAEDB37DCC0DC49DD48DDD8
S1131CE0D1DD5ADEE3DE6CCF089540E050E064E3DA
S1131CF073E486E00E94430140E050E06CEB72E440
S1131D0087E00E94430140E050E06FE573E488E01F
S1131D100E94430140E050E060EF72E489E00E94D9
S1131D20430140E050E06FE573E48AE00E94430120
S1131D3040E050E066E872E48BE00E94430140E03A
S1131D4050E067E073E483E00E94430140E050E028
S1131D5060EA72E484E00E94430140E050E064E6FB
S1131D6073E485E00E94430140E050E065E273E4DF
S1131D708CE00E94430140E050E06BE473E48DE0AA
S1131D800E94430140E050E064EA72E48EE00E9465
S1131D90430140E050E066E173E480E00E944301C7
S1131DA040E050E06EEB72E481E00E94430140E0C9
S1131DB050E06DE573E482E00E94430140E050E0AE
S1131DC066E173E48FE00E94430140E050E06EE579
S1131DD073E480E10E94430140E050E06AE872E469
S1131DE081E10E9443012FEF87EE93E02150804070
S1131DF09040E1F700C000000C94B301089540E066
S1131E0050E065E273E486E00E94430140E050E064
S1131E106CEB72E487E00E94430140E050E060E62E
S1131E2073E488E00E94430140E050E067E073E41B
S1131E3089E00E94430140E050E060E673E48AE0F8
S1131E400E94430140E050E064E872E48BE00E94A9
S1131E50430140E050E066E173E483E00E94430103
S1131E6040E050E06EE972E484E00E94430140E007
S1131E7050E065E673E485E00E94430140E050E0F1
S1131E8066E173E48CE00E94430140E050E06CE4BE
S1131E9073E48DE00E94430140E050E060EA72E4A4
S1131EA08EE00E94430140E050E067E073E480E08C
S1131EB00E94430140E050E06CEB72E481E00E9438
S1131EC0430140E050E060E673E482E00E94430195
S1131ED040E050E065E273E48FE00E94430140E09B
S1131EE050E060E673E480E10E94430140E050E08A
S1131EF064E872E481E10E9443012FEF87EE93E0EE
S1131F00215080409040E1F700C000000C94B301E0
S1131F10089540E050E066E173E486E00E944301E6
S1131F2040E050E06EEB72E487E00E94430140E041
S1131F3050E06DE573E488E00E94430140E050E026
S1131F4066E173E489E00E94430140E050E06EE5FD
S1131F5073E48AE00E94430140E050E06AE872E4DE
S1131F608BE00E94430140E050E065E273E483E0CB
S1131F700E94430140E050E060EA72E484E00E9481
S1131F80430140E050E064E673E485E00E944301CD
S1131F9040E050E067E073E48CE00E94430140E0DD
S1131FA050E06BE473E48DE00E94430140E050E0B4
S1131FB064EA72E48EE00E94430140E050E060EF86
S1131FC072E480E00E94430140E050E06CEB72E474
S1131FD081E00E94430140E050E06FE573E482E059
S1131FE00E94430140E050E064E373E48FE00E9408
S1131FF0430140E050E06FE573E480E10E94430157
S113200040E050E066E872E481E10E9443012FEF72
S113201087EE93E0215080409040E1F700C000003B
S11320200C94B301089540E050E066E173E486E067
S11320300E94430140E050E06EEB72E487E00E94AE
S1132040430140E050E06DE573E488E00E94430101
S113205040E050E066E173E489E00E94430140E01F
S113206050E06DE473E48AE00E94430140E050E0F4
S11320706EE972E48BE00E94430140E050E065E2C7
S113208073E483E00E94430140E050E062EC72E4B8
S113209084E00E94430140E050E06AE573E485E097
S11320A00E94430140E050E067E073E48CE00E944A
S11320B0430140E050E06BE473E48DE00E9443018F
S11320C040E050E064EA72E48EE00E94430140E0A4
S11320D050E060EF72E480E00E94430140E050E091
S11320E06CEB72E481E00E94430140E050E06FE554
S11320F073E482E00E94430140E050E064E373E44F
S11321008FE00E94430140E050E06EE473E480E11C
S11321100E94430140E050E06AE972E481E10E94D8
S113212043012FEF87EE93E0215080409040E1F788
S113213000C000000C94B301089540E050E066E153
S113214073E486E00E94430140E050E06CE972E4ED
S113215087E00E94430140E050E067E673E488E0D2
S11321600E94430140E050E066E173E489E00E948C
S1132170430140E050E06DE473E48AE00E944301CF
S113218040E050E06EE972E48BE00E94430140E0DD
S113219050E065E273E483E00E94430140E050E0D4
S11321A062EC72E484E00E94430140E050E06AE59E
S11321B073E485E00E94430140E050E067E073E48B
S11321C08CE00E94430140E050E06CE573E48DE054
S11321D00E94430140E050E060E972E48EE00E9416
S11321E0430140E050E060EF72E480E00E9443016C
S11321F040E050E06AE972E481E00E94430140E07B
S113220050E069E673E482E00E94430140E050E05C
S113221064E373E48FE00E94430140E050E06EE425
S113222073E480E10E94430140E050E06AE972E413
S113223081E10E9443012FEF87EE93E0215080401B
S11322409040E1F700C000000C94B301089540E011
S113225050E065E273E486E00E94430140E050E010
S113226068E972E487E00E94430140E050E06AE6D6
S113227073E488E00E94430140E050E067E073E4C7
S113228089E00E94430140E050E06EE473E48AE098
S11322900E94430140E050E068E972E48BE00E9450
S11322A0430140E050E066E173E483E00E944301AF
S11322B040E050E060EC72E484E00E94430140E0BE
S11322C050E06CE573E485E00E94430140E050E097
S11322D066E173E48CE00E94430140E050E06DE568
S11322E073E48DE00E94430140E050E06EE872E444
S11322F08EE00E94430140E050E067E073E480E038
S11323000E94430140E050E068E972E481E00E94E9
S1132310430140E050E06AE673E482E00E94430136
S113232040E050E065E273E48FE00E94430140E046
S113233050E06EE473E480E10E94430140E050E029
S113234068E972E481E10E9443012FEF87EE93E094
S1132350215080409040E1F700C000000C94B3018C
S1132360089540E050E064E373E486E00E94430192
S113237040E050E06AE972E487E00E94430140E0F3
S113238050E069E673E488E00E94430140E050E0D5
S113239060EF72E489E00E94430140E050E06EE4A3
S11323A073E48AE00E94430140E050E06AE972E489
S11323B08BE00E94430140E050E067E073E483E077
S11323C00E94430140E050E062EC72E484E00E9429
S11323D0430140E050E06AE573E485E00E94430174
S11323E040E050E065E273E48CE00E94430140E089
S11323F050E06CE573E48DE00E94430140E050E05E
S113240060E972E48EE00E94430140E050E066E13E
S113241073E480E00E94430140E050E06CE972E420
S113242081E00E94430140E050E067E673E482E00B
S11324300E94430140E050E066E173E48FE00E94B3
S1132440430140E050E06DE473E480E10E94430105
S113245040E050E06EE972E481E10E9443012FEF15
S113246087EE93E0215080409040E1F700C00000E7
S11324700C94B301089540E050E064E373E486E013
S11324800E94430140E050E06CEB72E487E00E945C
S1132490430140E050E06FE573E488E00E944301AB
S11324A040E050E060EF72E489E00E94430140E0C4
S11324B050E06EE473E48AE00E94430140E050E09F
S11324C06AE972E48BE00E94430140E050E067E077
S11324D073E483E00E94430140E050E062EC72E464
S11324E084E00E94430140E050E06AE573E485E043
S11324F00E94430140E050E065E273E48CE00E94F6
S1132500430140E050E06BE473E48DE00E9443013A
S113251040E050E064EA72E48EE00E94430140E04F
S113252050E066E173E480E00E94430140E050E043
S11325306EEB72E481E00E94430140E050E06DE5FF
S113254073E482E00E94430140E050E066E173E4FA
S11325508FE00E94430140E050E06DE473E480E1C9
S11325600E94430140E050E06EE972E481E10E9480
S113257043012FEF87EE93E0215080409040E1F734
S113258000C000000C94B301089575DFAEDB37DCA6
S1132590C0DC49DD48DDD1DD5ADEE3DE6CCF0895D1
S11325A040E050E068E173E486E00E94430140E0CB
S11325B050E06CED72E487E00E94430140E050E09B
S11325C063E473E488E00E94430140E050E069E181
S11325D073E489E00E94430140E050E063E673E461
S11325E08AE00E94430140E050E068E772E48BE037
S11325F00E94430140E050E06EE073E483E00E94F7
S1132600430140E050E066E972E484E00E94430143
S113261040E050E06CE673E485E00E94430140E052
S113262050E06EE073E48CE00E94430140E050E02F
S11326306FE473E48DE00E94430140E050E064E9FC
S113264072E48EE00E94430140E050E069E173E4EB
S113265080E00E94430140E050E068EB72E481E0D6
S11326600E94430140E050E063E673E482E00E948C
S1132670430140E050E06DE173E48FE00E944301C8
S113268040E050E064E573E480E10E94430140E0EF
S113269050E06AEA72E481E10E9443012FEF87EE81
S11326A093E0215080409040E1F700C000000C947A
S11326B0B301089540E050E066E173E486E00E94CF
S11326C0430140E050E068EC72E487E00E9443017B
S11326D040E050E064E573E488E00E94430140E098
S11326E050E061E173E489E00E94430140E050E07E
S11326F06FE573E48AE00E94430140E050E068E83B
S113270072E48BE00E94430140E050E066E173E430
S113271083E00E94430140E050E064E972E484E015
S11327200E94430140E050E06DE673E485E00E94BE
S1132730430140E050E066E173E48CE00E94430111
S113274040E050E060E573E48DE00E94430140E026
S113275050E062E972E48EE00E94430140E050E000
S113276064E173E480E00E94430140E050E062ECE5
S113277072E481E00E94430140E050E06AE573E4C2
S113278082E00E94430140E050E068E173E48FE09E
S11327900E94430140E050E06CE573E480E10E9454
S11327A0430140E050E062E972E481E10E944301A8
S11327B02FEF87EE93E0215080409040E1F700C076
S11327C000000C94B301089540E050E063E173E429
S11327D086E00E94430140E050E068EB72E487E049
S11327E00E94430140E050E063E673E488E00E9405
S11327F0430140E050E06AE073E489E00E94430151
S113280040E050E06AE573E48AE00E94430140E05E
S113281050E066E972E48BE00E94430140E050E03E
S11328206EE173E483E00E94430140E050E066E916
S113283072E484E00E94430140E050E06CE673E4FB
S113284085E00E94430140E050E06EE173E48CE0D7
S11328500E94430140E050E06FE473E48DE00E9485
S1132860430140E050E064E972E48EE00E944301D9
S113287040E050E06FE073E480E00E94430140E0F8
S113288050E06EEC72E481E00E94430140E050E0CD
S11328906EE473E482E00E94430140E050E063E1AF
S11328A073E48FE00E94430140E050E063E673E488
S11328B080E10E94430140E050E068E772E481E176
S11328C00E9443012FEF87EE93E021508040904017
S11328D0E1F700C000000C94B301089540E050E01B
S11328E063E173E486E00E94430140E050E068EB5A
S11328F072E487E00E94430140E050E063E673E441
S113290088E00E94430140E050E06AE073E489E01B
S11329100E94430140E050E06AE473E48AE00E94CC
S1132920430140E050E06AEA72E48BE00E94430114
S113293040E050E06EE173E483E00E94430140E034
S113294050E06AEB72E484E00E94430140E050E00E
S113295062E673E485E00E94430140E050E06EE1EA
S113296073E48CE00E94430140E050E06FE473E4C0
S11329708DE00E94430140E050E064E972E48EE09F
S11329800E94430140E050E06FE073E480E00E9465
S1132990430140E050E06EEC72E481E00E944301A8
S11329A040E050E06EE473E482E00E94430140E0C2
S11329B050E063E173E48FE00E94430140E050E0A3
S11329C060E573E480E10E94430140E050E062E985
S11329D072E481E10E9443012FEF87EE93E02150DE
S11329E080409040E1F700C000000C94B3010895CA
S11329F040E050E063E173E486E00E94430140E07C
S1132A0050E062E972E487E00E94430140E050E054
S1132A106EE673E488E00E94430140E050E06AE01F
S1132A2073E489E00E94430140E050E06AE473E407
S1132A308AE00E94430140E050E06AEA72E48BE0DD
S1132A400E94430140E050E06EE173E483E00E94A1
S1132A50430140E050E06AEB72E484E00E944301E9
S1132A6040E050E062E673E485E00E94430140E008
S1132A7050E06EE173E48CE00E94430140E050E0DA
S1132A8061E673E48DE00E94430140E050E060E8B9
S1132A9072E48EE00E94430140E050E06FE073E492
S1132AA080E00E94430140E050E060EB72E481E08A
S1132AB00E94430140E050E067E573E482E00E9435
S1132AC0430140E050E063E173E48FE00E9443017E
S1132AD040E050E060E573E480E10E94430140E09F
S1132AE050E062E972E481E10E9443012FEF87EE36
S1132AF093E0215080409040E1F700C000000C9426
S1132B00B301089540E050E066E173E486E00E947A
S1132B10430140E050E068EA72E487E00E94430128
S1132B2040E050E06EE573E488E00E94430140E039
S1132B3050E061E173E489E00E94430140E050E029
S1132B406EE473E48AE00E94430140E050E06CE9E3
S1132B5072E48BE00E94430140E050E066E173E4DC
S1132B6083E00E94430140E050E068EB72E484E0BB
S1132B700E94430140E050E063E673E485E00E9474
S1132B80430140E050E066E173E48CE00E944301BD
S1132B9040E050E062E673E48DE00E94430140E0CF
S1132BA050E06CE772E48EE00E94430140E050E0A4
S1132BB064E173E480E00E94430140E050E060EA95
S1132BC072E481E00E94430140E050E063E673E474
S1132BD082E00E94430140E050E068E173E48FE04A
S1132BE00E94430140E050E06BE473E480E10E9402
S1132BF0430140E050E064EA72E481E10E94430151
S1132C002FEF87EE93E0215080409040E1F700C021
S1132C1000000C94B301089540E050E068E173E4CF
S1132C2086E00E94430140E050E060EC72E487E0FB
S1132C300E94430140E050E06CE473E488E00E94A9
S1132C40430140E050E069E173E489E00E944301FC
S1132C5040E050E060E573E48AE00E94430140E014
S1132C6050E062E972E48BE00E94430140E050E0EE
S1132C706EE073E483E00E94430140E050E06AEBBD
S1132C8072E484E00E94430140E050E062E673E4B1
S1132C9085E00E94430140E050E06EE073E48CE084
S1132CA00E94430140E050E061E673E48DE00E943D
S1132CB0430140E050E060E872E48EE00E9443018A
S1132CC040E050E069E173E480E00E94430140E0A9
S1132CD050E062E972E481E00E94430140E050E088
S1132CE06EE673E482E00E94430140E050E06DE14F
S1132CF073E48FE00E94430140E050E065E473E434
S1132D0080E10E94430140E050E06CEB72E481E119
S1132D100E9443012FEF87EE93E0215080409040C2
S1132D20E1F700C000000C94B301089540E050E0C6
S1132D3068E173E486E00E94430140E050E06CEDFA
S1132D4072E487E00E94430140E050E063E473E4EE
S1132D5088E00E94430140E050E069E173E489E0C7
S1132D600E94430140E050E060E573E48AE00E9481
S1132D70430140E050E062E972E48BE00E944301C9
S1132D8040E050E06EE073E483E00E94430140E0E1
S1132D9050E06AEB72E484E00E94430140E050E0BA
S1132DA062E673E485E00E94430140E050E06EE097
S1132DB073E48CE00E94430140E050E06FE473E46C
S1132DC08DE00E94430140E050E064E972E48EE04B
S1132DD00E94430140E050E069E173E480E00E9416
S1132DE0430140E050E068EB72E481E00E9443015B
S1132DF040E050E063E673E482E00E94430140E077
S1132E0050E06DE173E48FE00E94430140E050E044
S1132E1065E473E480E10E94430140E050E06CEB20
S1132E2072E481E10E9443012FEF87EE93E0215089
S1132E3080409040E1F700C000000C94B301089575
S1132E4075DFAEDB37DCC0DC49DD48DDD1DD5ADEC1
S1132E50E3DE6CCF089540E050E063E173E486E084
S1132E600E94430140E050E068EB72E487E00E9476
S1132E70430140E050E063E673E488E00E944301CC
S1132E8040E050E06FE073E489E00E94430140E0D9
S1132E9050E064E573E48AE00E94430140E050E0BE
S1132EA06AEA72E48BE00E94430140E050E06EE184
S1132EB073E483E00E94430140E050E066E972E479
S1132EC084E00E94430140E050E06CE673E485E056
S1132ED00E94430140E050E06EE173E48CE00E9404
S1132EE0430140E050E06FE473E48DE00E9443014D
S1132EF040E050E064E972E48EE00E94430140E067
S1132F0050E06FE073E480E00E94430140E050E051
S1132F106EEC72E481E00E94430140E050E06EE414
S1132F2073E482E00E94430140E050E063E173E413
S1132F308FE00E94430140E050E063E673E480E1E7
S1132F400E94430140E050E068E772E481E10E949E
S1132F5043012FEF87EE93E0215080409040E1F74A
S1132F6000C000000C94B301089540E050E068E113
S1132F7073E486E00E94430140E050E062EC72E4B6
S1132F8087E00E94430140E050E06AE573E488E092
S1132F900E94430140E050E064E173E489E00E9450
S1132FA0430140E050E06CE573E48AE00E94430191
S1132FB040E050E062E972E48BE00E94430140E0AB
S1132FC050E066E173E483E00E94430140E050E096
S1132FD064E972E484E00E94430140E050E06DE65D
S1132FE073E485E00E94430140E050E066E173E44D
S1132FF08CE00E94430140E050E060E573E48DE022
S11330000E94430140E050E062E972E48EE00E94D5
S1133010430140E050E064E173E480E00E94430136
S113302040E050E062EC72E481E00E94430140E041
S113303050E06AE573E482E00E94430140E050E01E
S113304068E173E48FE00E94430140E050E06CE5E6
S113305073E480E10E94430140E050E062E972E4DD
S113306081E10E9443012FEF87EE93E021508040DD
S11330709040E1F700C000000C94B301089540E0D3
S113308050E06DE173E486E00E94430140E050E0CB
S11330906EEC72E487E00E94430140E050E06EE48D
S11330A073E488E00E94430140E050E069E173E486
S11330B089E00E94430140E050E063E673E48AE063
S11330C00E94430140E050E068E772E48BE00E9414
S11330D0430140E050E06EE073E483E00E9443016A
S11330E040E050E066E972E484E00E94430140E07D
S11330F050E06CE673E485E00E94430140E050E058
S11331006EE073E48CE00E94430140E050E06FE421
S113311073E48DE00E94430140E050E064E972E40E
S11331208EE00E94430140E050E069E173E480E0F6
S11331300E94430140E050E068EB72E481E00E94A9
S1133140430140E050E063E673E482E00E944301FF
S113315040E050E06DE173E48FE00E94430140E001
S113316050E064E573E480E10E94430140E050E0F4
S11331706AEA72E481E10E9443012FEF87EE93E053
S1133180215080409040E1F700C000000C94B3014E
S1133190089540E050E06DE173E486E00E9443014D
S11331A040E050E06EEC72E487E00E94430140E0AE
S11331B050E06EE473E488E00E94430140E050E094
S11331C069E173E489E00E94430140E050E060E576
S11331D073E48AE00E94430140E050E062E972E453
S11331E08BE00E94430140E050E06EE073E483E032
S11331F00E94430140E050E06AEB72E484E00E94E4
S1133200430140E050E062E673E485E00E9443013C
S113321040E050E06EE073E48CE00E94430140E043
S113322050E06FE473E48DE00E94430140E050E01D
S113323064E972E48EE00E94430140E050E069E1F9
S113324073E480E00E94430140E050E068EB72E4E4
S113325081E00E94430140E050E063E673E482E0D1
S11332600E94430140E050E06DE173E48FE00E946E
S1133270430140E050E065E473E480E10E944301CF
S113328040E050E06CEB72E481E10E9443012FEFD7
S113329087EE93E0215080409040E1F700C00000A9
S11332A00C94B301089540E050E06DE173E486E0CE
S11332B00E94430140E050E060EB72E487E00E942A
S11332C0430140E050E067E573E488E00E94430175
S11332D040E050E069E173E489E00E94430140E08A
S11332E050E060E573E48AE00E94430140E050E06E
S11332F062E972E48BE00E94430140E050E06EE03A
S113330073E483E00E94430140E050E06AEB72E41E
S113331084E00E94430140E050E062E673E485E00B
S11333200E94430140E050E06EE073E48CE00E94B0
S1133330430140E050E061E673E48DE00E94430104
S113334040E050E060E872E48EE00E94430140E017
S113335050E069E173E480E00E94430140E050E002
S113336062E972E481E00E94430140E050E06EE6CD
S113337073E482E00E94430140E050E06DE173E4B5
S11333808FE00E94430140E050E065E473E480E193
S11333900E94430140E050E06CEB72E481E10E9442
S11333A043012FEF87EE93E0215080409040E1F7F6
S11333B000C000000C94B301089540E050E068E1BF
S11333C073E486E00E94430140E050E060EA72E466
S11333D087E00E94430140E050E063E673E488E044
S11333E00E94430140E050E064E173E489E00E94FC
S11333F0430140E050E06BE473E48AE00E9443013F
S113340040E050E064EA72E48BE00E94430140E053
S113341050E066E173E483E00E94430140E050E041
S113342068EB72E484E00E94430140E050E063E60C
S113343073E485E00E94430140E050E066E173E4F8
S11334408CE00E94430140E050E062E673E48DE0CA
S11334500E94430140E050E06CE772E48EE00E9479
S1133460430140E050E064E173E480E00E944301E2
S113347040E050E060EA72E481E00E94430140E0F1
S113348050E063E673E482E00E94430140E050E0D0
S113349068E173E48FE00E94430140E050E06BE494
S11334A073E480E10E94430140E050E064EA72E486
S11334B081E10E9443012FEF87EE93E02150804089
S11334C09040E1F700C000000C94B301089540E07F
S11334D050E063E173E486E00E94430140E050E081
S11334E062E972E487E00E94430140E050E06EE646
S11334F073E488E00E94430140E050E06FE073E42D
S113350089E00E94430140E050E065E473E48AE00E
S11335100E94430140E050E06CEB72E48BE00E94B7
S1133520430140E050E06EE173E483E00E94430114
S113353040E050E06AEB72E484E00E94430140E022
S113354050E062E673E485E00E94430140E050E00D
S11335506EE173E48CE00E94430140E050E061E6D8
S113356073E48DE00E94430140E050E060E872E4BF
S11335708EE00E94430140E050E06FE073E480E09D
S11335800E94430140E050E060EB72E481E00E945D
S1133590430140E050E067E573E482E00E944301A8
S11335A040E050E063E173E48FE00E94430140E0B7
S11335B050E060E573E480E10E94430140E050E0A4
S11335C062E972E481E10E9443012FEF87EE93E008
S11335D0215080409040E1F700C000000C94B301FA
S11335E0089540E050E063E173E486E00E94430103
S11335F040E050E068EB72E487E00E94430140E061
S113360050E063E673E488E00E94430140E050E048
S11336106FE073E489E00E94430140E050E065E418
S113362073E48AE00E94430140E050E06CEB72E4F2
S11336308BE00E94430140E050E06EE173E483E0DC
S11336400E94430140E050E06AEB72E484E00E948F
S1133650430140E050E062E673E485E00E944301E8
S113366040E050E06EE173E48CE00E94430140E0EE
S113367050E06FE473E48DE00E94430140E050E0C9
S113368064E972E48EE00E94430140E050E06FE0A0
S113369073E480E00E94430140E050E06EEC72E489
S11336A081E00E94430140E050E06EE473E482E074
S11336B00E94430140E050E063E173E48FE00E9424
S11336C0430140E050E060E573E480E10E9443017F
S11336D040E050E062E972E481E10E9443012FEF8F
S11336E087EE93E0215080409040E1F700C0000055
S11336F00C94B301089575DFAEDB37DCC0DC49DD23
S113370048DDD1DD5ADEE3DE6CCF08958EB59091AD
S11337100101992331F080ED0E94E701109200012C
S1133720089590E0FC013197E730F10508F077C087
S1133730EA5BFF4F88C18FEF0E94E70181E080932D
S113374001010E9431068FE39CE90197F1F700C063
S113375000001092010163C08FEF0E94E70181E035
S113376080930101C8DF8FE39CE90197F1F700C062
S113377000001092010153C08FEF0E94E70181E025
S1133780809301010E946A0E8FE39CE90197F1F78F
S113379000C000001092010142C08FEF0E94E701B7
S11337A081E0809301010E94C5128FE39CE9019797
S11337B0F1F700C000001092010131C08FEF0E94A8
S11337C0E70181E0809301010E940F0A8FE39CE9E5
S11337D00197F1F700C000001092010120C08FEFA3
S11337E00E94E70181E0809301012ADB8FE39CE9D9
S11337F00197F1F700C000001092010110C08FEF93
S11338000E94E70181E0809301010E940B028FE393
S11338109CE90197F1F700C0000010920101109299
S1133820000108958093000108951F920F920FB62E
S11338300F9211240BB60F922F933F934F935F93E4
S11338406F937F938F939F93AF93BF93EF93FF9364
S113385080910001811104C081E08093000156DF52
S1133860FF91EF91BF91AF919F918F917F916F9154
S11338705F914F913F912F910F900BBE0F900FBE10
S11338800F901F90189533D088F09F5790F0B92F60
S11338909927B751A0F0D1F0660F771F881F991FA1
S11338A01AF0BA95C9F712C0B13081F03AD0B1E03C
S11338B0089537C0672F782F8827B85F39F0B93F4C
S11338C0CCF3869577956795B395D9F73EF49095A3
S11338D08095709561957F4F8F4F9F4F089557FD49
S11338E09058440F551F59F05F3F71F04795880F6A
S11338F097FB991F61F09F3F79F087950895121601
S113390013061406551FF2CF4695F1DF08C01616AC
S113391017061806991FF1CF86957105610508945D
S11339200895E894BB2766277727CB0197F9089574
S11339300BD078C069D028F06ED018F0952309F028
S11339405AC05FC01124EECFCADFA0F3959FD1F314
S1133950950F50E0551F629FF001729FBB27F00D39
S1133960B11D639FAA27F00DB11DAA1F649F66278E
S1133970B00DA11D661F829F2227B00DA11D621FDD
S1133980739FB00DA11D621F839FA00D611D221F97
S1133990749F3327A00D611D231F849F600D211D7B
S11339A0822F762F6A2F11249F5750408AF0E1F01E
S11339B088234AF0EE0FFF1FBB1F661F771F881F67
S11339C091505040A9F79E3F510570F014C0AACF02
S11339D05F3FECF3983EDCF3869577956795B79552
S11339E0F795E7959F5FC1F7FE2B880F911D96957C
S11339F0879597F9089597F99F6780E870E060E0EC
S1133A0008959FEF80EC089500240A941616170673
S1133A1018060906089500240A94121613061406BB
S1133A2005060895092E0394000C11F4882352F01E
S1133A30BB0F40F4BF2B11F460FF04C06F5F7F4FD6
S1133A408F4F9F4F0895EE0FFF1F0590F491E02DC7
S1093A500994F894FFCF75
S9030000FC
