S00C00006D61696E2E7372656373
S11300004CC000005BC0000059C0000057C0000095
S113001055C0000053C0000051C000004FC0000094
S11300204DC000004BC0000049C0000047C00000A4
S113003045C0000043C0000041C000003FC00000B4
S11300403DC000003BC0000039C000000C94BF0953
S113005035C0000033C0000031C000002FC00000D4
S11300602DC000002BC0000029C0000027C00000E4
S113007025C0000023C0000021C000001FC00000F4
S11300801DC000001BC0000019C0000086099109B2
S113009098099F09A609AD09B40911241FBECFEF21
S11300A0D0E4DEBFCDBF21E0A0E0B1E001C01D92ED
S11300B0A230B207E1F744D00C94D30AA1CF009741
S11300C0B9F0289A2FEF39E648E1215030404040FA
S11300D0E1F700C0000015B82FEF39E648E12150E0
S11300E030404040E1F700C000000197009749F715
S11300F008950097B9F0299A2FEF39E648E1215085
S113010030404040E1F700C0000015B82FEF39E659
S113011048E1215030404040E1F700C00000019721
S1130120009749F70895E0D081E090E0E2DFC2D083
S113013081E090E0DEDFECD081E090E0DACF08955A
S1130140F2DF81E090E0BBDFFCCFDF92EF92FF9221
S11301500F931F93CF93DF93C82FE62ED42E022F35
S1130160132FBED0E0ECF0E0808180838FEFC8D005
S11301708FEFC6D08C2FC4D082E08D0DC1D08E2DD0
S1130180BFD0E394E394ED0CEC0EDD2061F0C02FBE
S1130190D12FF12C8E018991B3D0F8018081E80E22
S11301A0F394FD10F7CFF8948E2D8095A9D0E0EC50
S11301B0F0E0808186FFFDCF8FD07894DF91CF91DE
S11301C01F910F91FF90EF90DF900895CF93DF93ED
S11301D000D0CDB7DEB790E199836A839E012F5F8B
S11301E03F4F42E063E0B1DF0F900F90DF91CF917A
S11301F00895CF93DF9300D01F92CDB7DEB790E27E
S113020099836A837B839E012F5F3F4F43E063E0C2
S11302109CDF0F900F900F90DF91CF910895CF93B3
S1130220DF9300D01F92CDB7DEB792E299836A8341
S11302307B839E012F5F3F4F43E063E086DF0F9097
S11302400F900F90DF91CF9108951F93CF93DF9379
S113025000D01F92CDB7DEB7182FCB01BA0121E72A
S11302603DE34AE550E40E94420A0E94ED098EE112
S113027089836A837B839E012F5F3F4F43E064E061
S1130280812F63DF0F900F900F90DF91CF911F911B
S11302900895CF93DF931F92CDB7DEB719829E01E5
S11302A02F5F3F4F40E065E08EEF4FDF0F90DF910F
S11302B0CF91089561E08EEF89DF6FEF73E08EEFE9
S11302C0AEDF66E970E08EEF94CF08958EBD0DB475
S11302D007FEFDCF8EB5089580E18093C100089597
S11302E088E08093C10008958FEF8093C5008093C8
S11302F0C40086E08093C20080E18093C100089529
S1130300E0ECF0E0908195FFFDCF8093C600089566
S113031040E050E066E173E480E097DF40E050E0C5
S113032066E173E483E091DF40E050E066E173E46A
S113033086E08BDF40E050E066E173E489E085DF2E
S113034040E050E066E173E48CE07FDF40E050E0A1
S113035066E173E48FE079DF40E050E064EB72E43F
S113036081E073DF40E050E064EB72E484E06DDF31
S113037040E050E064EB72E487E067DF40E050E087
S113038062E573E48AE061DF40E050E062E573E433
S11303908DE05BDF40E050E062E573E480E155DF2F
S11303A040E050E066E673E482E04FDF40E050E076
S11303B066E673E485E049DF40E050E066E673E416
S11303C088E043DF40E050E06CE872E48BE03DDF1E
S11303D040E050E06CE872E48EE037DF40E050E04B
S11303E06CE872E481E131DF54CF089540E050E0DD
S11303F069E173E486E029DF40E050E068EB72E4F1
S113040087E023DF40E050E063E673E488E01DDF2B
S113041040E050E063E173E489E017DF40E050E03E
S113042060E773E48AE011DF40E050E068E772E4DB
S11304308BE00BDF40E050E066E173E483E005DF2E
S113044040E050E060E872E484E0FFDE40E050E029
S11304506DE673E485E0F9DE40E050E066E173E4C4
S11304608CE0F3DE40E050E060E573E48DE0EDDE27
S113047040E050E062E972E48EE0E7DE40E050E004
S113048063E173E480E0E1DE40E050E068EB72E4B5
S113049081E0DBDE40E050E063E673E482E0D5DE39
S11304A040E050E069E173E48FE0CFDE40E050E0EB
S11304B060E773E480E1C9DE40E050E068E772E49D
S11304C081E1C3DE8BE792E90197F1F700C00000F8
S11304D0E0CE089540E050E063E173E486E0B5DEE9
S11304E040E050E06EEA72E487E0AFDE40E050E0C6
S11304F06DE673E488E0A9DE40E050E06FE073E469
S113050089E0A3DE40E050E06BE673E48AE09DDE20
S113051040E050E064E972E48BE097DE40E050E0B4
S11305206EE173E483E091DE40E050E06CE872E455
S113053084E08BDE40E050E06CE673E485E085DE29
S113054040E050E06EE173E48CE07FDE40E050E098
S11305506FE473E48DE079DE40E050E064E972E436
S11305608EE073DE40E050E06FE073E480E06DDE27
S113057040E050E062EC72E481E067DE40E050E08D
S113058069E573E482E061DE40E050E063E173E436
S11305908FE05BDE40E050E060E773E480E155DE2D
S11305A040E050E060E772E481E14FDE8BE792E9DE
S11305B00197F1F700C000006CCE089540E050E0D0
S11305C063E173E486E041DE40E050E06EEA72E409
S11305D087E03BDE40E050E06DE673E488E035DE22
S11305E040E050E06FE073E489E02FDE40E050E04B
S11305F06BE473E48AE029DE40E050E066EA72E4EA
S11306008BE023DE40E050E06EE173E483E01DDE26
S113061040E050E06AEB72E484E017DE40E050E032
S113062062E673E485E011DE40E050E06EE173E4DD
S11306308CE00BDE40E050E06FE473E48DE005DE17
S113064040E050E064E972E48EE0FFDD40E050E019
S11306506FE073E480E0F9DD40E050E062EC72E4C6
S113066081E0F3DD40E050E069E573E482E0EDDD34
S113067040E050E063E173E48FE0E7DD40E050E008
S113068065E573E480E1E1DD40E050E06CE772E4AD
S113069081E1DBDD8BE792E90197F1F700C000000F
S11306A0F8CD089540E050E063E173E486E0CDDDE9
S11306B040E050E060E772E487E0C7DD40E050E0EE
S11306C060E773E488E0C1DD40E050E06FE073E48C
S11306D089E0BBDD40E050E06BE473E48AE0B5DD23
S11306E040E050E066EA72E48BE0AFDD40E050E0C9
S11306F06EE173E483E0A9DD40E050E06AEB72E46C
S113070084E0A3DD40E050E062E673E485E09DDD33
S113071040E050E06EE173E48CE097DD40E050E0AF
S11307206AE673E48DE091DD40E050E060E872E455
S11307308EE08BDD40E050E06FE073E480E085DD27
S113074040E050E060E772E481E07FDD40E050E0AB
S113075062E673E482E079DD40E050E063E173E453
S11307608FE073DD40E050E065E573E480E16DDD2A
S113077040E050E06CE772E481E167DD8BE792E9E9
S11307800197F1F700C0000084CD089540E050E0E7
S113079069E173E486E059DD40E050E060E772E42B
S11307A087E053DD40E050E06EE673E488E04DDD21
S11307B040E050E063E173E489E047DD40E050E06D
S11307C060E573E48AE041DD40E050E062E972E410
S11307D08BE03BDD40E050E066E173E483E035DD2F
S11307E040E050E068EB72E484E02FDD40E050E04C
S11307F063E673E485E029DD40E050E066E173E4FC
S11308008CE023DD40E050E06BE673E48DE01DDD19
S113081040E050E06CE772E48EE017DD40E050E029
S113082063E173E480E011DD40E050E060E772E4EE
S113083081E00BDD40E050E06EE673E482E005DD2C
S113084040E050E069E173E48FE0FFDC40E050E019
S113085060E573E480E1F9DC40E050E062E972E4D1
S113086081E1F3DC8BE792E90197F1F700C0000026
S113087010CD089540E050E06DE173E486E0E5DCDE
S113088040E050E060E772E487E0DFDC40E050E005
S113089062E673E488E0D9DC40E050E069E173E4A7
S11308A089E0D3DC40E050E065E573E48AE0CDDC28
S11308B040E050E06CE772E48BE0C7DC40E050E0DD
S11308C06EE073E483E0C1DC40E050E06AEB72E484
S11308D084E0BBDC40E050E062E673E485E0B5DC34
S11308E040E050E06EE073E48CE0AFDC40E050E0C8
S11308F06BE673E48DE0A9DC40E050E060E872E46C
S11309008EE0A3DC40E050E069E173E480E09DDC2C
S113091040E050E060E772E481E097DC40E050E0C2
S113092060E773E482E091DC40E050E06DE173E461
S11309308FE08BDC40E050E06BE473E480E185DC25
S113094040E050E066EA72E481E17FDC8BE792E903
S11309500197F1F700C000009CCC089540E050E0FE
S11309606DE173E486E071DC40E050E062EC72E437
S113097087E06BDC40E050E069E573E488E065DC27
S113098040E050E069E173E489E05FDC40E050E07E
S113099065E573E48AE059DC40E050E06CE772E41A
S11309A08BE053DC40E050E06EE073E483E04DDC28
S11309B040E050E06AEB72E484E047DC40E050E061
S11309C062E673E485E041DC40E050E06EE073E40D
S11309D08CE03BDC40E050E06FE473E48DE035DC18
S11309E040E050E064E972E48EE02FDC40E050E047
S11309F069E173E480E029DC40E050E06EEA72E4EF
S1130A0081E023DC40E050E06DE673E482E01DDC2D
S1130A1040E050E06DE173E48FE017DC40E050E02B
S1130A206BE473E480E111DC40E050E066EA72E4D8
S1130A3081E10BDC8BE792E90197F1F700C000003C
S1130A4028CC089540E050E06DE173E486E0FDDBDE
S1130A5040E050E062EC72E487E0F7DB40E050E015
S1130A6069E573E488E0F1DB40E050E069E173E4B8
S1130A7089E0EBDB40E050E060E773E48AE0E5DB2B
S1130A8040E050E060E772E48BE0DFDB40E050E000
S1130A906EE073E483E0D9DB40E050E062E872E4A6
S1130AA084E0D3DB40E050E06CE673E485E0CDDB2A
S1130AB040E050E06EE073E48CE0C7DB40E050E0DF
S1130AC06FE473E48DE0C1DB40E050E064E972E47C
S1130AD08EE0BBDB40E050E069E173E480E0B5DB2D
S1130AE040E050E06EEA72E481E0AFDB40E050E0C9
S1130AF06DE673E482E0A9DB40E050E06DE173E46D
S1130B008FE0A3DB40E050E060E773E480E19DDB2D
S1130B1040E050E064E972E481E197DB8BE792E91D
S1130B200197F1F700C00000B4CB08958BDF5EDCC1
S1130B30D1DC44DDB7DD2ADE9DDE10CF08950EDF63
S1130B4099DE24DEAFDD3ADDC5DC50DC7BCF0895D1
S1130B5040E050E066E173E486E077DB40E050E09B
S1130B6064EB72E487E071DB40E050E06CE573E431
S1130B7088E06BDB40E050E065E273E489E065DB2C
S1130B8040E050E06DE573E48AE05FDB40E050E074
S1130B9064EA72E48BE059DB40E050E064E273E421
S1130BA083E053DB40E050E062E972E484E04DDB33
S1130BB040E050E063E673E485E047DB40E050E06A
S1130BC066E173E48CE041DB40E050E062E573E40D
S1130BD08DE03BDB40E050E060EA72E48EE035DB20
S1130BE040E050E066E173E480E02FDB40E050E059
S1130BF064EB72E481E029DB40E050E06CE573E4EF
S1130C0082E023DB40E050E065E273E48FE01DDB2B
S1130C1040E050E06DE573E480E117DB40E050E034
S1130C2064EA72E481E111DB8BE792E90197F1F761
S1130C3000C000002ECB089540E050E066E173E46C
S1130C4086E003DB40E050E064EB72E487E0FDDA29
S1130C5040E050E06CE573E488E0F7DA40E050E00F
S1130C6062E373E489E0F1DA40E050E063E573E4C1
S1130C708AE0EBDA40E050E06EEB72E48BE0E5DA18
S1130C8040E050E060E373E483E0DFDA40E050E00A
S1130C9066E972E484E0D9DA40E050E060E673E4A7
S1130CA085E0D3DA40E050E066E173E48CE0CDDA2D
S1130CB040E050E062E573E48DE0C7DA40E050E0E4
S1130CC060EA72E48EE0C1DA40E050E066E173E489
S1130CD080E0BBDA40E050E064EB72E481E0B5DA36
S1130CE040E050E06CE573E482E0AFDA40E050E0CD
S1130CF062E373E48FE0A9DA40E050E063E573E473
S1130D0080E1A3DA40E050E06EEB72E481E19DDA29
S1130D108BE792E90197F1F700C00000BACA089581
S1130D2040E050E066E173E486E08FDA40E050E0B2
S1130D3064EB72E487E089DA40E050E06CE573E448
S1130D4088E083DA40E050E062E373E489E07DDA2E
S1130D5040E050E067E473E48AE077DA40E050E092
S1130D606CEC72E48BE071DA40E050E060E373E431
S1130D7083E06BDA40E050E062EB72E484E065DA31
S1130D8040E050E069E573E485E05FDA40E050E07C
S1130D9066E173E48CE059DA40E050E062E573E424
S1130DA08DE053DA40E050E060EA72E48EE04DDA20
S1130DB040E050E066E173E480E047DA40E050E070
S1130DC064EB72E481E041DA40E050E06CE573E406
S1130DD082E03BDA40E050E062E373E48FE035DA2E
S1130DE040E050E067E473E480E12FDA40E050E053
S1130DF06CEC72E481E129DA8BE792E90197F1F76F
S1130E0000C0000046CA089540E050E066E173E483
S1130E1086E01BDA40E050E06CE872E487E015DA23
S1130E2040E050E06CE573E488E00FDA40E050E025
S1130E3062E373E489E009DA40E050E067E473E4D4
S1130E408AE003DA40E050E06CEC72E48BE0FDD918
S1130E5040E050E060E373E483E0F7D940E050E021
S1130E6062EB72E484E0F1D940E050E069E573E4B8
S1130E7085E0EBD940E050E066E173E48CE0E5D92D
S1130E8040E050E066E673E48DE0DFD940E050E0F6
S1130E9060EA72E48EE0D9D940E050E066E173E4A0
S1130EA080E0D3D940E050E06CE872E481E0CDD931
S1130EB040E050E06CE573E482E0C7D940E050E0E4
S1130EC062E373E48FE0C1D940E050E067E473E487
S1130ED080E1BBD940E050E06CEC72E481E1B5D92B
S1130EE08BE792E90197F1F700C00000D2C9089599
S1130EF040E050E066E173E486E0A7D940E050E0CA
S1130F006CE872E487E0A1D940E050E06CE573E45A
S1130F1088E09BD940E050E065E273E489E095D92C
S1130F2040E050E062E573E48AE08FD940E050E0AD
S1130F306AEA72E48BE089D940E050E061E273E44C
S1130F4083E083D940E050E06CEA72E484E07DD928
S1130F5040E050E06EE573E485E077D940E050E08E
S1130F6066E173E48CE071D940E050E066E673E436
S1130F708DE06BD940E050E060EA72E48EE065D920
S1130F8040E050E066E173E480E05FD940E050E087
S1130F906CE872E481E059D940E050E06CE573E418
S1130FA082E053D940E050E065E273E48FE04DD92C
S1130FB040E050E062E573E480E147D940E050E06E
S1130FC06AEA72E481E141D98BE792E90197F1F78A
S1130FD000C000005EC9089540E050E066E173E49B
S1130FE086E033D940E050E06CE872E487E02DD924
S1130FF040E050E06CE573E488E027D940E050E03D
S113100066E173E489E021D940E050E063E573E4EC
S11310108AE01BD940E050E064EA72E48BE015D921
S113102040E050E066E173E483E00FD940E050E033
S113103062EB72E484E009D940E050E06AE573E4CD
S113104085E003D940E050E066E173E48CE0FDD82C
S113105040E050E066E673E48DE0F7D840E050E00D
S113106060EA72E48EE0F1D840E050E066E173E4B7
S113107080E0EBD840E050E06CE872E481E0E5D831
S113108040E050E06CE573E482E0DFD840E050E0FB
S113109066E173E48FE0D9D840E050E063E573E49F
S11310A080E1D3D840E050E064EA72E481E1CDD835
S11310B08BE792E90197F1F700C00000EAC80895B0
S11310C040E050E066E173E486E0BFD840E050E0E1
S11310D064EB72E487E0B9D840E050E06CE573E477
S11310E088E0B3D840E050E066E173E489E0ADD82D
S11310F040E050E063E573E48AE0A7D840E050E0C4
S113110064EA72E48BE0A1D840E050E066E173E465
S113111083E09BD840E050E062EB72E484E095D831
S113112040E050E06AE573E485E08FD840E050E0A9
S113113066E173E48CE089D840E050E062E573E452
S11311408DE083D840E050E060EA72E48EE07DD820
S113115040E050E066E173E480E077D840E050E09E
S113116064EB72E481E071D840E050E06CE573E434
S113117082E06BD840E050E066E173E48FE065D82C
S113118040E050E063E573E480E15FD840E050E084
S113119064EA72E481E159D88BE792E90197F1F7A7
S11311A000C0000076C8089540E050E066E173E4B2
S11311B086E04BD840E050E064EB72E487E045D829
S11311C040E050E06CE573E488E03FD840E050E054
S11311D066E173E489E039D840E050E062E673E404
S11311E08AE033D840E050E066E972E48BE02DD821
S11311F040E050E066E173E483E027D840E050E04B
S113120064E972E484E021D840E050E061E673E4EC
S113121085E01BD840E050E066E173E48CE015D82B
S113122040E050E062E573E48DE00FD840E050E028
S113123060EA72E48EE009D840E050E066E173E4CD
S113124080E003D840E050E064EB72E481E00E9467
S1131250250140E050E06CE573E482E00E94250142
S113126040E050E066E173E48FE00E94250140E035
S113127050E062E673E480E10E94250140E050E022
S113128066E972E481E10E9425018BE792E9019706
S1131290F1F700C000000C944901089511DF9CDEB1
S11312A027DEB2DD3DDDC8DC53DC7ECF089508DFE8
S11312B07BDF4EDCC1DC34DDA7DD1ADE8DCE089584
S11312C035DC34DC33DC32DCF2CF08952FDC2EDC69
S11312D02DDC2CDCE3CF0895CF93CEB590910101A2
S11312E0992331F080ED0E9466011092000145C0FF
S11312F08FEF0E9466018C2F90E0FC013197E7305C
S1131300F10508F038C0EA5BFF4F47C181E08093E4
S113131001010CDC1092010181E090E00E945F0069
S11313202AC081E0809301010ADC1092010123C0EC
S113133081E080930101BBDF109201011CC081E0B8
S113134080930101ABDF1092010115C081E080930D
S11313500101B6DF109201010EC081E0809301010A
S1131360B5DF1092010107C081E0809301010E9462
S113137088011092010110920001CF9108951F92EB
S11313800F920FB60F9211240BB60F922F933F9327
S11313904F935F936F937F938F939F93AF93BF9379
S11313A0EF93FF9380910001811104C081E0809349
S11313B0000192DFFF91EF91BF91AF919F918F91C7
S11313C07F916F915F914F913F912F910F900BBE41
S11313D00F900FBE0F901F90189533D088F09F5731
S11313E090F0B92F9927B751A0F0D1F0660F771F6D
S11313F0881F991F1AF0BA95C9F712C0B13081F04D
S11314003AD0B1E0089537C0672F782F8827B85FA6
S113141039F0B93FCCF3869577956795B395D9F7AD
S11314203EF490958095709561957F4F8F4F9F4FB7
S1131430089557FD9058440F551F59F05F3F71F0C0
S11314404795880F97FB991F61F09F3F79F0879527
S11314500895121613061406551FF2CF4695F1DFB0
S113146008C0161617061806991FF1CF8695710540
S1131470610508940895E894BB2766277727CB0174
S113148097F908950BD078C069D028F06ED018F081
S1131490952309F05AC05FC01124EECFCADFA0F330
S11314A0959FD1F3950F50E0551F629FF001729FF5
S11314B0BB27F00DB11D639FAA27F00DB11DAA1F14
S11314C0649F6627B00DA11D661F829F2227B00D61
S11314D0A11D621F739FB00DA11D621F839FA00DEC
S11314E0611D221F749F3327A00D611D231F849F3C
S11314F0600D211D822F762F6A2F11249F57504093
S11315008AF0E1F088234AF0EE0FFF1FBB1F661F2D
S1131510771F881F91505040A9F79E3F510570F0E6
S113152014C0AACF5F3FECF3983EDCF38695779521
S11315306795B795F795E7959F5FC1F7FE2B880FE1
S1131540911D9695879597F9089597F99F6780E877
S113155070E060E008959FEF80EC089500240A9401
S11315601616170618060906089500240A9412167A
S11315701306140605060895092E0394000C11F4AD
S1131580882352F0BB0F40F4BF2B11F460FF04C05A
S11315906F5F7F4F8F4F9F4F0895EE0FFF1F059092
S10D15A0F491E02D0994F894FFCFB4
S9030000FC
