S01D0000737479726D6F64756C5F68616C765F6475706C65782E7372656319
S113000045C000004BC0000049C0000047C00000CC
S113001045C0000043C0000041C000003FC00000D4
S11300203DC000003BC0000039C0000037C00000E4
S113003035C0000033C0000031C000002FC00000F4
S11300402DC000002BC0000029C0000027C0000004
S113005025C0000023C0000021C000001FC0000014
S11300601DC000001BC0000019C0000017C0000024
S113007015C0000013C0000011C000000FC0000034
S11300800DC000000BC0000009C0000011241FBEF9
S1130090CFEFD0E4DEBFCDBF3AD170C2B1CF92B1C1
S11300A0282F207F9F70922B92B91398129A35E0D3
S11300B03A95F1F700001298EFE1F3E03197F1F788
S11300C000C0000022B1F0E18F9FC0011124922FE3
S11300D09F70892B82B9129A35E03A95F1F70000A6
S11300E012988FE39FE10197F1F700C00000089593
S11300F08FEF81B92FEF89EF90E02150804090403D
S1130100E1F700C0000083E3CADF82E3C8DF88E2CE
S1130110C6DF8CE0C4DF86E0C2DF81E0C0DF8FE3AE
S11301209FE10197F1F700C0000080E8B8CF08957F
S113013081E0B5DF8FE39FE10197F1F700C0000094
S113014080E8ADCF08951092C5001092C40086E0F7
S11301508093C20080E18093C1000895E0ECF0E058
S1130160908195FFFDCF8093C6000895DF92EF92B2
S1130170FF920F931F93CF93DF93C82FE62ED42EB5
S1130180022F132F88E08093C100E0ECF0E080811F
S113019080838FEFE3DF8FEFE1DF8C2FDFDF82E0FF
S11301A08D0DDCDF8E2DDADFE394E394ED0CEC0EA1
S11301B0DD2061F0C02FD12FF12C8E018991CEDF8B
S11301C0F8018081E80EF394FD10F7CFF8948E2D9A
S11301D08095C4DFE0ECF0E0808186FFFDCF80E114
S11301E08093C1007894DF91CF911F910F91FF907C
S11301F0EF90DF900895CF93DF9300D0CDB7DEB7B3
S113020090E199836A839E012F5F3F4F42E063E050
S1130210ADDF0F900F90DF91CF910895CF93DF93CF
S113022000D01F92CDB7DEB790E299836A837B83B7
S11302309E012F5F3F4F43E063E098DF0F900F90E4
S11302400F90DF91CF910895CF93DF9300D01F9249
S1130250CDB7DEB792E299836A837B839E012F5FD9
S11302603F4F43E063E082DF0F900F900F90DF91E8
S1130270CF9108951F93CF93DF9300D01F92CDB7F2
S1130280DEB7182FCB01BA0121E73DE34AE550E47C
S1130290EAD094D08EE189836A837B839E012F5FA9
S11302A03F4F43E064E0812F61DF0F900F900F9088
S11302B0DF91CF911F910895CF93DF931F92CDB714
S11302C0DEB719829E012F5F3F4F40E065E08EEF5D
S11302D04DDF0F90DF91CF9108950097B9F0299ADF
S11302E02FEF33EC49E0215030404040E1F700C0AB
S11302F0000015B82FEF33EC49E021503040404066
S1130300E1F700C000000197009749F7089584B110
S1130310836084B983E090E0E0DF15DFE9DE61E02B
S11303208EEF69DF6FEF73E08EEF8EDF62E870E0CF
S11303308EEF74DF2FEF87EA91E6215080409040E2
S1130340E1F700C00000F4DE40E050E063E473E451
S113035089E090DF40E050E067E473E48AE08ADFFC
S113036040E050E06EE972E48BE084DFA5DF40E01A
S113037050E066E173E48CE07DDF40E050E067E448
S113038073E48DE077DF40E050E06EE972E48EE0E4
S113039071DF92DF40E050E062ED72E48FE06ADFEB
S11303A040E050E067E473E480E164DF40E050E063
S11303B06EE972E481E15EDF7FDFC6CF33D088F07F
S11303C09F5790F0B92F9927B751A0F0D1F0660F3D
S11303D0771F881F991F1AF0BA95C9F712C0B13058
S11303E081F03AD0B1E0089537C0672F782F88277D
S11303F0B85F39F0B93FCCF3869577956795B39597
S1130400D9F73EF490958095709561957F4F8F4F05
S11304109F4F089557FD9058440F551F59F05F3F63
S113042071F04795880F97FB991F61F09F3F79F012
S113043087950895121613061406551FF2CF469594
S1130440F1DF08C0161617061806991FF1CF869516
S11304507105610508940895E894BB2766277727FA
S1130460CB0197F908950BD078C069D028F06ED0ED
S113047018F0952309F05AC05FC01124EECFCADFEB
S1130480A0F3959FD1F3950F50E0551F629FF001A3
S1130490729FBB27F00DB11D639FAA27F00DB11DFC
S11304A0AA1F649F6627B00DA11D661F829F222785
S11304B0B00DA11D621F739FB00DA11D621F839F0C
S11304C0A00D611D221F749F3327A00D611D231FE2
S11304D0849F600D211D822F762F6A2F11249F5730
S11304E050408AF0E1F088234AF0EE0FFF1FBB1F53
S11304F0661F771F881F91505040A9F79E3F5105F2
S113050070F014C0AACF5F3FECF3983EDCF38695FD
S113051077956795B795F795E7959F5FC1F7FE2B9C
S1130520880F911D9695879597F9089597F99F6778
S113053080E870E060E008959FEF80EC0895002467
S11305400A941616170618060906089500240A9434
S113055012161306140605060895092E0394000CBA
S113056011F4882352F0BB0F40F4BF2B11F460FF49
S113057004C06F5F7F4F8F4F9F4F0895F894FFCF54
S9030000FC
